:020000040800F2
:1000000008060020450100082D0A00085B070008CB
:10001000990700083D05000843180008000000008B
:100020000000000000000000000000000D0C0008AF
:100030004105000800000000F50A0008F90C00085E
:100040005F0100085F0100085F0100085F01000810
:100050005F0100085F0100085F0100085F01000800
:100060005F0100085F0100085F0100085F010008F0
:100070005F0100085F0100085F0100085F010008E0
:100080005F0100085F0100085F0100085F010008D0
:100090005F0100085F0100085F0100085F010008C0
:1000A0005F0100085F0100085F0100085F010008B0
:1000B0005F0100085F0100085F0100085F010008A0
:1000C0005F0100085F0100085F0100085F01000890
:1000D0005F010008451600085F0100085F01000885
:1000E0005F0100085F0100085F0100085F01000870
:1000F0005F0100085F0100085F0100085F01000860
:100100005F0100085F0100085F0100085F0100084F
:100110005F0100085F0100085F0100085F0100083F
:100120005F0100085F0100085F0100085F0100082F
:10013000DFF80CD000F0F0F900480047651800081F
:10014000080600200648804706480047FEE7FEE70D
:10015000FEE7FEE7FEE7FEE7FEE7FEE7FEE7FEE777
:10016000790D0008310100082DE9FE4F804681EA33
:100170000300C00F0C46009021F0004123F0004521
:10018000B8EB0200A94105D24046214690461C46E4
:100190000B46024623F00040104347D0270DC7F31B
:1001A0000A00C3F30A510290401A019040286BDA0A
:1001B000C3F3130040F4801B0098924620B1002343
:1001C000D2EB030A63EB0B0B01985946C0F14002D6
:1001D000504600F012F906460D4650465946019A1F
:1001E00000F02AF910EB08006141002487EA11525F
:1001F00084EAE7731A4340D0009A62B3019A012A55
:100200004FEA075215DC001B61EB02014FF0004280
:1002100002EA0752CDE90042001C41F58011324646
:100220002B4600F02AF903B0BDE8F08F4046214686
:10023000F9E7001B61EB0201001C41F58013001877
:100240005B412018A2F5001747EB030140EAD57087
:10025000B6196D4111E06D084FEA360645EAC075E2
:100260004FEA0752001B61EB0201001C41F58011AF
:1002700049084FEA30000019514132462B4603B07D
:10028000BDE8F04F00F0EAB80098012240000023DA
:10029000D0EB020263EBE073009821464FEAE07472
:1002A000B8EB000061EB0401E9E783F000435BE792
:1002B00081F0004158E72DE9FE4F81EA030404F084
:1002C000004421F0004100944FF0000B23F0004364
:1002D00050EA01045ED052EA03045BD0C3F30A542F
:1002E000C1F30A552C44A4F2F3340194A0FB025448
:1002F000C1F3130141F48011C3F3130343F48013DA
:1003000001FB024400FB034E840A970A44EA81542D
:1003100047EA8357A4FB076802958D0A05FB07850A
:100320004FEA932C04FB0C542705029D4FEA065814
:1003300047EA1637B5EB08056EEB070C870E920EF1
:1003400047EA811742EA8312A7FB0201B6EB0B01D1
:1003500064EB00042B0D43EA0C335E1844EB1C5095
:10036000DA465146E7FB0201C5F313044FEA0B33AB
:1003700043EA14534FEA0432019C43EA0603A4F112
:100380000C040294009CCDE900B400F076F803B0B0
:10039000BDE8F08F00200146F9E70EB5C10F80EAF5
:1003A000E0700844CA07002140F233438DE80E0094
:1003B0000A460B4600F061F803B000BD70B5C1F30A
:1003C0000A5201F000450024C1F3130140F2FF334B
:1003D00041F480119A4201DA002070BD40F23343AB
:1003E0009A42A2F2334203DC524200F015F800E0D8
:1003F00090402C43F1D0404270BD202A04DB203ACB
:1004000000FA02F1002070479140C2F1200320FA67
:1004100003F3194390407047202A04DB203A21FA65
:1004200002F00021704721FA02F3D040C2F120020D
:100430009140084319467047202A06DBCB17203A23
:1004400041FA02F043EAE07306E041FA02F3D040D9
:10045000C2F12002914008431946704710B5141E9E
:1004600073F1000408DA401C41F1000192185B416D
:100470001A4301D120F0010010BD2DE9F04D924644
:100480009B4611B1B1FA81F202E0B0FA80F220325B
:100490009046FFF7B2FF04460F4640EA0A0041EAE1
:1004A0000B0153465A46084313D0114653EA010044
:1004B00019D0C8F140025046FFF7AEFF05460E4680
:1004C000504659464246FFF798FF084305D00120A1
:1004D00004E020463946BDE8F08D0020054346EA99
:1004E000E0762C4337430A986305E40AA0EB080042
:1004F0000022FD0A44EA47540A3002D50020014692
:10050000E9E7010510196941DDE90845001969416C
:10051000BDE8F04DA2E70000064C074D06E0E0689C
:1005200040F0010394E8070098471034AC42F6D33A
:10053000FFF702FEA8180008C818000800BFFEE771
:100540007047000000B587B0C320ADF81800042044
:100550008DF81B0003208DF81A0006A9334800F01F
:100560006DF8C020ADF8180004208DF81B000320A2
:100570008DF81A0006A92E4800F060F80020ADF8AA
:100580000C004FF6FF70ADF810000020ADF812001F
:10059000ADF80E0003A94FF0804000F0B7FF03A9AB
:1005A000244800F0B3FF03A9234800F0AFFF002365
:1005B0001A4603214FF0804000F09FFD00231A46A9
:1005C00003211C4800F099FD00231A4603211A4814
:1005D00000F093FD684600F007FE0620ADF8080025
:1005E00069464FF0804000F0A9FD6946114800F0CF
:1005F000A5FD6946104800F0A1FD00204FF08041A4
:1006000088840C49243108800B4924310880012159
:10061000880700F057FD0121064800F053FD012135
:10062000054800F04FFD07B000BD00000008014084
:10063000000C014000040040000800402DE9F0419A
:10064000024600250026002000230024002791F800
:1006500003C00CF00F0591F803C00CF0100CBCF1B6
:10066000000F03D091F802C04CEA050591F800C0D4
:10067000BCF1000F31D0146800202BE04FF0010CCA
:100680000CFA00F3B1F800C00CEA03069E4220D138
:1006900083004FF00F0C0CFA03F7BC4305FA03FC80
:1006A0004CEA040491F803C0BCF1280F06D14FF0C6
:1006B000010C0CFA00FCC2F814C00AE091F803C067
:1006C000BCF1480F05D14FF0010C0CFA00FCC2F848
:1006D00010C0401C0828D1D31460B1F800C0BCF190
:1006E000FF0F34DD546800202EE000F1080C4FF0BD
:1006F000010808FA0CF3B1F800C00CEA03069E42A8
:1007000021D183004FF00F0C0CFA03F7BC4305FA1C
:1007100003FC4CEA040491F803C0BCF1280F05D196
:1007200000F1080C08FA0CF8C2F8148091F803C024
:10073000BCF1480F07D100F1080C4FF0010808FA8E
:100740000CF8C2F81080401C0828CED35460BDE8D5
:10075000F081416170470161704700BFFEE7000012
:1007600008B50C20ADF8000010208DF80300032020
:100770008DF8020069460648FFF760FF40F203303B
:10078000ADF8000069460348FFF758FF08BD0000B8
:1007900000080140000C014000BFFEE72DE9FC47C6
:1007A00081468A460024B9F1640F01DD642406E025
:1007B00019F1640F02DA6FF0630400E04C4644BBA9
:1007C000BAF1000F06D0BAF1010F0CD0BAF1020F46
:1007D0001DD111E004215B48FFF7BBFF08215948F8
:1007E000FFF7B7FF14E001215748FFF7B2FF0221DE
:1007F0005548FFF7AEFF0BE04FF480715248FFF70A
:10080000A8FF4FF400715048FFF7A3FF00E000BFBE
:1008100096E0002C48DD2046FFF7BFFD07464B4A17
:100820004B4BFFF748FD054600224A4BFFF79CFC67
:10083000CDE90001FFF7C2FD04B2BAF1000F06D006
:10084000BAF1010F10D0BAF1020F2BD11AE0042136
:100850003C48FFF77EFF08213A48FFF77CFF04EB96
:10086000C4003D4908801EE001213748FFF771FFB1
:1008700002213548FFF76FFF04EBC4003649091D1C
:10088000088010E04FF480712F48FFF762FF4FF4AB
:1008900000712D48FFF75FFF04EBC4002E490831BB
:1008A000088000E000BF4BE02046FFF776FD0546DC
:1008B000264A274BFFF7FFFC07460022254BFFF790
:1008C000F4FCCDE90001FFF779FD04B2BAF1000FA5
:1008D00006D0BAF1010F11D0BAF1020F2ED11CE0EF
:1008E00004211848FFF737FF08211648FFF731FFAA
:1008F000604200EBC0001849088020E00121124846
:10090000FFF729FF02211048FFF723FF604200EBA9
:10091000C0001149091D088011E04FF480710A4898
:10092000FFF719FF4FF400710748FFF712FF60420D
:1009300000EBC00008490831088000E000BF00BF9C
:10094000BDE8FC8700080140000C0140CDCCCCCCB8
:10095000CCCCDC3F008046403434014070B5304898
:10096000006818285AD1002400213FE02D48005D7E
:1009700025283AD12B4AE01D105C242835D1601C73
:10098000105C4D2831D11546A31CEB5C303BDAB22C
:10099000E31CEB5C2B2B04D02D2B04D0302B07D188
:1009A00004E0012005E04FF0FF3002E0002000E00D
:1009B00000BF00BF1B4D231DEB5C303B64256B4328
:1009C000184E651D755D303D05EB850503EB45054E
:1009D000A31DF35C303B2B4443431BB2124D25F85F
:1009E000123004F10803DCB200BF491C0329BDDB4F
:1009F00000200B4908600C49B1F900000021FFF705
:100A0000CDFE0949B1F902000121FFF7C7FE0649F1
:100A1000B1F904000221FFF7C1FE00BF70BD000064
:100A20000C0000204000002000000020704708B5A6
:100A30004FF4A06000F054F825208DF8000001204C
:100A40008DF8030002208DF8010000208DF80200CF
:100A5000684600F00DF81C208DF8000001208DF88C
:100A6000010000208DF80200684600F001F808BD82
:100A700070B5002100230F22C47804B3154C2468FC
:100A800004F4E064C4F5E064210AC1F10403CA403F
:100A9000447804FA03F184781440214309010E4C90
:100AA0000678A155047804F01F050124AC400578B0
:100AB0006D11AD0005F1E025C5F8004109E00478AD
:100AC00004F01F050124AC40044D0678761145F86A
:100AD000264070BD0CED00E000E400E080E100E0A5
:100AE00002490143024A1160704700000000FA0504
:100AF0000CED00E07047000029B1064AD2690243BC
:100B0000044BDA6104E0034AD2698243014BDA61A3
:100B1000704700000010024029B1064A9269024362
:100B2000044B9A6104E0034A92698243014B9A6143
:100B3000704700000010024030B500210022002460
:100B400000232D4D6D6805F00C0121B1042905D05D
:100B5000082923D105E0294D056022E0274D0560D5
:100B60001FE0254D6D6805F47012234D6D6805F486
:100B70008034022505EB92421CB9214D5543056096
:100B80000BE01D4D6D6805F400351DB11C4D55433E
:100B9000056002E0194D5543056002E0174D056000
:100BA00000BF00BF144D6D6805F0F0010909154D37
:100BB0006B5C0568DD4045600F4D6D6805F4E061D4
:100BC000090A104D6B5C4568DD4085600A4D6D6813
:100BD00005F46051C90A0B4D6B5C4568DD40C5608A
:100BE000054D6D6805F44041890B074D6B5CC56888
:100BF000B5FBF3F5056130BD0010024000127A002C
:100C000000093D001800002028000020704710B5A2
:100C100000F002F810BD00000CB50020019000901B
:100C20003348006840F480303149086000BF3048E4
:100C3000006800F4003000900198401C019000987A
:100C400018B90198B0F5A06FF1D12948006800F4F7
:100C5000003010B10120009001E0002000900098C9
:100C6000012843D12348006840F010002149086062
:100C70000846006820F0030008600846006840F05D
:100C8000020008601A4840681949486008464068F0
:100C900048600846406840F4806048600846406804
:100CA00020F47C1048600846406840F4E810486032
:100CB0000846006840F08070086000BF0C4800687B
:100CC00000F000700028F9D00948406820F00300C7
:100CD000074948600846406840F00200486000BF8D
:100CE0000348406800F00C000828F9D10CBD000052
:100CF000001002400020024010B500F059FC10BD69
:100D000030B519480068194AB0FBF2F1481EB0F13D
:100D1000807F01D301201BE0481E4FF0E02250618C
:100D200050170F22002804DB13071C0E104B1C5415
:100D300006E013071D0E0F4B00F00F04241F1D5576
:100D400000BF00204FF0E0229061072010610020DA
:100D500008B100BFFEE74FF0E020006920F001007D
:100D60004FF0E021086130BD2C000020A08601007A
:100D700000E400E018ED00E010B51348006840F012
:100D800001001149086008464068104908400E49B2
:100D90004860084600680E4908400B49086008464C
:100DA000006820F4802008600846406820F4FE00B7
:100DB00048604FF41F008860FFF729FF4FF0006084
:100DC0000449086010BD0000001002400000FFF858
:100DD000FFFFF6FE08ED00E0F0B50C4615460022D8
:100DE0000021068C4FF6FE773E400684028B018C74
:100DF0004FF60C7632407E1C06EA03162E43324331
:100E0000104EB0420ED0104EB0420BD0B0F1804F19
:100E100008D00E4EB04205D00D4EB04202D00D4E5D
:100E2000B04206D14FF6FD76314044F00106314321
:100E300005E04FF6F576314044F001063143028378
:100E40000184F0BD002C014000340140000400404A
:100E500000080040000C0040F0B50C46154600228A
:100E600000210026078C4FF6EF7C07EA0C07078469
:100E7000028B018C4FF6FF7707EA041640F6FF4716
:100E80003A404FF6FF7707EA03373A434FF6FF77CA
:100E900007EA05273A43114FB8420ED0104FB84227
:100EA0000BD0B0F1804F08D00E4FB84205D00E4F96
:100EB000B84202D00D4FB84206D14FF6DF77394025
:100EC00046F01007394305E04FF65F77394044F0AC
:100ED0001007394302830184F0BD0000002C01405B
:100EE000003401400004004000080040000C0040B5
:100EF000F0B50C461546002200210026078C4FF65F
:100F0000FF6C07EA0C070784828B018C4FF6FF7792
:100F100007EA04264FF60C773A404FF6FF7707EAC8
:100F200003172F433A43114FB8420ED0104FB84227
:100F30000BD0B0F1804F08D00E4FB84205D00E4F05
:100F4000B84202D00D4FB84206D14FF6FF57394094
:100F500046F48077394305E04FF2FF57394044F4B7
:100F60008077394382830184F0BD0000002C01406A
:100F7000003401400004004000080040000C004024
:100F8000F0B50C461546002200210026078C4EF6CF
:100F9000FF7C07EA0C070784828B018C4FF6FF77F2
:100FA00007EA043640F6FF473A404FF6FF7707EA74
:100FB00005273A434FF6FF7707EA03373A43114FC5
:100FC000B8420ED0104FB8420BD0B0F1804F08D0CD
:100FD0000E4FB84205D00E4FB84202D00D4FB84266
:100FE00006D14DF6FF77394046F48057394305E086
:100FF00047F6FF57394044F48057394382830184D0
:10100000F0BD0000002C014000340140000400400D
:1010100000080040000C004000B589B04FF4E070BB
:10102000ADF8200018208DF8230003208DF8220051
:1010300008A92248FFF702FB4FF46170ADF81800D1
:101040000020ADF81400ADF81A00ADF8160005A99F
:101050001B4800F05BFA6020ADF804000120ADF8F9
:1010600006000020ADF80C0001A9154800F0C6F8F4
:101070000821134800F00EF901A9114800F014F9F5
:1010800008210F4800F062F901A90D4800F06CF941
:1010900008210B4800F0B8F901A9094800F0BEF991
:1010A0000821074800F0F8F90121054800F00AF886
:1010B0000121034800F012F809B000BD0010014002
:1010C0000034014021B1028842F00102028004E0B4
:1010D00002884FF6FE731A400280704731B1B0F8B3
:1010E000442042F40042A0F8442005E0B0F8442037
:1010F000C2F30E02A0F844207047F0B50C46154626
:101100001E460021002200230189028B038C4FF62A
:10111000F877394021434FF6FC473A4040F2011737
:101120003A434FF6DD773B404FF6FF7707EA061765
:101130002F433B43018102830384F0BD70B5054614
:101140000C46244885420ED0234885420BD0B5F189
:10115000804F08D02148854205D02148854202D0E1
:101160002048854200D100E000BF208850B9238983
:10117000A28861882846FFF72FFEE188284600F004
:1011800098F925E0208804280AD12389A28861885B
:101190002846FFF761FEE188284600F093F917E042
:1011A000208808280AD12389A28861882846FFF769
:1011B0009FFEE188284600F092F909E02389A28881
:1011C00061882846FFF7DCFEE188284600F090F9A8
:1011D00070BD0000002C01400034014000040040BC
:1011E00000080040000C00400021018041800121E6
:1011F00081800021C18001817047000070B500240A
:1012000000220023058C4FF6FE7635400584028CC3
:101210008388048B4FF68F752C40B51E2C400D88AB
:101220002C43751E2A400D892A434D882A43144DAC
:10123000A8420BD0134DA84208D0134DA84205D0A8
:10124000124DA84202D0124DA84213D14FF6F775A5
:101250002A404D892A434FF6FB752A408D882A4340
:101260004FF6FF652B404FF6FF552B408D892B43E2
:10127000CD892B4383800483CD888586028470BD0D
:10128000002C014000340140004001400044014076
:10129000004801400A460021018B4FF6F7731940C0
:1012A000114301837047000070B500240022002321
:1012B000058C4FF6EF7635400584028C8388048BCD
:1012C00048F6FF752C404FF6FF452C400D884FF631
:1012D000FF7606EA05252C434FF6DF752A400D8977
:1012E00006EA05152A434D8806EA05152A43154DD9
:1012F000A84202D0144DA8421DD14FF67F752A4056
:101300004D894FF6FF7606EA05152A434FF6BF755D
:101310002A408D8806EA05152A434FF6FF352B40F3
:101320004FF2FF752B408D8906EA85052B43CD8949
:1013300006EA85052B4383800483CD8805870284D4
:1013400070BD0000002C0140003401400A4600211D
:10135000018B4FF2FF7319404FF6FF7303EA02232C
:10136000194301837047000070B500240022002358
:10137000058C4FF6FF6635400584028C8388848B8C
:101380004FF68F752C404FF6FC752C400D882C4382
:101390004FF6FF552A400D894FF6FF7606EA0525E0
:1013A0002A434D8806EA05252A43154DA84202D056
:1013B000144DA8421DD14FF2FF752A404D894FF6BA
:1013C000FF7606EA05252A434FF6FF352A408D8829
:1013D00006EA05252A434EF6FF752B404DF6FF75AC
:1013E0002B408D8906EA05152B43CD8906EA0515A4
:1013F0002B4383808483CD888587028470BD000061
:10140000002C0140003401400A460021818B4FF638
:10141000F7731940114381837047000070B50022B3
:1014200000230024058C4EF6FF7635400584038C9E
:101430008488828B48F6FF752A404FF6FF452A4084
:101440000D884FF6FF7606EA05252A434DF6FF750F
:101450002B400D8906EA05352B434D8806EA0535F4
:101460002B430B4DA84202D00A4DA84208D14BF69F
:10147000FF752C408D894FF6FF7606EA85152C43C3
:1014800084808283CD88A0F84050038470BD000022
:10149000002C0140003401400A460021818B4FF2AC
:1014A000FF7319404FF6FF7303EA02231943818348
:1014B0007047028B4FF6F3731A400283028B0A4384
:1014C00002837047028B4FF2FF331A400283028B74
:1014D0004FF6FF7303EA01231A4302837047828B9E
:1014E0004FF6F3731A408283828B0A4382837047DC
:1014F000828B4FF2FF331A408283828B4FF6FF7349
:1015000003EA01231A438283704700000022028805
:101510001D4B98420ED01D4B98420BD0B0F1804F1E
:1015200008D01B4B984205D01A4B984202D01A4B58
:10153000984204D14FF68F731A404B881A43174BC9
:10154000984207D0164B984204D04FF6FF431A40FA
:10155000CB881A4302808B8883850B8803850A4BCE
:1015600098420BD0094B984208D00E4B984205D0B8
:101570000D4B984202D00D4B984201D10B7A038655
:101580000123838270470000002C01400034014099
:101590000004004000080040000C00400010004023
:1015A0000014004000400140004401400048014058
:1015B0000448006820B103480068401E01490860E3
:1015C000704700000800002000B585B018208DF895
:1015D00013004FF40070ADF8100003208DF81200D6
:1015E00004A91648FFF72AF804208DF8130000021A
:1015F000ADF8100004A91148FFF720F84FF4165079
:1016000000900C20ADF80A000020ADF80800ADF8FD
:101610000600ADF80400ADF80C006946084800F07B
:101620009FF8012240F22551054800F074F801218D
:10163000034800F03AF805B000BD00000008014082
:101640000038014010B540F225510D4800F039F83E
:10165000A8B140F225510A4800F018F8084800F0F7
:10166000EBF8C4B207480068E12807D005480168D4
:101670000068401C034A10600348445400BF10BD7A
:10168000003801400C0000204000002010B500226E
:10169000002340F66A14A14200D100BF0A120124BF
:1016A0009440A3B2DC43048010BD21B1828942F48E
:1016B0000052828104E082894DF6FF731A408281D4
:1016C000704770B50246002400230025002040F634
:1016D0006A16B14200D100BFC1F3421501F01F03E9
:1016E000012606FA03F3012D02D19689334006E064
:1016F000022D02D1168A334001E0968A33400C1243
:10170000012606FA04F41688344013B10CB1012006
:1017100000E0002070BDF0B503460024002600253F
:10172000002040F66A17B94200D100BF1846C1F345
:10173000421401F01F06012707FA06F5012C01D11A
:101740000C3004E0022C01D1103000E014301AB14A
:1017500007682F43076002E00768AF430760F0BDEA
:101760002DE9F04786B005460E460024A24600BF8C
:10177000A1460027B08900B100BF2F462C8A4CF645
:10178000FF700440F08804432C82AC894EF6F310BD
:101790000440B08831890843718908430443AC810F
:1017A000AC8A4FF6FF400440B0890443AC8201A8E4
:1017B000FFF7C2F91F48874202D1DDF810A001E00F
:1017C000DDF80CA0A88900F4004040B10AEBCA0083
:1017D00000EB0A1031684900B0FBF1F807E00AEBB2
:1017E000CA0000EB0A1031688900B0FBF1F86420F0
:1017F000B8FBF0F004012009642101FB1089A889DD
:1018000000F4004040B1322000EBC900B0FBF1F021
:1018100000F00700044308E0322000EB09106421C7
:10182000B0FBF1F000F00F0004432C8106B0BDE8DE
:10183000F08700000038014001468888C0F30800A6
:10184000704700BFFEE702E008C8121F08C1002A67
:10185000FAD170477047002001E001C1121F002A31
:10186000FBD1704701210720FFF746F9012144F21F
:101870000500FFF751F901214803FFF74DF9012158
:101880001C20FFF749F9FFF7C7FBFFF739FAFFF70D
:101890009BFEFEF765FFFEF755FEFFF7C8F801E077
:1018A000FFF75CF8FCE70000C81800080000002003
:1018B00040000000461800080819000840000020F9
:1018C000C8050000561800080000000000000000D5
:1018D0000000000000000000000000000000000008
:1018E00000000000010203040102030406070809C6
:1018F0000204060800A24A040000000000000000E4
:081900000102030406070809B7
:0400000508000131BD
:00000001FF
