:020000040800F2
:10000000C0840020450100089917000893130008D8
:1000100095170008E70900086F2800080000000095
:100020000000000000000000000000007D19000832
:10003000EB09000800000000651800080D1C00080E
:100040005F0100085F0100085F0100085F01000810
:100050005F0100085F0100085F0100085F01000800
:100060005F0100085F0100085F0100085F010008F0
:100070005F0100085F0100085F0100085F010008E0
:100080005F0100085F0100085F0100085F010008D0
:100090005F0100085F0100085F0100085F010008C0
:1000A0005F0100085F0100085F0100085F010008B0
:1000B0005F0100085F0100085F0100085F010008A0
:1000C0005F0100085F0100085F0100085F01000890
:1000D0005F010008492600085F0100085F01000871
:1000E0005F0100085F0100085F0100085F01000870
:1000F0005F0100085F0100085F0100085F01000860
:100100005F0100085F0100085F0100085F0100084F
:100110005F0100085F0100082D1F00085F01000853
:100120005F0100085F0100085F0100085F0100082F
:10013000DFF80CD000F02EFC004800472536000800
:10014000C08400200648804706480047FEE7FEE7D7
:10015000FEE7FEE7FEE7FEE7FEE7FEE7FEE7FEE777
:100160008D1C000831010008F0B480EA0102D40FB0
:100170004200B2EB410F02D20246084611464A0045
:1001800042D0C30DDDB2C1F3C752AD1A202D35DA0E
:10019000C1F3160141F4000204B15242C5F1200638
:1001A00002FA06F12A411044B3EBD05F23D0C4B168
:1001B000012DA0EBC35009DCF0BC4FF0004202EA75
:1001C000C352DBB200F5000000F068BA400000F155
:1001D000807000EBC350A0F1807040EAD1704900FC
:1001E00009E0490841EAC071A0EBC35000F50000E6
:1001F000400800EBC350F0BC00F047BA6142012256
:1002000002EB4101001BF6E7F0BC704781F00041B2
:10021000AAE780F00040A7E780EA010210B502F0EB
:100220000043400022D04A001FD0010E01EB1261B2
:10023000C0F35600C2F3560240F4000042F400023C
:10024000A0FB022000047F39140400D0401C50EAB7
:10025000124001D44000491EC2B20C0604EBD0107B
:10026000401C4008802A02D003E0002010BD20F08E
:100270000100002900DA0020184310BD30B480EAE4
:10028000010202F0004530F0004221F0004013D09E
:1002900090B1C30DD40DC2F31601C0F31600E41AD9
:1002A00041F4000140F400027D34914201D3641C0A
:1002B00000E04900002C02DA30BC002070474FF407
:1002C00000000023914201D3891A034340084FEAFA
:1002D0004101F7D151B1914202D14FF0004105E007
:1002E00002D24FF0010101E06FF0010103EBC450B5
:1002F000284430BC00F0C9B92DE9FE4F804681EAA0
:100300000300C00F0C46009021F0004123F000458F
:10031000B8EB0200A94105D24046214690461C4652
:100320000B46024623F00040104347D0270DC7F389
:100330000A00C3F30A510290401A019040286BDA78
:10034000C3F3130040F4801B0098924620B10023B1
:10035000D2EB030A63EB0B0B01985946C0F1400244
:10036000504600F061F906460D4650465946019A3E
:1003700000F079F910EB08006141002487EA11527E
:1003800084EAE7731A4340D0009A62B3019A012AC3
:100390004FEA075215DC001B61EB02014FF00042EF
:1003A00002EA0752CDE90042001C41F580113246B5
:1003B0002B4600F0B0F903B0BDE8F08F404621466F
:1003C000F9E7001B61EB0201001C41F580130018E6
:1003D0005B412018A2F5001747EB030140EAD570F6
:1003E000B6196D4111E06D084FEA360645EAC07551
:1003F0004FEA0752001B61EB0201001C41F580111E
:1004000049084FEA30000019514132462B4603B0EB
:10041000BDE8F04F00F070B90098012240000023C1
:10042000D0EB020263EBE073009821464FEAE074E0
:10043000B8EB000061EB0401E9E783F000435BE700
:1004400081F0004158E72DE9FE4F81EA030404F0F2
:10045000004421F0004100944FF0000B23F00043D2
:1004600050EA01045ED052EA03045BD0C3F30A549D
:10047000C1F30A552C44A4F2F3340194A0FB0254B6
:10048000C1F3130141F48011C3F3130343F4801348
:1004900001FB024400FB034E840A970A44EA81549C
:1004A00047EA8357A4FB076802958D0A05FB078579
:1004B0004FEA932C04FB0C542705029D4FEA065883
:1004C00047EA1637B5EB08056EEB070C870E920E60
:1004D00047EA811742EA8312A7FB0201B6EB0B0140
:1004E00064EB00042B0D43EA0C335E1844EB1C5004
:1004F000DA465146E7FB0201C5F313044FEA0B331A
:1005000043EA14534FEA0432019C43EA0603A4F180
:100510000C040294009CCDE900B400F0FCF803B098
:10052000BDE8F08F00200146F9E7C10F80EAE070D6
:100530000844CA079623002100F0B0B800F000423A
:1005400030F000400AD0C10D01F56071C0F3160013
:1005500042EA0151C208400711437047002001469A
:10056000704701F0004330B421F0004150EA01022D
:1005700006D00A0DA2F56072C1F31301002A02DC55
:1005800030BC00207047440F44EAC104C100E018A9
:1005900030BC00EBC25000F078B830B50B460146D5
:1005A00000202022012409E021FA02F59D4205D312
:1005B00003FA02F5491B04FA02F52844151EA2F1BC
:1005C0000102F1DC30BD2DE9F05F054600209246C6
:1005D0009B4688460646814640241BE02846414605
:1005E0004746224600F02FF853465A46C01A91411A
:1005F00010D311461846224600F016F82D1A67EB64
:1006000001084F4622460120002100F00DF817EBAB
:1006100000094E41201EA4F10104DFDC48463146AA
:100620002A464346BDE8F09F202A04DB203A00FA20
:1006300002F1002070479140C2F1200320FA03F339
:10064000194390407047202A04DB203A21FA02F037
:100650000021704721FA02F3D040C2F120029140FC
:10066000084319467047202A06DBCB17203A41FA87
:1006700002F043EAE07306E041FA02F3D040C2F12F
:10068000200291400843194670470029A8BF7047CF
:10069000401C490008BF20F00100704710B4B0FAB8
:1006A00080FC00FA0CF050EA010404BF10BC704753
:1006B00049B1CCF1200421FA04F411FA0CF118BF6D
:1006C000012121430843A3EB0C01CB1D4FEA00613C
:1006D0004FEA102042BF002010BC704700EBC3500F
:1006E00010440029A4BF10BC7047401C490008BF3B
:1006F00020F0010010BC704710B5141E73F1000407
:1007000008DA401C41F1000192185B411A4301D103
:1007100020F0010010BD2DE9F04D92469B4611B12D
:10072000B1FA81F202E0B0FA80F220329046FFF78F
:100730007BFF04460F4640EA0A0041EA0B0153469C
:100740005A46084313D0114653EA010019D0C8F1A4
:1007500040025046FFF777FF05460E465046594681
:100760004246FFF761FF084305D0012004E0204620
:100770003946BDE8F08D0020054346EAE0762C437B
:1007800037430A986305E40AA0EB08000022FD0A3B
:1007900044EA47540A3002D500200146E9E7010542
:1007A00010196941DDE9084500196941BDE8F04DBE
:1007B000A2E72DE9F04D81EA030404F0004B21F09B
:1007C000004514464FF0000A23F0004150EA0502AC
:1007D00020D054EA01021DD0C5F30A570246C5F3E2
:1007E0001303C1F31300C1F30A5640F4801543F418
:1007F0008013A7EB0608101BD64608F2FD3873EBF2
:10080000050002D308F1010801E092185B41B8F13C
:10081000000F03DA00200146BDE8F08D00204FF400
:100820008011064684460EE0171B73EB050705D3BF
:10083000121B63EB050306434CEA010C49084FEA1F
:10084000300092185B4150EA0107EDD152EA0300F3
:1008500012D082EA040083EA0501084305D0101B88
:10086000AB4106D20122002306E000224FF00043F4
:1008700002E06FF0010253101AEB06004CEB085136
:1008800010EB0A0041EB0B01BDE8F04DFFF734BF60
:100890002DE9F04D00231A461B1A8A4103DB002084
:1008A0000146BDE8F08DC1F30A52C1F3130141F4D2
:1008B00080154FF0000BD10702D100186D41521E78
:1008C0000027044640F2FF11384601EB620A3E461B
:1008D0008046024600204FF48011FFF7B4FEC21993
:1008E0007141BB1846EB0100B4EB030C75EB000C37
:1008F00004D3E41A65EB000517460E46241908F1E7
:1009000001006D4180463428E3DDF91946EB06000D
:10091000091BA84103D24FF0FF32134601E0002229
:1009200013461BEB070046EB0A51BDE8F04DFFF7FD
:10093000E3BEC1F30A52C1F3130140F2FF3341F4A5
:1009400080119A4202DA00200146704740F2334398
:100950009A42A2F2334202DC5242FFF774BEFFF722
:1009600063BE000030B5041E71F1000404DB4FF0DB
:100970000044404264EB0101141E73F1000405DBE6
:100980001C464FF00043524263EB0403994208BFF8
:10099000904230BD064C074D06E0E06840F0010390
:1009A00094E8070098471034AC42F6D3FFF7C4FB35
:1009B000E83700080838000870B521F00043034309
:1009C0000CD0C1F30A550024D5EB040564EB0403F5
:1009D000D617AD1AB34102DB0020014670BD2018C6
:1009E00041EB025170BD00BFFEE770470749086048
:1009F0004FF0E021096941F001014FF0E02211615F
:100A000000BF024909680029FBD17047000000209F
:100A100000B587B0C320ADF8180004208DF81B0086
:100A200003208DF81A0006A9334800F06DF8C020A5
:100A3000ADF8180004208DF81B0003208DF81A0073
:100A400006A92E4800F060F80020ADF80C004FF623
:100A5000FF70ADF810000020ADF81200ADF80E00E8
:100A600003A94FF0804001F027FD03A9244801F0BD
:100A700023FD03A9234801F01FFD00231A4603218B
:100A80004FF0804001F0F6FA00231A4603211C487B
:100A900001F0F0FA00231A4603211A4801F0EAFA9D
:100AA000684601F06FFB0620ADF8080069464FF07C
:100AB000804001F011FB6946114801F00DFB6946C9
:100AC000104801F009FB00204FF0804188840C4958
:100AD000243108800B49243108800121880701F066
:100AE000AEFA0121064801F0AAFA0121054801F0F9
:100AF000A6FA07B000BD000000080140000C01404C
:100B000000040040000800402DE9F04102460025A5
:100B10000026002000230024002791F803C00CF0D9
:100B20000F0591F803C00CF0100CBCF1000F03D0BE
:100B300091F802C04CEA050591F800C0BCF1000F25
:100B400031D0146800202BE04FF0010C0CFA00F3B8
:100B5000B1F800C00CEA03069E4220D183004FF09A
:100B60000F0C0CFA03F7BC4305FA03FC4CEA04042F
:100B700091F803C0BCF1280F06D14FF0010C0CFA1C
:100B800000FCC2F814C00AE091F803C0BCF1480FA1
:100B900005D14FF0010C0CFA00FCC2F810C0401C4B
:100BA0000828D1D31460B1F800C0BCF1FF0F34DDC8
:100BB000546800202EE000F1080C4FF0010808FAFC
:100BC0000CF3B1F800C00CEA03069E4221D1830069
:100BD0004FF00F0C0CFA03F7BC4305FA03FC4CEA88
:100BE000040491F803C0BCF1280F05D100F1080CF2
:100BF00008FA0CF8C2F8148091F803C0BCF1480F51
:100C000007D100F1080C4FF0010808FA0CF8C2F8FF
:100C10001080401C0828CED35460BDE8F08100004D
:100C20002DE9FC413B2000F0A5FB0746FFF77DFCCA
:100C300006464FF08E41FFF721FB05465D49FFF761
:100C4000EBFA04465C4801682046FFF7DFFA5B498F
:100C500008603D2000F08EFB0746FFF766FC064665
:100C60004FF08E41FFF70AFB05465249FFF7D4FAD1
:100C70000446534801682046FFF7C8FA5149086006
:100C80003F2000F077FB0746FFF74FFC06464FF08A
:100C90008E41FFF7F3FA05464649FFF7BDFA0446D1
:100CA000494801682046FFF7B1FA484908604320E7
:100CB00000F060FB0746FFF738FC06464FF08E4118
:100CC000FFF7DCFA05464249FFF7A6FA0446414819
:100CD00001682046FFF79AFA3F490860452000F076
:100CE00049FB0746FFF721FC06464FF08E41FFF710
:100CF000C5FA05463649FFF78FFA044637480168BA
:100D00002046FFF783FA36490860472000F032FB9F
:100D10000746FFF70AFC06464FF08E41FFF7AEFA92
:100D200005462B49FFF778FA04462E48016820460D
:100D3000FFF76CFA2C4908602C4927480068FFF738
:100D40009DFA04462A49FFF767FA234908602749B4
:100D500023480068FFF792FA04462549FFF75CFA3A
:100D60001F490860214920480068FFF787FA0446B8
:100D70001F49FFF751FA1C490860084600681849E6
:100D80000968CDE9001014480368104802680D484E
:100D900001680A48006800F035F816480068FFF757
:100DA000CDFB044622460B4613A001F063FDBDE8CF
:100DB000FC810000CDCC9C41500000203800002078
:100DC000540000203C00002058000020400000207B
:100DD0000000FA445C000020440000206000002075
:100DE00048000020640000204C0000200000344334
:100DF000DB0F494070000020416E676C653A256644
:100E00000A0000002DE9F04F8BB005460E4614464F
:100E1000994621462046FFF7FFF9314608903046B3
:100E2000FFF7FAF9294606902846FFF7F5F90590ED
:100E30000699FFF799F907900899FFF795F9099036
:100E4000FFF77CFB074602F057FC8246FFF789FB61
:100E5000FE490860084601682846FFF70FFA054674
:100E6000FA4801683046FFF709FA0646F748016874
:100E70002046FFF703FA0446F5480168F548006884
:100E8000FFF7CAF98046F4480168F4480068FFF7A4
:100E9000C3F982464146FFF7B9F907464FF0804152
:100EA000FFF7BAF9EE490860EB480168E8480068C6
:100EB000FFF7B2F98046E9480168E6480068FFF7A5
:100EC000ABF982464146FFF74FF907464FF08041A4
:100ED000FFF7A2F9E3490860DF4801680068FFF7FF
:100EE0009BF98246DA4801680068FFF795F9834666
:100EF000DA4801680068FFF78FF90990D548016862
:100F00000068FFF789F908900999FFF77FF907460C
:100F10005946FFF77BF980465146FFF725F9D2493C
:100F20000860D04801682046FFF776F90746CE48AA
:100F300001683046FFF770F980463946FFF766F9D9
:100F4000CA490860C84801682846FFF765F907469E
:100F5000C34801682046FFF75FF980463946FFF72E
:100F600055F9C3490860BE4801683046FFF754F997
:100F70000746BC4801682846FFF74EF980463946C7
:100F8000FFF744F9BB490860BB49B8480068FFF760
:100F900043F90590FFF7D2FAB84AB94BCDE90601FB
:100FA000FFF751FA07468846B6480068FFF7C6FAC9
:100FB00082463A464346FFF79FF9CDE90801FFF71D
:100FC000D0FAB0490860AC49A9480068FFF724F995
:100FD0000590FFF7B3FA8246A84AA94BFFF733FA08
:100FE000CDE90601A8480068FFF7A8FA0746DDE941
:100FF0000623FFF781F9CDE90801FFF7B2FAA2490C
:1010000008609D499B480068FFF706F90590FFF7C7
:1010100095FA9A4A9A4BCDE90601FFF714FA07466A
:1010200088469A480068FFF789FA82463A4643465E
:10103000FFF762F9CDE90801FFF793FA93490860D9
:101040008A4801689248FFF7E7F880468D480168B2
:101050004046FFF789F807464946FFF785F881467D
:10106000834801688A48FFF7D7F8804686480168B8
:101070004046FFF779F807461499FFF775F8149082
:101080007C4801688248FFF7C7F880467F480168BE
:101090004046FFF769F807461599FFF765F8159080
:1010A0006D4815990068FFF7B7F8099068481499DA
:1010B0000068FFF7B1F808906848006880F00040C9
:1010C00049460790FFF7A8F883460899FFF79EF86E
:1010D00082460999FFF79AF880466E49FFF79CF817
:1010E00007465C4801683846FFF73EF859490860F2
:1010F000594814990068FFF78FF8099054481599DA
:101100000068FFF789F88346494652480068FFF7B0
:1011100083F859460890FFF727F882460999FFF7A8
:1011200075F880465B49FFF777F807464B4801683A
:101130003846FFF719F849490860494646480068AB
:10114000FFF76AF88346454815990068FFF764F889
:101150000990404814990068FFF75EF808900999D3
:10116000FFF754F882465946FEF7FEFF804649498C
:10117000FFF752F80746364801683846FEF7F4FF95
:1011800033490860494632480068FFF745F809903E
:10119000324814990068FFF73FF883462D481599A7
:1011A0000068FFF739F859460890FEF7DDFF8246E0
:1011B0000999FFF72BF880463649FFF72DF80746C7
:1011C000254801683846FEF7CFFF234908600846E6
:1011D00001680068FFF720F807901D480168006863
:1011E000FFF71AF805901D4801680068FFF714F82A
:1011F0000490184801680068FFF70EF803900499FE
:10120000FEF7B2FF83460599FEF7AEFF06900799F9
:10121000FEF7AAFF8246FFF791F9CDE9080102F037
:101220006BFA0746FFF79DF9084908600846016810
:1012300008480068FFF722F806490860034801687B
:1012400006480068FFF71AF8044925E074000020FA
:10125000240000201C000020280000202000002086
:10126000780000207C000020800000208400002006
:10127000880000208C000020BD378635FCA9F1D203
:101280004D62503F2C000020300000203400002030
:101290000AD7A33B0AD7233C08603048016830488E
:1012A0000068FEF7EBFF2E4908602C4801682D48C6
:1012B0000068FEF7E3FF2B490860084601680068F4
:1012C000FEF7AAFF0390264801680068FEF7A4FF16
:1012D0000290254801680068FEF79EFF8346234878
:1012E00001680068FEF798FF59460190FEF73CFF41
:1012F00082460299FEF78AFF80460399FEF786FF31
:101300000746FFF71BF9CDE90601164801681748A3
:101310000068FEF781FF83461148016812480068A3
:10132000FEF77AFF59460390FEF71EFF8246FFF74D
:1013300005F9074600224FF08043FFF784F8CDE916
:101340000401DDE9062302F09BF8CDE90801FFF76F
:1013500008F9074908600BB0BDE8F08F7400002061
:101360002400002028000020200000201C00002075
:101370007000002070B50446204600F019F80546BC
:10138000611CC8B200F014F8064606EB052000B256
:1013900070BD00BFFEE721B1028842F48062028086
:1013A00004E002884FF6FF331A40028070470000C5
:1013B00070B5044600BF4FF400312D4800F0F0F83E
:1013C0000028F8D101212A4800F0D2F800BF2949AD
:1013D000274800F091F80028F9D00022D0212448B5
:1013E00000F09AF900BF2449214800F085F8002850
:1013F000F9D001211E4800F094F821461C4800F065
:1014000094F900BF1C49891C194800F075F80028A0
:10141000F8D00121164800F0ABF800BF1549144878
:1014200000F06AF80028F9D00122D021104800F01D
:1014300073F900BF0F49491C0D4800F05DF8002802
:10144000F8D000210A48FFF7A6FF0121084800F064
:101450009BF800BF07493F31054800F04DF80028D0
:10146000F8D0034800F054F90546284670BD000046
:1014700000580040010003008200070070B50446D8
:101480000D460121194800F073F800BF18491748AC
:1014900000F032F80028F9D00022D021134800F0E3
:1014A0003BF900BF1349114800F026F80028F9D095
:1014B00021460E4800F039F900BF0E49891C0B483F
:1014C00000F01AF80028F8D02946084800F02DF955
:1014D00000BF0849891C054800F00EF80028F8D024
:1014E0000121024800F050F870BD00000058004093
:1014F000010003008200070070B5024600240025A9
:1015000000230020958A138B1B0445EA030626F06E
:101510007F4404EA01068E4201D1012000E0002050
:1015200070BD21B1028842F00102028004E002880D
:101530004FF6FE731A4002807047000008B5012183
:10154000082000F0A1F90121880500F08DF94FF481
:101550004060ADF8000003208DF802001C208DF8DB
:10156000030069460148FFF7CFFA08BD000C0140AF
:1015700021B1028842F48072028004E002884FF6B2
:10158000FF631A400280704721B1028842F4007262
:10159000028004E002884FF6FF531A400280704731
:1015A0000CB50246002000230193009300920B0F1C
:1015B000019321F07F41019B1BB1009B14330093E9
:1015C00003E0090C009B18330093009B1B680B4041
:1015D0000BB1012000E000200CBD00002DE9F0431C
:1015E00085B004460D460026B1460427DFF8CC80BE
:1015F000A6884FF6C0700640684600F055F9DDF841
:1016000008802F48B8FBF0F01FFA80F946EA090677
:10161000A68020884FF6FE710840208000262949C8
:10162000286888420CD828684000B8FBF0F087B2E0
:10163000042F00DA04273E4309F10100208427E04B
:10164000E8884BF6FF71884206D1286800EB40001D
:10165000B8FBF0F087B209E0286800EBC00101EBAD
:101660000010B8FBF0F087B247F48047C7F30B00D7
:1016700008B947F0010747F4004006434FF496705D
:1016800009FB00F04FF47A7190FBF1F0401C2084CC
:10169000A683208840F00100208026884FF6F53090
:1016A0000640A8886989084306432680A8892989B5
:1016B0000843208105B0BDE8F083000000127A00E5
:1016C00040420F00A086010010B5FFF737FF00F081
:1016D00001F810BD1FB50020ADF804004FF4806084
:1016E000ADF80A000001ADF80C004CF2503000904B
:1016F00069460648FFF772FF01210448FFF711FF12
:1017000001210248FFF747FE1FBD000000580040BE
:101710000146088AC0B2704712B141F0010102E0EF
:101720004FF6FE731940018270470182704710B571
:1017300000216B20FFF7A2FE07211920FFF79EFE74
:1017400006211A20FFF79AFE18211B20FFF796FEAC
:1017500001211C20FFF792FE10BD000008B50C20EF
:10176000ADF8000010208DF8030003208DF8020072
:1017700069460648FFF7C8F940F20330ADF80000AB
:1017800069460348FFF7C0F908BD000000080140A2
:10179000000C014000BFFEE7704708B54FF4A060A1
:1017A00000F056F825208DF8000001208DF8030088
:1017B00000208DF801008DF80200684600F010F856
:1017C00036208DF8000001208DF8010000208DF8F2
:1017D000020001208DF80300684600F001F808BD02
:1017E00070B5002100230F22C47804B3154C24687F
:1017F00004F4E064C4F5E064210AC1F10403CA40C2
:10180000447804FA03F184781440214309010E4C12
:101810000678A155047804F01F050124AC40057832
:101820006D11AD0005F1E025C5F8004109E004782F
:1018300004F01F050124AC40044D0678761145F8EC
:10184000264070BD0CED00E000E400E080E100E027
:1018500002490143024A1160704700000000FA0586
:101860000CED00E07047000029B1064AD26902433E
:10187000044BDA6104E0034AD2698243014BDA6126
:10188000704700000010024029B1064A92690243E5
:10189000044B9A6104E0034A92698243014B9A61C6
:1018A000704700000010024030B5002100220024E3
:1018B00000232D4D6D6805F00C0121B1042905D0E0
:1018C000082923D105E0294D056022E0274D056058
:1018D0001FE0254D6D6805F47012234D6D6805F409
:1018E0008034022505EB92421CB9214D5543056019
:1018F0000BE01D4D6D6805F400351DB11C4D5543C1
:10190000056002E0194D5543056002E0174D056082
:1019100000BF00BF144D6D6805F0F0010909154DB9
:101920006B5C0568DD4045600F4D6D6805F4E06156
:10193000090A104D6B5C4568DD4085600A4D6D6895
:1019400005F46051C90A0B4D6B5C4568DD40C5600C
:10195000054D6D6805F44041890B074D6B5CC5680A
:10196000B5FBF3F5056130BD0010024000127A00AE
:1019700000093D0090000020A0000020704710B535
:1019800000F002F810BD00000CB50020019000909E
:101990003348006840F480303149086000BF304867
:1019A000006800F4003000900198401C01900098FD
:1019B00018B90198B0F5A06FF1D12948006800F47A
:1019C000003010B10120009001E00020009000984C
:1019D000012843D12348006840F0100021490860E5
:1019E0000846006820F0030008600846006840F0E0
:1019F000020008601A484068194948600846406873
:101A000048600846406840F4806048600846406886
:101A100020F47C1048600846406840F4E8104860B4
:101A20000846006840F08070086000BF0C480068FD
:101A300000F000700028F9D00948406820F0030049
:101A4000074948600846406840F00200486000BF0F
:101A50000348406800F00C000828F9D10CBD0000D4
:101A600000100240002002402DE9F04100248AE0ED
:101A70003B20FFF77FFC8046FEF757FD07464FF0FF
:101A80008E41FEF7FBFB06465749FEF7C5FB0546B0
:101A9000564801682846FEF767FB544908603D2018
:101AA000FFF768FC8046FEF740FD07464FF08E4189
:101AB000FEF7E4FB06464C49FEF7AEFB05464C48F4
:101AC00001682846FEF750FB494908603F20FFF7B0
:101AD00051FC8046FEF729FD07464FF08E41FEF788
:101AE000CDFB06464049FEF797FB05464148016895
:101AF0002846FEF739FB3F4908604320FFF73AFCD0
:101B00008046FEF712FD07464FF08E41FEF7B6FB0A
:101B100006463949FEF780FB0546384801682846E5
:101B2000FEF722FB354908604520FFF723FC80467D
:101B3000FEF7FBFC07464FF08E41FEF79FFB064683
:101B40002D49FEF769FB05462D4801682846FEF73A
:101B50000BFB2B4908604720FFF70CFC8046FEF783
:101B6000E4FC07464FF08E41FEF788FB064622490B
:101B7000FEF752FB0546234801682846FEF7F4FAB3
:101B800020490860641CB4F57A7FFFF671AF1E49E6
:101B900016480068FEF772FB144908601A49144899
:101BA0000068FEF76BFB124908601749114800688E
:101BB000FEF764FB0F490860134910480068FEF700
:101BC0005DFB0E49086010490D480068FEF756FBA2
:101BD0000B4908600C490B480068FEF74FFB0949A8
:101BE0000860BDE8F0810000CDCC9C415000002091
:101BF00054000020580000200000FA445C0000203F
:101C0000600000206400002000007A4410B500F05D
:101C1000A5FC10BD30B519480068194AB0FBF2F1B7
:101C2000481EB0F1807F01D301201BE0481E4FF019
:101C3000E022506150170F22002804DB13071C0E0E
:101C4000104B1C5406E013071D0E0F4B00F00F0441
:101C5000241F1D5500BF00204FF0E0229061072097
:101C60001061002008B100BFFEE74FF0E0200069DE
:101C700020F001004FF0E021086130BDA4000020F9
:101C8000A086010000E400E018ED00E010B5134864
:101C9000006840F00100114908600846406810499A
:101CA00008400E494860084600680E4908400B4944
:101CB00008600846006820F48020086008464068F4
:101CC00020F4FE0048604FF41F008860FFF757FEC5
:101CD0004FF000600449086010BD00000010024091
:101CE0000000FFF8FFFFF6FE08ED00E0F0B50C463F
:101CF000154600220021068C4FF6FE773E400684F2
:101D0000028B018C4FF60C7632407E1C06EA0316DD
:101D10002E433243104EB0420ED0104EB0420BD084
:101D2000B0F1804F08D00E4EB04205D00D4EB042FB
:101D300002D00D4EB04206D14FF6FD76314044F050
:101D40000106314305E04FF6F576314044F00106D7
:101D5000314302830184F0BD002C01400034014076
:101D60000004004000080040000C0040F0B50C46A4
:101D70001546002200210026078C4FF6EF7C07EA6B
:101D80000C070784028B018C4FF6FF7707EA0416D5
:101D900040F6FF473A404FF6FF7707EA03373A43EA
:101DA0004FF6FF7707EA05273A43114FB8420ED0A6
:101DB000104FB8420BD0B0F1804F08D00E4FB84250
:101DC00005D00E4FB84202D00D4FB84206D14FF6A3
:101DD000DF77394046F01007394305E04FF65F776B
:101DE000394044F01007394302830184F0BD0000FC
:101DF000002C014000340140000400400008004075
:101E0000000C0040F0B50C461546002200210026CB
:101E1000078C4FF6FF6C07EA0C070784828B018C56
:101E20004FF6FF7707EA04264FF60C773A404FF655
:101E3000FF7707EA03172F433A43114FB8420ED0FA
:101E4000104FB8420BD0B0F1804F08D00E4FB842BF
:101E500005D00E4FB84202D00D4FB84206D14FF612
:101E6000FF57394046F48077394305E04FF2FF577A
:101E7000394044F48077394382830184F0BD000007
:101E8000002C0140003401400004004000080040E4
:101E9000000C0040F0B50C4615460022002100263B
:101EA000078C4EF6FF7C07EA0C070784828B018CB7
:101EB0004FF6FF7707EA043640F6FF473A404FF601
:101EC000FF7707EA05273A434FF6FF7707EA03371C
:101ED0003A43114FB8420ED0104FB8420BD0B0F178
:101EE000804F08D00E4FB84205D00E4FB84202D0F6
:101EF0000D4FB84206D14DF6FF77394046F4805772
:101F0000394305E047F6FF57394044F480573943D9
:101F100082830184F0BD0000002C014000340140A8
:101F20000004004000080040000C004010B50121F2
:101F3000064800F0C0F838B10121044800F07CF8F0
:101F400001F0B2FBFEF76CFE10BD00000010004077
:101F50000EB540F60F60ADF800001320ADF8040098
:101F60000020ADF80600ADF802006946064800F012
:101F7000A3FA01221146044800F00DF9012102489C
:101F800000F05DF80EBD00000010004000B589B003
:101F90004FF4E070ADF8200018208DF823000320E6
:101FA0008DF8220008A92248FEF7AEFD4FF46170BB
:101FB000ADF818000020ADF81400ADF81A00ADF827
:101FC000160005A91B4800F077FA6020ADF8040060
:101FD0000120ADF806000020ADF80C0001A915485D
:101FE00000F0E2F80821134800F02AF901A911488D
:101FF00000F030F908210F4800F07EF901A90D48E2
:1020000000F088F908210B4800F0D4F901A909482B
:1020100000F0DAF90821074800F014FA0121054818
:1020200000F00DF80121034800F015F809B000BDDB
:102030000010014000340140CA430282704721B1C0
:10204000028842F00102028004E002884FF6FE732B
:102050001A400280704731B1B0F8442042F4004287
:10206000A0F8442005E0B0F84420C2F30E02A0F826
:1020700044207047F0B50C4615461E46002100224C
:1020800000230189028B038C4FF6F87739402143F6
:102090004FF6FC473A4040F201173A434FF6DD77DE
:1020A0003B404FF6FF7707EA06172F433B4301817A
:1020B00002830384F0BD30B50246002000230024D3
:1020C000158A05EA0103958905EA010413B10CB1EB
:1020D000012000E0002030BD70B505460C462448C4
:1020E00085420ED0234885420BD0B5F1804F08D0F1
:1020F0002148854205D02148854202D020488542AA
:1021000000D100E000BF208850B92389A2886188EF
:102110002846FFF7EBFDE188284600F0A0F925E00E
:10212000208804280AD12389A28861882846FFF7DD
:102130001DFEE188284600F09BF917E0208808285A
:102140000AD12389A28861882846FFF75BFEE188CF
:10215000284600F09AF909E02389A2886188284678
:10216000FFF798FEE188284600F098F970BD00005E
:10217000002C0140003401400004004000080040F1
:10218000000C00400021018041800121818000215C
:10219000C180018170471AB183890B43838102E0BA
:1021A00083898B438381704770B50024002200230C
:1021B000058C4FF6FE7635400584028C8388048BAF
:1021C0004FF68F752C40B51E2C400D882C43751E84
:1021D0002A400D892A434D882A43144DA8420BD02A
:1021E000134DA84208D0134DA84205D0124DA84265
:1021F00002D0124DA84213D14FF6F7752A404D89EF
:102200002A434FF6FB752A408D882A434FF6FF6517
:102210002B404FF6FF552B408D892B43CD892B4307
:1022200083800483CD888586028470BD002C0140A4
:10223000003401400040014000440140004801409A
:102240000A460021018B4FF6F773194011430183B1
:102250007047000070B5002400220023058C4FF663
:10226000EF7635400584028C8388048B48F6FF7531
:102270002C404FF6FF452C400D884FF6FF7606EABE
:1022800005252C434FF6DF752A400D8906EA051512
:102290002A434D8806EA05152A43154DA84202D067
:1022A000144DA8421DD14FF67F752A404D894FF637
:1022B000FF7606EA05152A434FF6BF752A408D883A
:1022C00006EA05152A434FF6FF352B404FF2FF75FE
:1022D0002B408D8906EA85052B43CD8906EA8505C5
:1022E0002B4383800483CD880587028470BD000062
:1022F000002C0140003401400A460021018B4FF2BE
:10230000FF7319404FF6FF7303EA02231943018359
:102310007047000070B5002400220023058C4FF6A2
:10232000FF6635400584028C8388848B4FF68F7559
:102330002C404FF6FC752C400D882C434FF6FF5572
:102340002A400D894FF6FF7606EA05252A434D8877
:1023500006EA05252A43154DA84202D0144DA8428D
:102360001DD14FF2FF752A404D894FF6FF7606EAE0
:1023700005252A434FF6FF352A408D8806EA0525B4
:102380002A434EF6FF752B404DF6FF752B408D8985
:1023900006EA05152B43CD8906EA05152B438380F4
:1023A0008483CD888587028470BD0000002C0140A5
:1023B000003401400A460021818B4FF6F773194023
:1023C000114381837047000070B500220023002470
:1023D000058C4EF6FF7635400584038C8488828B0D
:1023E00048F6FF752A404FF6FF452A400D884FF604
:1023F000FF7606EA05252A434DF6FF752B400D8929
:1024000006EA05352B434D8806EA05352B430B4D6F
:10241000A84202D00A4DA84208D14BF6FF752C40C5
:102420008D894FF6FF7606EA85152C4384808283DA
:10243000CD88A0F84050038470BD0000002C0140FE
:10244000003401400A460021818B4FF2FF7319408E
:102450004FF6FF7303EA0223194381837047028B0F
:102460004FF6F3731A400283028B0A4302837047CC
:10247000028B4FF2FF331A400283028B4FF6FF7339
:1024800003EA01231A4302837047828B4FF6F373EA
:102490001A408283828B0A4382837047828B4FF279
:1024A000FF331A408283828B4FF6FF7303EA0123C6
:1024B0001A43828370470000002202881D4B984215
:1024C0000ED01D4B98420BD0B0F1804F08D01B4B63
:1024D000984205D01A4B984202D01A4B984204D128
:1024E0004FF68F731A404B881A43174B984207D008
:1024F000164B984204D04FF6FF431A40CB881A433C
:1025000002808B8883850B8803850A4B98420BD009
:10251000094B984208D00E4B984205D00D4B98427B
:1025200002D00D4B984201D10B7A0386012383829E
:1025300070470000002C01400034014000040040BE
:1025400000080040000C0040001000400014004053
:102550000040014000440140004801400448006838
:1025600020B103480068401E014908607047000020
:102570000000002000B585B018208DF813004FF43E
:102580000070ADF8100003208DF8120004A92A484D
:10259000FEF7BAFA04208DF813000002ADF810001F
:1025A00004A92548FEF7B0FA18208DF813004FF45F
:1025B0008060ADF8100003208DF8120004A91F48B8
:1025C000FEF7A2FA04208DF813004002ADF81000C7
:1025D00004A91A48FEF798FA4FF4165000900C2000
:1025E000ADF80A000020ADF80800ADF80600ADF81F
:1025F0000400ADF80C006946114800F0C3F8012250
:1026000040F225510E4800F097F801210C4800F0E7
:1026100050F84FF4E130009069460A4800F0B2F8F3
:10262000012240F22551074800F086F801210548B3
:1026300000F03FF805B000BD000801400010014067
:1026400000380140004C004010B540F225510E48C2
:1026500000F048F8B0B140F225510B4800F01AF8EC
:10266000094800F0FBF8C4B208480068B0F5804F94
:1026700007D0064801680068401C044A10600448FE
:10268000445400BF10BD0000003801400800002085
:10269000C040002010B50022002340F66A14A14279
:1026A00000D100BF0A1201249440A3B2DC4304808D
:1026B00010BD21B1828942F40052828104E08289F6
:1026C0004DF6FF731A408281704702460020B1F533
:1026D000007F00D100BF13880B400BB1012000E048
:1026E0000020704770B5024600240023002500201A
:1026F00040F66A16B14200D100BFC1F3421501F0A5
:102700001F03012606FA03F3012D02D196893340F7
:1027100006E0022D02D1168A334001E0968A33404A
:102720000C12012606FA04F41688344013B10CB1D9
:10273000012000E0002070BDF0B503460024002613
:102740000025002040F66A17B94200D100BF1846A4
:10275000C1F3421401F01F06012707FA06F5012C08
:1027600001D10C3004E0022C01D1103000E0143013
:102770001AB107682F43076002E00768AF4307609C
:10278000F0BD00002DE9F04786B005460E46002456
:10279000A24600BFA1460027B08900B100BF2F4666
:1027A0002C8A4CF6FF700440F08804432C82AC89DC
:1027B0004EF6F3100440B08831890843718908430C
:1027C0000443AC81AC8A4FF6FF400440B089044317
:1027D000AC8201A8FFF768F81F48874202D1DDF8F4
:1027E00010A001E0DDF80CA0A88900F4004040B181
:1027F0000AEBCA0000EB0A1031684900B0FBF1F89F
:1028000007E00AEBCA0000EB0A1031688900B0FB50
:10281000F1F86420B8FBF0F004012009642101FB09
:102820001089A88900F4004040B1322000EBC900B3
:10283000B0FBF1F000F00700044308E0322000EBA9
:1028400009106421B0FBF1F000F00F0004432C816B
:1028500006B0BDE8F08700000038014001468888D6
:10286000C0F308007047C1F308028280704700BFC0
:10287000FEE700000FB4054B10B503A9044A029807
:1028800000F056F910BC5DF814FB0000013600089A
:10289000B8000020490050EAC12018BF04204A0DAA
:1028A00018BF40F0010040F2FF72B2EB515F08BF69
:1028B00040F00200012808BF052070472DE9F041D3
:1028C0004F1E00EBC7010446D1E9000115461E4624
:1028D00037F006020DD02A463346FDF7B4FD7F1EC1
:1028E00004EBC703D3E90023FDF706FD37F006022A
:1028F000F1D1022F25D0042F13D0062F18BFBDE829
:10290000F0812A463346FDF79EFDD4E90A23FDF700
:10291000F3FC2A463346FDF796FDD4E90823FDF77C
:10292000EBFC2A463346FDF78EFDD4E90623FDF77E
:10293000E3FC2A463346FDF786FDD4E90423FDF780
:10294000DBFC2A463346FDF77EFDD4E90223FDF782
:10295000D3FC2A463346FDF776FDD4E90023BDE8D3
:10296000F041FDF7C9BC0122FEF726B8FDF7C4BC53
:10297000024A00201107FEF71FB8000001FDFFFF0B
:1029800002E008C8121F08C1002AFAD17047704738
:10299000002001E001C1121F002AFBD17047000096
:1029A0000149086070470000BC0000202DE9FF5F6E
:1029B00082B00021DDE90430020DDDF840B00343B0
:1029C00018D044F61050A2F2FF3242431514119869
:1029D00001281FD0A5EB0B00401C5FEA000A4FF056
:1029E00000064E4FDFF83891B046504615D5CAF173
:1029F000000413E0119801244AA3012801D16FEAD1
:102A00000B010298119AC0E90031C0E9024206B0F8
:102A1000BDE8F09FCBF10000DFE704460021404A0B
:102A2000491842EB0450CDE9001012E0E00707D04E
:102A300032463B4640464946FDF705FD80468946FD
:102A400032463B4610461946FDF7FDFC06460F464A
:102A50006410002CEAD1DDE90401DDE90023BAF1BC
:102A6000000F06DAFDF7EFFC42464B46FDF7EBFCA4
:102A700005E0FDF79EFE42464B46FDF79AFE0446F2
:102A80000E460022284BFDF76DFF03D84FF0FF30B4
:102A9000014607E00022254B20463146FDF72CFC7D
:102AA000FDF747FF102409E0002C0ADB0A2200236F
:102AB000FDF789FD039B30321A55641E50EA01026E
:102AC000F2D1641C039AC4F111031444119A012A2F
:102AD00003D0012208430DD10AE0084304D00020AE
:102AE0004FF0110B119072E7A3EB0B056D1E0DE07B
:102AF0005B4504DD4FF0000205F1010504E003DA57
:102B00004FF00002A5F10105002AECD002981199BE
:102B1000C0E90231C0E9004579E700000000144037
:102B20000000F03F300000000000F0430000E03FF4
:102B30002DE9FF4F95B09B468946064600250FE2DA
:102B4000252877D100242746F84A0121059400E082
:102B5000044316F8013F203B01FA03F01042F7D17D
:102B600030782A2811D06FF02F033078A0F130028E
:102B7000092A16D8059A44F0020402EB820203EBFC
:102B800042021044761C0590EFE759F8042B059299
:102B9000002A03DA504244F40054059044F0020441
:102BA000761C30782E2816D116F8010F44F0040454
:102BB0002A280DD06FF02F023078A0F13003092BB6
:102BC00009D807EB870302EB4303C718761CF3E72A
:102BD00059F8047B761C30786C280FD006DC4C2822
:102BE00017D068280DD06A2814D104E0742810D0BA
:102BF0007A280FD10DE044F400140AE044F4801464
:102C000001E044F440147278824202D104F5801449
:102C1000761C761C307866280BD013DC582877D0C9
:102C200009DC002875D04528F6D04628F4D047287E
:102C30001AD19DE118E0632835D0642879D0652841
:102C400012D195E1702873D008DC6728F1D069288B
:102C50006FD06E280DD06F2806D1B5E073282CD028
:102C6000752875D0782874D05A46179990476D1CEE
:102C700075E1C4F30250022809D003280DD0D9F819
:102C8000001004280DD00D6009F1040967E1D9F89E
:102C90000010EA17C1E90052F6E7D9F800100D80DC
:102CA000F2E70D70F0E719F8041B8DF80010002012
:102CB0008DF80100EA46012003E059F804AB4FF01B
:102CC000FF3061074FF0000102D40DE008F101016F
:102CD0008846B9420FDA8045F8DB1AF80810002957
:102CE000F4D108E008F1010188468142FADB1AF8C4
:102CF00008100029F6D105985B46A0EB080721468D
:102D00003846179A00F094FA284400EB080507E0CB
:102D10004DE029E10DE01AF8010B5A46179990474A
:102D2000B8F10108F7D25B4621463846179A13E1FD
:102D300042E00A220092C4F302524FF0000A022A33
:102D400008D059F804CB032A4FEAEC710AD00DE001
:102D500029E02AE009F1070121F00702F2E802C1A7
:102D6000914609E00FFA8CFC4FEAEC71042A03D17A
:102D70004FFA8CFC4FEAEC71002907DA0A46002171
:102D8000DCF1000C61EB02012D2202E0220504D5EA
:102D90002B228DF80420012203E0E20701D020223B
:102DA000F7E7904659E00A2102E010220DE01021D9
:102DB0004FF0000A00910BE010224FF0000A44F09F
:102DC00004040827009203E008224FF0000A009252
:102DD000C4F30252022A05D059F804CB0021032A79
:102DE00008D009E009F1070121F00702F2E802C169
:102DF000914605E01FFA8CFC042A01D10CF0FF0C6F
:102E00004FF00008220728D5702806D0009B83F0D9
:102E1000100353EA0A0305D00EE040228DF8042087
:102E2000012208E05CEA010206D030228DF804207D
:102E30008DF8050002229046009B83F0080353EAB8
:102E40000A030AD15CEA010201D1620705D53022EA
:102E50008DF804204FF001087F1E582804D034A0BC
:102E600003900EA802900DE036A0F9E753466046A5
:102E7000009AFDF7A8FB84460398825C0298401EE6
:102E8000029002705CEA0100F0D1029806A9081ACB
:102E900000F1200A600702D524F4803400E0012705
:102EA000574502DDA7EB0A0000E0002000EB0A0115
:102EB000009005984144401A0590E00306D45B4613
:102EC0002146179A059800F0B3F90544002706E05B
:102ED00001A85A46C05D179990476D1C7F1C474555
:102EE000F6DBE0030CD55B462146179A059800F007
:102EF0009FF9054404E030205A46179990476D1C0D
:102F00000099481E00900029F5DC08E0029802991B
:102F10005A460078491C0291179990476D1CBAF1E6
:102F20000001AAF1010AF1DC65E1000009280100B5
:102F3000303132333435363738396162636465662F
:102F400000000000303132333435363738394142F1
:102F5000434445460000000000F058F90544761C43
:102F6000307800287FF4ECAD19B02846BDE8F08F2A
:102F7000620700D4062709F1070222F0070CFCE8DB
:102F80000223E14603F000485FEA080C02D00FF28A
:102F9000702C0DE05FEA045C02D50FF2682C07E0AC
:102FA0005FEAC47C02D00FF2602C01E0AFF2700C3B
:102FB0004FF0FF3823F00043CDF850C065280CD007
:102FC00006DC452809D046281DD047283DD13DE0E4
:102FD000662818D067287ED138E00021112F01DB48
:102FE000112000E0781CCDE9000106A90EA8FFF72A
:102FF000DDFCDDE90F010E9A03910021009207F13B
:10300000010A04914DE04FF000400097CDE9011016
:1030100006A90EA8FFF7CAFCDDE90F0203920E9B7A
:1030200011990022DDF80CA00093049211B9791CCB
:1030300000EB010AB7EB0A0004D4C0F1FF3007F13E
:10304000010A0490AAEB0700019044E0012F00DA86
:1030500001270021112F01DD112000E03846CDE9C4
:10306000000106A90EA8FFF7A1FCDDE90F010E9AE9
:103070000391002104910092BA4621070CD40399D0
:10308000514500DA8A46BAF1010F05DD009AAAF12E
:103090000101515C302908D0B84202DA10F1040F66
:1030A00006DA0121CDE9011015E0AAF10101E9E7F5
:1030B000002805DC049901440491AAEB000102E018
:1030C000411C514500DD8A460499401A401C01907C
:1030D0004FF000400290200704D40198504501DBD6
:1030E000CDF8048000208DF84F0002980DF14F07B5
:1030F000B0F1004F25D02B200E9002984FF002081F
:1031000000280CDA404202902D200E9007E00A21A0
:103110000298FDF742FA3031029007F8011DB8F12C
:103120000001A8F10108F2DC02980028EFD1791E15
:103130000E980870307800F0200040F0450007F845
:10314000020D12A8C01B00F107081498007800B106
:10315000012000EB0A01019801EBE0710598414460
:10316000401A401E0590E00306D45B462146179A9C
:10317000059800F05DF805441498007818B15A4697
:10318000179990476D1CE00324D55B462146179A9A
:10319000059800F04DF805441CE00498002807DB72
:1031A000DDE90301884203DD0098405C179901E0E6
:1031B000179930205A469047049805F10105401CA4
:1031C00004900198401E019004D12E205A46179970
:1031D00090476D1CBAF10001AAF1010ADDDC05E09F
:1031E00017F8010B5A46179990476D1CB8F100016A
:1031F000A8F10108F4DC5B462146179A0598ABE676
:103200002D0000002B000000200000002DE9F041FF
:10321000044600251E461746880404D405E03946B6
:103220002020B0476D1C641EF9D52846BDE8F0810A
:103230002DE9F041044600251E469046C80301D5FD
:10324000302700E02027880404D505E041463846B1
:10325000B0476D1C641EF9D52846BDE8F08100001A
:103260002DE9F84F04460D4621F0004000917349C6
:10327000814211DC7249884201DC06D12CB1204622
:103280002946BDE8F84FFFF76EBB6E48002DCCBF56
:103290006D496E49BDE8F88F6D49814211DD6D4978
:1032A0008142D8BF4FF0FF366DDD20462946FFF73B
:1032B000F1FA042808BFFFF75BFB20462946BDE86A
:1032C000F88F6549654F25F00045814233DD64493B
:1032D000814219DD002632464FF0804320462946C0
:1032E000FDF70AF880468A46012220462946FDF766
:1032F00063FB00223B46FDF7A0F842465346FDF72C
:1033000058FA04460D463EE001260022BA463B46E6
:1033100020462946FCF7F0FF80460F460022534620
:1033200020462946FDF789F842463B46FDF741FA1B
:1033300004460D4627E04B4981421BDDDFF828A1FA
:1033400002260022534620462946FDF77CF800223B
:103350003B46FCF7D1FF80460F46002253462046ED
:103360002946FDF76AF842463B46FDF722FA044635
:103370000D4608E0032622462B4600203B49FDF778
:1033800018FA04460D4622462B4610461946FDF70C
:103390005AF88B46824602460B46FDF754F807461C
:1033A0000246334888460B4606217844FFF786FAE2
:1033B00052465B46FDF747F882462E488B463A4612
:1033C000434605217844FFF779FA3A464346FDF72C
:1033D0003AF802460B46002E504659460CDAFCF7E6
:1033E0008BFF22462B46FDF72EF801B022462B46D6
:1033F000BDE8F04FFDF724B8FCF77EFF22462B46D0
:10340000FDF721F81C4A7A4402EBC603D3E90023F6
:10341000FDF713F822462B46FDF70FF8174A7A44BA
:1034200002EBC603D3E90023FDF70AF8009A002A4D
:10343000B8BF81F00041BDE8F88F000000001044E3
:103440000000F07F182D4454FB21F93FFB21F9BF08
:103450000000DC3F0000203E0000F33F0000F03F92
:103460000000E63F008003400000F83F0000F0BF8E
:1034700002040000C00300005E03000026030000F9
:103480002DE9F04D9446CCF1000423F000464CEABF
:103490000404524F46EAD4749A46884621F000420A
:1034A000BC4206D8454240EA050442EAD474BC4214
:1034B00004D9BDE8F04D6246FFF758BAAAF140556D
:1034C000A5F17F6555EA0C040BD0022404EAAA7426
:1034D000434DDFF810E144EAD87452EA000B04D0FF
:1034E0000CE0BDE8F04DFFF7BBBE002C14BF012C73
:1034F000BDE8F08D022C30D0032C32D056EA0C0BF4
:103500000AD0BE4220D1BA4209D126F0804622F02C
:1035100080423346114617E000291ADB25E0DFF828
:10352000C8B0FB44002C04BFDBE90001BDE8F08D0E
:10353000012C02BFDBE9000181F00041BDE8F08D04
:10354000022C0AD0032C0CD0BA4212D1B8F1000FD1
:103550000BDA23482549BDE8F08D28462449BDE80B
:10356000F08D28467146BDE8F08D1D482149BDE823
:10357000F08D921B12153C2AC4BF19481D490EDC60
:10358000BAF1000FBEBF12F13C0F0020014606DB6E
:103590006246FDF70EF921F00041FFF761FE002CB5
:1035A00008BFBDE8F08D012C04BF81F00041BDE8EB
:1035B000F08D114A114B022C07D0FCF73EFF2A4632
:1035C000BDE8F04D0A4BFCF738BFFCF736FF2A4642
:1035D000BDE8F04D064BFCF733BF00000000F07F64
:1035E000182D4454FB2109C0BA020000FB21F9BF89
:1035F000FB210940FB21F93F075C143326A6A13CBF
:1036000070B504460D46E1B20548FFF72CF900BF3E
:1036100040210348FFF759F80128F9D1204670BD31
:103620000038014001211720FEF71EF9012144F264
:103630000500FEF729F901214803FEF725F90121CC
:103640001C20FEF721F90121C804FEF70DF9FEF751
:103650009DFCFEF7DFFAFEF78DFFFEF77FF8FDF722
:10366000D7F9FEF731F8FEF762F809A000F032F85A
:10367000FEF7FAF9FEF76CFCFEF78FF807A000F0F2
:1036800029F803E042F21070FDF7B0F9FAE7000004
:10369000426567696E20536574757000456E6420DD
:1036A00053657475700000004FF08040808C00B24C
:1036B000054908800548008800B248800448008811
:1036C00000B28880704700001000002024040040F1
:1036D0002408004010B5044601E0FFF791FF14F8FC
:1036E000010B04490028F8D1BDE810400A20FFF77B
:1036F00087BF0000B80000202DE9F04106460F46C4
:10370000FDF7C6F8041E0D4618BF0120284320F01F
:103710000040C0F17F6000F1E040C00F0ED0301CCF
:1037200018BF0120384320F00040C0F17F6000F155
:10373000E040C00F04BF0120FFF732F920462946C0
:10374000BDE8F081000000004FBB610567ACDD3FC4
:10375000182D4454FB21E93F9BF681D20B73EF3FB8
:10376000182D4454FB21F93FE2652F227F2B7A3C30
:10377000075C143326A6813CBDCBF07A8807703CE9
:10378000075C143326A6913CC4EB98999999C9BF5C
:10379000711623FEC671BCBF6D9A74AFF2B0B3BF91
:1037A0009AFDDE522DDEADBF2F6C6A2C44B4A2BF51
:1037B0000D5555555555D53FFF8300922449C23FBD
:1037C0006E204CC5CD45B73F513DD0A0660DB13FF1
:1037D000EB0D76244B7BA93F11DA22E33AAD903F03
:1037E0000000000000000000083800080000002071
:1037F000C000000080290008C8380008C000002070
:103800000084000090290008000000000000000073
:1038100000000000000000000000000000000000A8
:10382000000000000000803F0000000000000000D9
:103830000000000000000000000000000000000088
:103840000000000000000000000000000000000078
:103850000000000000000000000000000000000068
:103860000000000000000000000000000000000058
:103870000000000000000000000000000000000048
:103880000000000000000000000000000000000038
:10389000000000000000000000000000010203041E
:1038A00001020304060708090204060800A24A04EC
:1038B00000000000000000000102030406070809E0
:0838C000000000000000000000
:0400000508000131BD
:00000001FF
