:020000040800F2
:10000000580B002045010008351B00086F1500083B
:1000100071190008B7090008972C000800000000BB
:10002000000000000000000000000000A11D00080A
:10003000C90B000800000000011C00083120000866
:100040005F0100085F0100085F0100085F01000810
:100050005F0100085F0100085F0100085F01000800
:100060005F0100085F0100085F0100085F010008F0
:100070005F0100085F0100085F0100085F010008E0
:100080005F0100085F0100085F0100085F010008D0
:100090005F0100085F0100085F0100085F010008C0
:1000A0005F0100085F0100085F0100085F010008B0
:1000B0005F0100085F0100085F0100085F010008A0
:1000C0005F0100085F0100085F0100085F01000890
:1000D0005F010008752A00085F0100085F01000841
:1000E0005F0100085F0100085F0100085F01000870
:1000F0005F0100085F0100085F0100085F01000860
:100100005F0100085F0100085F0100085F0100084F
:100110005F0100085F010008512300085F0100082B
:100120005F0100085F0100085F0100085F0100082F
:10013000DFF80CD000F016FC00480047FD33000843
:10014000580B00200648804706480047FEE7FEE7B8
:10015000FEE7FEE7FEE7FEE7FEE7FEE7FEE7FEE777
:10016000B120000831010008F0B480EA0102D40F88
:100170004200B2EB410F02D20246084611464A0045
:1001800042D0C30DDDB2C1F3C752AD1A202D35DA0E
:10019000C1F3160141F4000204B15242C5F1200638
:1001A00002FA06F12A411044B3EBD05F23D0C4B168
:1001B000012DA0EBC35009DCF0BC4FF0004202EA75
:1001C000C352DBB200F5000000F080BA400000F13D
:1001D000807000EBC350A0F1807040EAD1704900FC
:1001E00009E0490841EAC071A0EBC35000F50000E6
:1001F000400800EBC350F0BC00F05FBA614201223E
:1002000002EB4101001BF6E7F0BC704781F00041B2
:10021000AAE780F00040A7E780EA010210B502F0EB
:100220000043400022D04A001FD0010E01EB1261B2
:10023000C0F35600C2F3560240F4000042F400023C
:10024000A0FB022000047F39140400D0401C50EAB7
:10025000124001D44000491EC2B20C0604EBD0107B
:10026000401C4008802A02D003E0002010BD20F08E
:100270000100002900DA0020184310BD30B480EAE4
:10028000010202F0004530F0004221F0004013D09E
:1002900090B1C30DD40DC2F31601C0F31600E41AD9
:1002A00041F4000140F400027D34914201D3641C0A
:1002B00000E04900002C02DA30BC002070474FF407
:1002C00000000023914201D3891A034340084FEAFA
:1002D0004101F7D151B1914202D14FF0004105E007
:1002E00002D24FF0010101E06FF0010103EBC450B5
:1002F000284430BC00F0E1B92DE9FE4F804681EA88
:100300000300C00F0C46009021F0004123F000458F
:10031000B8EB0200A94105D24046214690461C4652
:100320000B46024623F00040104347D0270DC7F389
:100330000A00C3F30A510290401A019040286BDA78
:10034000C3F3130040F4801B0098924620B10023B1
:10035000D2EB030A63EB0B0B01985946C0F1400244
:10036000504600F079F906460D4650465946019A26
:1003700000F091F910EB08006141002487EA115266
:1003800084EAE7731A4340D0009A62B3019A012AC3
:100390004FEA075215DC001B61EB02014FF00042EF
:1003A00002EA0752CDE90042001C41F580113246B5
:1003B0002B4600F0C8F903B0BDE8F08F4046214657
:1003C000F9E7001B61EB0201001C41F580130018E6
:1003D0005B412018A2F5001747EB030140EAD570F6
:1003E000B6196D4111E06D084FEA360645EAC07551
:1003F0004FEA0752001B61EB0201001C41F580111E
:1004000049084FEA30000019514132462B4603B0EB
:10041000BDE8F04F00F088B90098012240000023A9
:10042000D0EB020263EBE073009821464FEAE074E0
:10043000B8EB000061EB0401E9E783F000435BE700
:1004400081F0004158E72DE9FE4F81EA030404F0F2
:10045000004421F0004100944FF0000B23F00043D2
:1004600050EA01045ED052EA03045BD0C3F30A549D
:10047000C1F30A552C44A4F2F3340194A0FB0254B6
:10048000C1F3130141F48011C3F3130343F4801348
:1004900001FB024400FB034E840A970A44EA81549C
:1004A00047EA8357A4FB076802958D0A05FB078579
:1004B0004FEA932C04FB0C542705029D4FEA065883
:1004C00047EA1637B5EB08056EEB070C870E920E60
:1004D00047EA811742EA8312A7FB0201B6EB0B0140
:1004E00064EB00042B0D43EA0C335E1844EB1C5004
:1004F000DA465146E7FB0201C5F313044FEA0B331A
:1005000043EA14534FEA0432019C43EA0603A4F180
:100510000C040294009CCDE900B400F014F903B07F
:10052000BDE8F08F00200146F9E7C10F80EAE070D6
:100530000844CA079623002100F0C8B80EB5C10FC1
:1005400080EAE0700844CA07002140F233438DE896
:100550000E000A460B4600F0F6F803B000BD00F0AE
:10056000004220F00040C10DC0F3160040F400002E
:100570007F2901DA00207047962903DCC1F196013A
:10058000C84001E096398840002AF4D040427047C4
:1005900070B5C1F30A5201F000450024C1F3130104
:1005A00040F2FF3341F480119A4201DA002070BD1D
:1005B00040F233439A42A2F2334203DC524200F04B
:1005C0005AF800E090402C43F1D0404270BD00F05A
:1005D000004230F000400AD0C10D01F56071C0F357
:1005E000160042EA0151C20840071143704700203B
:1005F0000146704701F0004330B421F0004150EA59
:10060000010206D00A0DA2F56072C1F31301002A9F
:1006100002DC30BC00207047440F44EAC104C10032
:10062000E01830BC00EBC25000F047B830B50B46C4
:10063000014600202022012409E021FA02F59D4212
:1006400005D303FA02F5491B04FA02F52844151EE6
:10065000A2F10102F1DC30BD202A04DB203A00FACD
:1006600002F1002070479140C2F1200320FA03F309
:10067000194390407047202A04DB203A21FA02F007
:100680000021704721FA02F3D040C2F120029140CC
:10069000084319467047202A06DBCB17203A41FA57
:1006A00002F043EAE07306E041FA02F3D040C2F1FF
:1006B000200291400843194670470029A8BF70479F
:1006C000401C490008BF20F00100704710B4B0FA88
:1006D00080FC00FA0CF050EA010404BF10BC704723
:1006E00049B1CCF1200421FA04F411FA0CF118BF3D
:1006F000012121430843A3EB0C01CB1D4FEA00610C
:100700004FEA102042BF002010BC704700EBC350DE
:1007100010440029A4BF10BC7047401C490008BF0A
:1007200020F0010010BC704710B5141E73F10004D6
:1007300008DA401C41F1000192185B411A4301D1D3
:1007400020F0010010BD2DE9F04D92469B4611B1FD
:10075000B1FA81F202E0B0FA80F220329046FFF75F
:100760007BFF04460F4640EA0A0041EA0B0153466C
:100770005A46084313D0114653EA010019D0C8F174
:1007800040025046FFF777FF05460E465046594651
:100790004246FFF761FF084305D0012004E02046F0
:1007A0003946BDE8F08D0020054346EAE0762C434B
:1007B00037430A986305E40AA0EB08000022FD0A0B
:1007C00044EA47540A3002D500200146E9E7010512
:1007D00010196941DDE9084500196941BDE8F04D8E
:1007E000A2E72DE9F04D81EA030404F0004B21F06B
:1007F000004514464FF0000A23F0004150EA05027C
:1008000020D054EA01021DD0C5F30A570246C5F3B1
:100810001303C1F31300C1F30A5640F4801543F4E7
:100820008013A7EB0608101BD64608F2FD3873EBC1
:10083000050002D308F1010801E092185B41B8F10C
:10084000000F03DA00200146BDE8F08D00204FF4D0
:100850008011064684460EE0171B73EB050705D38F
:10086000121B63EB050306434CEA010C49084FEAEF
:10087000300092185B4150EA0107EDD152EA0300C3
:1008800012D082EA040083EA0501084305D0101B58
:10089000AB4106D20122002306E000224FF00043C4
:1008A00002E06FF0010253101AEB06004CEB085106
:1008B00010EB0A0041EB0B01BDE8F04DFFF734BF30
:1008C0002DE9F04D00231A461B1A8A4103DB002054
:1008D0000146BDE8F08DC1F30A52C1F3130141F4A2
:1008E00080154FF0000BD10702D100186D41521E48
:1008F0000027044640F2FF11384601EB620A3E46EB
:100900008046024600204FF48011FFF7B4FEC21962
:100910007141BB1846EB0100B4EB030C75EB000C06
:1009200004D3E41A65EB000517460E46241908F1B6
:1009300001006D4180463428E3DDF91946EB0600DD
:10094000091BA84103D24FF0FF32134601E00022F9
:1009500013461BEB070046EB0A51BDE8F04DFFF7CD
:10096000E3BE0000064C074D06E0E06840F00103DE
:1009700094E8070098471034AC42F6D3FFF7DCFB4D
:1009800090360008B036000870B521F000430343EC
:100990000CD0C1F30A550024D5EB040564EB040325
:1009A000D617AD1AB34102DB0020014670BD2018F6
:1009B00041EB025170BD00BFFEE700007CB57848F6
:1009C000006818285AD1002400213FE07548005DD6
:1009D00025283AD1734AE01D105C242835D1601CCB
:1009E000105C4D2831D11546A31CEB5C303BDAB2CC
:1009F000E31CEB5C2B2B04D02D2B04D0302B07D128
:100A000004E0012005E04FF0FF3002E0002000E0AC
:100A100000BF00BF634D231DEB5C303B64256B437F
:100A2000604E651D755D303D05EB850503EB4505A5
:100A3000A31DF35C303B2B4443431BB25A4D25F8B6
:100A4000123004F10803DCB200BF491C0329BDDBEE
:100A50000020534908605449B1F90000002100F01A
:100A600089FF5149B1F90200012100F083FF4E498D
:100A7000B1F90400022100F07DFF00BF4B4800687F
:100A800020287DD14A49622002F050FD48490A20C1
:100A900002F04CFD47480078FC2862DB4548807F27
:100AA0000D285ED14348C07F0A285AD141480078BA
:100AB00000F00200404988713E48007800F00100D3
:100AC000C8713C484078800908723A4880783949B2
:100AD000497801F03F0140EA012037490880354854
:100AE000C0784882334840793249097940EA012088
:100AF00001B2314881822F4880792F49C8822D4820
:100B0000007A2C49C97940EA012001B22A480183C0
:100B10002848407A2849C8812648C07A2549897AD8
:100B200040EA012001B2244801822248407B214949
:100B3000097B40EA0120204948801E48C07B1D49AE
:100B4000897B40EA01201C4988801A48007C487251
:100B50001848407C88721748807CC8721548C07C51
:100B600008731548D0F80E0001901348D0F8120011
:100B70000090019902F0D8F90F48B0F90E1000E08A
:100B80000DE00EA002F08AF800200849086008492C
:100B9000652002F0CBFC06490A2002F0C7FC7CBDB0
:100BA0000C000020C80000200000002010000020E1
:100BB000C0000020A90100203A07002062616C6C8F
:100BC000783A25640A000000704700000749086071
:100BD0004FF0E021096941F001014FF0E02211617D
:100BE00000BF024909680029FBD1704708000020B6
:100BF00000B587B0C320ADF8180004208DF81B00A5
:100C000003208DF81A0006A9334800F07BF8C020B5
:100C1000ADF8180004208DF81B0003208DF81A0091
:100C200006A92E4800F06EF80020ADF80C004FF633
:100C3000FF70ADF810000020ADF81200ADF80E0006
:100C400003A94FF0804001F04DFE03A9244801F0B4
:100C500049FE03A9234801F045FE00231A4603215B
:100C60004FF0804001F01CFC00231A4603211C4871
:100C700001F016FC00231A4603211A4801F010FC6B
:100C8000684601F095FC0620ADF8080069464FF073
:100C9000804001F037FC6946114801F033FC694699
:100CA000104801F02FFC00204FF0804188840C494F
:100CB000243108800B49243108800121880701F084
:100CC000D4FB0121064801F0D0FB0121054801F0C9
:100CD000CCFB07B000BD000000080140000C014043
:100CE000000400400008004000204FF0804188844C
:100CF000024908800249088070470000240400402F
:100D0000240800402DE9F04102460025002600207D
:100D100000230024002791F803C00CF00F0591F880
:100D200003C00CF0100CBCF1000F03D091F802C00E
:100D30004CEA050591F800C0BCF1000F31D01468F1
:100D400000202BE04FF0010C0CFA00F3B1F800C0CA
:100D50000CEA03069E4220D183004FF00F0C0CFAE0
:100D600003F7BC4305FA03FC4CEA040491F803C002
:100D7000BCF1280F06D14FF0010C0CFA00FCC2F8B0
:100D800014C00AE091F803C0BCF1480F05D14FF040
:100D9000010C0CFA00FCC2F810C0401C0828D1D38A
:100DA0001460B1F800C0BCF1FF0F34DD54680020BE
:100DB0002EE000F1080C4FF0010808FA0CF3B1F82E
:100DC00000C00CEA03069E4221D183004FF00F0CB5
:100DD0000CFA03F7BC4305FA03FC4CEA040491F84F
:100DE00003C0BCF1280F05D100F1080C08FA0CF87B
:100DF000C2F8148091F803C0BCF1480F07D100F18C
:100E0000080C4FF0010808FA0CF8C2F81080401CDA
:100E10000828CED35460BDE8F0814161704701617C
:100E2000704700002DE9FC413B2000F091FB074694
:100E3000FFF77BFB06464FF08E41FFF71FFA054692
:100E40005849FFF7E9F90446574801682046FFF77B
:100E5000DDF9564908603D2000F07AFB0746FFF7B0
:100E600064FB06464FF08E41FFF708FA05464D49F0
:100E7000FFF7D2F904464E4801682046FFF7C6F94D
:100E80004C4908603F2000F063FB0746FFF74DFB2D
:100E900006464FF08E41FFF7F1F905464149FFF74D
:100EA000BBF90446444801682046FFF7AFF94349BF
:100EB0000860432000F04CFB0746FFF736FB064670
:100EC0004FF08E41FFF7DAF905463D49FFF7A4F9E7
:100ED00004463C4801682046FFF798F93A49086003
:100EE000452000F035FB0746FFF71FFB06464FF095
:100EF0008E41FFF7C3F905463149FFF78DF90446E6
:100F0000324801682046FFF781F9314908604720DF
:100F100000F01EFB0746FFF708FB06464FF08E4128
:100F2000FFF7ACF905462649FFF776F9044629484C
:100F300001682046FFF76AF92749086027492248D7
:100F40000068FFF79BF904462549FFF765F91E493C
:100F5000086022491E480068FFF790F904462049BE
:100F6000FFF75AF91A4908601C491B480068FFF747
:100F700085F904461A49FFF74FF9174908600846F2
:100F8000006813490968CDE900100F4803680B4851
:100F90000268084801680548006800F023F8BDE8C9
:100FA000FC810000CDCC9C41580000204000002076
:100FB0005C00002044000020600000204800002069
:100FC0000000FA44640000204C000020680000206B
:100FD000500000206C00002054000020000034432A
:100FE000C3F548402DE9F04F8BB005460E46144638
:100FF000994621462046FFF70FF9314608903046C2
:10100000FFF70AF9294606902846FFF705F90590EB
:101010000699FFF7A9F807900899FFF7A5F8099036
:10102000FFF7D5FA074602F0BDFA8246FFF7E2FA6B
:10103000FE490860084601682846FFF71FF9054683
:10104000FA4801683046FFF719F90646F748016883
:101050002046FFF713F90446F5480168F548006893
:10106000FFF7DAF88046F4480168F4480068FFF7B3
:10107000D3F882464146FFF7C9F807464FF0804152
:10108000FFF7CAF8EE490860EB480168E8480068D5
:10109000FFF7C2F88046E9480168E6480068FFF7B4
:1010A000BBF882464146FFF75FF807464FF08041A4
:1010B000FFF7B2F8E3490860DF4801680068FFF70E
:1010C000ABF88246DA4801680068FFF7A5F8834666
:1010D000DA4801680068FFF79FF80990D548016871
:1010E0000068FFF799F808900999FFF78FF807460D
:1010F0005946FFF78BF880465146FFF735F8D2493D
:101100000860D04801682046FFF786F80746CE48B9
:1011100001683046FFF780F880463946FFF776F8D9
:10112000CA490860C84801682846FFF775F80746AD
:10113000C34801682046FFF76FF880463946FFF73D
:1011400065F8C3490860BE4801683046FFF764F897
:101150000746BC4801682846FFF75EF880463946D6
:10116000FFF754F8BB4908600021B8480068FFF752
:1011700053F80590FFF72BFAB74AB84BCDE90601B3
:10118000FFF761F907468846B5480068FFF71FFA80
:1011900082463A464346FFF7AFF8CDE90801FFF72C
:1011A00029FAAF4908600021A9480068FFF734F820
:1011B0000590FFF70CFA8246A74AA84BFFF743F9C0
:1011C000CDE90601A7480068FFF701FA0746DDE907
:1011D0000623FFF791F8CDE90801FFF70BFAA149C3
:1011E000086000219B480068FFF716F80590FFF79C
:1011F000EEF9994A994BCDE90601FFF724F9074624
:10120000884699480068FFF7E2F982463A46434625
:10121000FFF772F8CDE90801FFF7ECF99249086091
:101220008A4801689148FEF7F7FF80468C480168BC
:101230004046FEF799FF07464946FEF795FF81466F
:10124000834801688948FEF7E7FF804685480168C2
:101250004046FEF789FF07461499FEF785FF149074
:101260007C4801688148FEF7D7FF80467E480168C8
:101270004046FEF779FF07461599FEF775FF159072
:101280006D4815990068FEF7C7FF099068481499E2
:101290000068FEF7C1FF08906848006880F00040D1
:1012A00049460790FEF7B8FF83460899FEF7AEFF60
:1012B00082460999FEF7AAFF80466D49FEF7ACFF0A
:1012C00007465C4801683846FEF74EFF59490860FA
:1012D000594814990068FEF79FFF099054481599E2
:1012E0000068FEF799FF8346494652480068FEF7BA
:1012F00093FF59460890FEF737FF82460999FEF79B
:1013000085FF80465A49FEF787FF07464B4801682C
:101310003846FEF729FF49490860494646480068B3
:10132000FEF77AFF8346454815990068FEF774FF7B
:101330000990404814990068FEF76EFF08900999DB
:10134000FEF764FF82465946FEF70EFF8046484985
:10135000FEF762FF0746364801683846FEF704FF8D
:1013600033490860494632480068FEF755FF099046
:10137000324814990068FEF74FFF83462D481599AF
:101380000068FEF749FF59460890FEF7EDFE8246D9
:101390000999FEF73BFF80463549FEF73DFF0746BA
:1013A000254801683846FEF7DFFE234908600846F5
:1013B00001680068FEF730FF07901D48016800686B
:1013C000FEF72AFF05901D4801680068FEF724FF1C
:1013D0000490184801680068FEF71EFF0390049906
:1013E000FEF7C2FE83460599FEF7BEFE06900799FA
:1013F000FEF7BAFE8246FFF7EAF8CDE9080102F0EF
:10140000D1F80746FFF7F6F8084908600846016872
:1014100008480068FEF732FF064908600348016883
:1014200006480068FEF72AFF044923E07C000020FC
:101430002C00002024000020300000202800002084
:101440008000002084000020880000208C00002004
:101450009000002094000020FCA9F1D24D62503F82
:1014600034000020380000203C0000200AD7A33BB5
:101470000AD7233C08603048016830480068FEF70E
:10148000FDFE2E4908602C4801682D480068FEF7D3
:10149000F5FE2B490860084601680068FEF7BCFEAF
:1014A0000390264801680068FEF7B6FE02902548C2
:1014B00001680068FEF7B0FE8346234801680068B3
:1014C000FEF7AAFE59460190FEF74EFE82460299AB
:1014D000FEF79CFE80460399FEF798FE0746FFF74D
:1014E00076F8CDE906011648016817480068FEF74E
:1014F00093FE83461148016812480068FEF78CFE8F
:1015000059460390FEF730FE8246FFF760F8074623
:1015100000224FF08043FEF796FFCDE90401DDE99C
:10152000062301F061FECDE90801FFF763F80749E2
:1015300008600BB0BDE8F08F7C0000202C0000207C
:101540003000002028000020240000207800002027
:1015500070B50446204600F019F80546611CC8B273
:1015600000F014F8064606EB052000B270BD00BF7F
:10157000FEE721B1028842F48062028004E0028822
:101580004FF6FF331A4002807047000070B50446E2
:1015900000BF4FF400312D4800F0F0F80028F8D1DA
:1015A00001212A4800F0D2F800BF2949274800F05D
:1015B00091F80028F9D00022D021244800F09AF9AF
:1015C00000BF2449214800F085F80028F9D0012106
:1015D0001E4800F094F821461C4800F094F900BF22
:1015E0001C49891C194800F075F80028F8D0012121
:1015F000164800F0ABF800BF1549144800F06AF82F
:101600000028F9D00122D021104800F073F900BF62
:101610000F49491C0D4800F05DF80028F8D0002162
:101620000A48FFF7A6FF0121084800F09BF800BF19
:1016300007493F31054800F04DF80028F8D003482D
:1016400000F054F90546284670BD000000580040DF
:10165000010003008200070070B504460D46012119
:10166000194800F073F800BF1849174800F032F825
:101670000028F9D00022D021134800F03BF900BF28
:101680001349114800F026F80028F9D021460E48E9
:1016900000F039F900BF0E49891C0B4800F01AF818
:1016A0000028F8D02946084800F02DF900BF084965
:1016B000891C054800F00EF80028F8D001210248E6
:1016C00000F050F870BD0000005800400100030019
:1016D0008200070070B50246002400250023002088
:1016E000958A138B1B0445EA030626F07F4404EA1F
:1016F00001068E4201D1012000E0002070BD21B121
:10170000028842F00102028004E002884FF6FE7374
:101710001A4002807047000008B50121082000F03F
:1017200081FA0121880500F06DFA4FF44060ADF8B0
:10173000000003208DF802001C208DF8030069468C
:101740000148FFF7DFFA08BD000C014021B1028813
:1017500042F48072028004E002884FF6FF631A4070
:101760000280704721B1028842F40072028004E0D6
:1017700002884FF6FF531A40028070470CB50246AC
:10178000002000230193009300920B0F019321F09E
:101790007F41019B1BB1009B1433009303E0090CB4
:1017A000009B18330093009B1B680B400BB101207A
:1017B00000E000200CBD00002DE9F04385B0044698
:1017C0000D460026B1460427DFF8CC80A6884FF6E8
:1017D000C0700640684600F035FADDF808802F48F2
:1017E000B8FBF0F01FFA80F946EA0906A6802088C7
:1017F0004FF6FE710840208000262949286888425B
:101800000CD828684000B8FBF0F087B2042F00DA4B
:1018100004273E4309F10100208427E0E8884BF6C5
:10182000FF71884206D1286800EB4000B8FBF0F059
:1018300087B209E0286800EBC00101EB0010B8FB9B
:10184000F0F087B247F48047C7F30B0008B947F0C0
:10185000010747F4004006434FF4967009FB00F07F
:101860004FF47A7190FBF1F0401C2084A68320880D
:1018700040F00100208026884FF6F5300640A88809
:101880006989084306432680A8892989084320815D
:1018900005B0BDE8F083000000127A0040420F005E
:1018A000A086010010B5FFF737FF00F001F810BD6A
:1018B0001FB50020ADF804004FF48060ADF80A00B9
:1018C0000001ADF80C004CF250300090694606481B
:1018D000FFF772FF01210448FFF711FF01210248C1
:1018E000FFF747FE1FBD0000005800400146088A70
:1018F000C0B2704712B141F0010102E04FF6FE7331
:101900001940018270470182704710B500216B2099
:10191000FFF7A2FE07211920FFF79EFE06211A20DD
:10192000FFF79AFE18211B20FFF796FE01211C20CD
:10193000FFF792FE10BD000008B50C20ADF80000C6
:1019400010208DF8030003208DF802006946064838
:10195000FFF7D8F940F20330ADF8000069460348BC
:10196000FFF7D0F908BD000000080140000C01405D
:1019700000BFFEE72DE9FC4781468A460024B9F105
:10198000640F01DD642406E019F1640F02DA6FF0E0
:10199000630400E04C4644BBBAF1000F06D0BAF134
:1019A000010F0CD0BAF1020F1DD111E004215B48E8
:1019B000FFF733FA08215948FFF72FFA14E0012105
:1019C0005748FFF72AFA02215548FFF726FA0BE09D
:1019D0004FF480715248FFF720FA4FF400715048DD
:1019E000FFF71BFA00E000BF96E0002C48DD204620
:1019F000FEF7A4FD07464B4A4B4BFEF724FD054678
:101A000000224A4BFEF778FCCDE90001FEF7C0FD4D
:101A100004B2BAF1000F06D0BAF1010F10D0BAF13A
:101A2000020F2BD11AE004213C48FFF7F6F90821F8
:101A30003A48FFF7F4F904EBC4003D4908801EE082
:101A400001213748FFF7E9F902213548FFF7E7F9A7
:101A500004EBC4003649091D088010E04FF4807182
:101A60002F48FFF7DAF94FF400712D48FFF7D7F947
:101A700004EBC4002E490831088000E000BF4BE0B1
:101A80002046FEF75BFD0546264A274BFEF7DBFCAA
:101A900007460022254BFEF7D0FCCDE90001FEF7FA
:101AA00077FD04B2BAF1000F06D0BAF1010F11D0E0
:101AB000BAF1020F2ED11CE004211848FFF7AFF94C
:101AC00008211648FFF7A9F9604200EBC000184949
:101AD000088020E001211248FFF7A1F902211048F7
:101AE000FFF79BF9604200EBC0001149091D088017
:101AF00011E04FF480710A48FFF791F94FF400713B
:101B00000748FFF78AF9604200EBC0000849083136
:101B1000088000E000BF00BFBDE8FC87000801406E
:101B2000000C0140CDCCCCCCCCCCDC3F008046407E
:101B300034340140704708B54FF4A06000F056F807
:101B400025208DF8000001208DF8030000208DF87D
:101B500001008DF80200684600F010F836208DF87C
:101B6000000001208DF8010000208DF80200012006
:101B70008DF80300684600F001F808BD70B500213B
:101B800000230F22C47804B3154C246804F4E064E5
:101B9000C4F5E064210AC1F10403CA40447804FAA0
:101BA00003F184781440214309010E4C0678A155B5
:101BB000047804F01F050124AC4005786D11AD00D8
:101BC00005F1E025C5F8004109E0047804F01F059F
:101BD0000124AC40044D0678761145F8264070BDCE
:101BE0000CED00E000E400E080E100E00249014388
:101BF000024A1160704700000000FA050CED00E099
:101C00007047000029B1064AD2690243044BDA61E9
:101C100004E0034AD2698243014BDA617047000055
:101C20000010024029B1064A92690243044B9A61AE
:101C300004E0034A92698243014B9A6170470000B5
:101C40000010024030B500210022002400232D4D59
:101C50006D6805F00C0121B1042905D0082923D1B4
:101C600005E0294D056022E0274D05601FE0254D68
:101C70006D6805F47012234D6D6805F480340225FB
:101C800005EB92421CB9214D554305600BE01D4DFB
:101C90006D6805F400351DB11C4D5543056002E02B
:101CA000194D5543056002E0174D056000BF00BFA8
:101CB000144D6D6805F0F0010909154D6B5C056860
:101CC000DD4045600F4D6D6805F4E061090A104D77
:101CD0006B5C4568DD4085600A4D6D6805F46051B8
:101CE000C90A0B4D6B5C4568DD40C560054D6D68EC
:101CF00005F44041890B074D6B5CC568B5FBF3F5F6
:101D0000056130BD0010024000127A0000093D005C
:101D100098000020A800002010B5044601201D49AD
:101D200008701D4890F900001C4908709D2C0CDDBE
:101D300000211420FFF71EFE01211420FFF71AFED8
:101D400002211420FFF716FE20E014F19D0F0FDA98
:101D500000216FF01300FFF70DFE01216FF013005B
:101D6000FFF708FE02216FF01300FFF703FE0DE0FE
:101D70001E2C03DD00210846FFF7FCFD0121002099
:101D8000FFF7F8FD02210020FFF7F4FDFEF7ACFF9E
:101D900010BD00001E0000201F00002020000020B9
:101DA000704710B500F002F810BD00000CB500201F
:101DB000019000903348006840F480303149086059
:101DC00000BF3048006800F4003000900198401CCB
:101DD0000190009818B90198B0F5A06FF1D1294889
:101DE000006800F4003010B10120009001E00020F4
:101DF00000900098012843D12348006840F010006B
:101E0000214908600846006820F003000860084681
:101E1000006840F0020008601A48406819494860AC
:101E20000846406848600846406840F48060486062
:101E30000846406820F47C1048600846406840F43A
:101E4000E81048600846006840F08070086000BFF5
:101E50000C48006800F000700028F9D0094840687C
:101E600020F00300074948600846406840F002003F
:101E7000486000BF0348406800F00C000828F9D112
:101E80000CBD000000100240002002402DE9F0418E
:101E900000248AE03B20FFF75BFB8046FEF745FB12
:101EA00007464FF08E41FEF7E9F906465749FEF71F
:101EB000B3F90546564801682846FEF755F95449D6
:101EC00008603D20FFF744FB8046FEF72EFB0746E7
:101ED0004FF08E41FEF7D2F906464C49FEF79CF9C9
:101EE00005464C4801682846FEF73EF94949086016
:101EF0003F20FFF72DFB8046FEF717FB07464FF00C
:101F00008E41FEF7BBF906464049FEF785F90546C6
:101F1000414801682846FEF727F93F4908604320F9
:101F2000FFF716FB8046FEF700FB07464FF08E4199
:101F3000FEF7A4F906463949FEF76EF9054638481A
:101F400001682846FEF710F9354908604520FFF77B
:101F5000FFFA8046FEF7E9FA07464FF08E41FEF79A
:101F60008DF906462D49FEF757F905462D480168BB
:101F70002846FEF7F9F82B4908604720FFF7E8FAF2
:101F80008046FEF7D2FA07464FF08E41FEF776F90B
:101F900006462249FEF740F90546234801682846CF
:101FA000FEF7E2F820490860641CB4F57A7FFFF67A
:101FB00071AF1E4916480068FEF760F914490860C1
:101FC0001A4914480068FEF759F912490860174980
:101FD00011480068FEF752F90F490860134910488C
:101FE0000068FEF74BF90E49086010490D4800687B
:101FF000FEF744F90B4908600C490B480068FEF7EE
:102000003DF909490860BDE8F0810000CDCC9C4154
:10201000580000205C000020600000200000FA440E
:1020200064000020680000206C00002000007A445A
:1020300010B500F0A9FC10BD30B519480068194A68
:10204000B0FBF2F1481EB0F1807F01D301201BE00C
:10205000481E4FF0E022506150170F22002804DB89
:1020600013071C0E104B1C5406E013071D0E0F4BDC
:1020700000F00F04241F1D5500BF00204FF0E02288
:10208000906107201061002008B100BFFEE74FF00B
:10209000E020006920F001004FF0E021086130BD30
:1020A000AC000020A086010000E400E018ED00E094
:1020B00010B51348006840F0010011490860084657
:1020C0004068104908400E494860084600680E49BB
:1020D00008400B4908600846006820F4802008602A
:1020E0000846406820F4FE0048604FF41F008860F6
:1020F000FFF757FE4FF000600449086010BD000074
:10210000001002400000FFF8FFFFF6FE08ED00E0BF
:10211000F0B50C46154600220021068C4FF6FE77DE
:102120003E400684028B018C4FF60C7632407E1CBA
:1021300006EA03162E433243104EB0420ED0104E24
:10214000B0420BD0B0F1804F08D00E4EB04205D057
:102150000D4EB04202D00D4EB04206D14FF6FD7684
:10216000314044F00106314305E04FF6F576314049
:1021700044F00106314302830184F0BD002C01408C
:10218000003401400004004000080040000C004002
:10219000F0B50C461546002200210026078C4FF6AC
:1021A000EF7C07EA0C070784028B018C4FF6FF7760
:1021B00007EA041640F6FF473A404FF6FF7707EA72
:1021C00003373A434FF6FF7707EA05273A43114FA3
:1021D000B8420ED0104FB8420BD0B0F1804F08D0AB
:1021E0000E4FB84205D00E4FB84202D00D4FB84244
:1021F00006D14FF6DF77394046F01007394305E046
:102200004FF65F77394044F0100739430283018469
:10221000F0BD0000002C01400034014000040040EB
:1022200000080040000C0040F0B50C4615460022A6
:1022300000210026078C4FF6FF6C07EA0C07078485
:10224000828B018C4FF6FF7707EA04264FF60C7756
:102250003A404FF6FF7707EA03172F433A43114FEF
:10226000B8420ED0104FB8420BD0B0F1804F08D01A
:102270000E4FB84205D00E4FB84202D00D4FB842B3
:1022800006D14FF6FF57394046F48077394305E0D1
:102290004FF2FF57394044F48077394382830184F9
:1022A000F0BD0000002C014000340140000400405B
:1022B00000080040000C0040F0B50C461546002216
:1022C00000210026078C4EF6FF7C07EA0C070784E6
:1022D000828B018C4FF6FF7707EA043640F6FF4702
:1022E0003A404FF6FF7707EA05273A434FF6FF7764
:1022F00007EA03373A43114FB8420ED0104FB842A5
:102300000BD0B0F1804F08D00E4FB84205D00E4F21
:10231000B84202D00D4FB84206D14DF6FF77394092
:1023200046F48057394305E047F6FF57394044F4F7
:102330008057394382830184F0BD0000002C0140A6
:10234000003401400004004000080040000C004040
:1023500010B50121084800F0C4F858B10121064821
:1023600000F080F801F090F8FEF75CFD01F00EF847
:10237000FEF7BAFC10BD0000001000400EB5C820EA
:10238000ADF8040041F61F40ADF800000020ADF8A4
:102390000600ADF802006946064800F0A3FA0122E3
:1023A0001146044800F00DF90121024800F05DF8E3
:1023B0000EBD00000010004000B589B04FF4E07081
:1023C000ADF8200018208DF8230003208DF822009E
:1023D00008A92248FEF796FC4FF46170ADF818008A
:1023E0000020ADF81400ADF81A00ADF8160005A9EC
:1023F0001B4800F077FA6020ADF804000120ADF82A
:1024000006000020ADF80C0001A9154800F0E2F824
:102410000821134800F02AF901A9114800F030F909
:1024200008210F4800F07EF901A90D4800F088F955
:1024300008210B4800F0D4F901A9094800F0DAF9A5
:102440000821074800F014FA0121054800F00DF8B2
:102450000121034800F015F809B000BD001001404B
:1024600000340140CA430282704721B1028842F021
:102470000102028004E002884FF6FE731A400280D7
:10248000704731B1B0F8442042F40042A0F8442033
:1024900005E0B0F84420C2F30E02A0F844207047D3
:1024A000F0B50C4615461E46002100220023018986
:1024B000028B038C4FF6F877394021434FF6FC47E7
:1024C0003A4040F201173A434FF6DD773B404FF672
:1024D000FF7707EA06172F433B43018102830384FA
:1024E000F0BD30B50246002000230024158A05EA1D
:1024F0000103958905EA010413B10CB1012000E044
:10250000002030BD70B505460C46244885420ED0EB
:10251000234885420BD0B5F1804F08D02148854231
:1025200005D02148854202D02048854200D100E0F4
:1025300000BF208850B92389A28861882846FFF708
:10254000E7FDE188284600F0A0F925E0208804286E
:102550000AD12389A28861882846FFF719FEE188FD
:10256000284600F09BF917E0208808280AD1238923
:10257000A28861882846FFF757FEE188284600F0C8
:102580009AF909E02389A28861882846FFF794FE1A
:10259000E188284600F098F970BD0000002C014049
:1025A000003401400004004000080040000C0040DE
:1025B000002101804180012181800021C1800181B1
:1025C00070471AB183890B43838102E083898B436F
:1025D0008381704770B5002400220023058C4FF6DC
:1025E000FE7635400584028C8388048B4FF68F7508
:1025F0002C40B51E2C400D882C43751E2A400D8999
:102600002A434D882A43144DA8420BD0134DA842AB
:1026100008D0134DA84205D0124DA84202D0124D49
:10262000A84213D14FF6F7752A404D892A434FF639
:10263000FB752A408D882A434FF6FF652B404FF6E5
:10264000FF552B408D892B43CD892B4383800483F9
:10265000CD888586028470BD002C01400034014085
:102660000040014000440140004801400A4600216A
:10267000018B4FF6F7731940114301837047000037
:1026800070B5002400220023058C4FF6EF7635400C
:102690000584028C8388048B48F6FF752C404FF626
:1026A000FF452C400D884FF6FF7606EA05252C43A2
:1026B0004FF6DF752A400D8906EA05152A434D8835
:1026C00006EA05152A43154DA84202D0144DA8422A
:1026D0001DD14FF67F752A404D894FF6FF7606EAE9
:1026E00005152A434FF6BF752A408D8806EA051561
:1026F0002A434FF6FF352B404FF2FF752B408D8953
:1027000006EA85052B43CD8906EA85052B438380A0
:102710000483CD880587028470BD0000002C014031
:10272000003401400A460021018B4FF2FF7319402B
:102730004FF6FF7303EA0223194301837047000039
:1027400070B5002400220023058C4FF6FF6635404B
:102750000584028C8388848B4FF68F752C404FF64E
:10276000FC752C400D882C434FF6FF552A400D89EF
:102770004FF6FF7606EA05252A434D8806EA052529
:102780002A43154DA84202D0144DA8421DD14FF244
:10279000FF752A404D894FF6FF7606EA05252A4344
:1027A0004FF6FF352A408D8806EA05252A434EF666
:1027B000FF752B404DF6FF752B408D8906EA0515F8
:1027C0002B43CD8906EA05152B4383808483CD886E
:1027D0008587028470BD0000002C01400034014058
:1027E0000A460021818B4FF6F7731940114381830C
:1027F0007047000070B5002200230024058C4EF6BF
:10280000FF7635400584038C8488828B48F6FF75FB
:102810002A404FF6FF452A400D884FF6FF7606EA1C
:1028200005252A434DF6FF752B400D8906EA05352F
:102830002B434D8806EA05352B430B4DA84202D0A9
:102840000A4DA84208D14BF6FF752C408D894FF6F2
:10285000FF7606EA85152C4384808283CD88A0F814
:102860004050038470BD0000002C01400034014042
:102870000A460021818B4FF2FF7319404FF6FF7318
:1028800003EA0223194381837047028B4FF6F373E7
:102890001A400283028B0A4302837047028B4FF275
:1028A000FF331A400283028B4FF6FF7303EA0123C2
:1028B0001A4302837047828B4FF6F3731A40828368
:1028C000828B0A4382837047828B4FF2FF331A4018
:1028D0008283828B4FF6FF7303EA01231A438283BC
:1028E00070470000002202881D4B98420ED01D4BFD
:1028F00098420BD0B0F1804F08D01B4B984205D0C6
:102900001A4B984202D01A4B984204D14FF68F735B
:102910001A404B881A43174B984207D0164B9842DF
:1029200004D04FF6FF431A40CB881A4302808B88AD
:1029300083850B8803850A4B98420BD0094B98423C
:1029400008D00E4B984205D00D4B984202D00D4B4B
:10295000984201D10B7A03860123838270470000DD
:10296000002C0140003401400004004000080040F9
:10297000000C0040001000400014004000400140E6
:1029800000440140004801400448006820B1034869
:102990000068401E014908607047000008000020E0
:1029A00000B585B018208DF813004FF40070ADF815
:1029B000100003208DF8120004A92A48FEF7A2F99E
:1029C00004208DF813000002ADF8100004A925487A
:1029D000FEF798F918208DF813004FF48060ADF8D9
:1029E000100003208DF8120004A91F48FEF78AF991
:1029F00004208DF813004002ADF8100004A91A4815
:102A0000FEF780F94FF4165000900C20ADF80A0044
:102A10000020ADF80800ADF80600ADF80400ADF8F0
:102A20000C006946114800F0C1F8012240F225511E
:102A30000E4800F095F801210C4800F04EF84FF4D4
:102A4000E130009069460A4800F0B0F8012240F2F7
:102A50002551074800F084F80121054800F03DF8B1
:102A600005B000BD000801400010014000380140E1
:102A7000004C004010B540F225510D4800F046F8DA
:102A8000A8B140F225510A4800F018F8084800F0B3
:102A9000F9F8C4B207480068E12807D00548016882
:102AA0000068401C034A10600348445400BF10BD36
:102AB000003801400C000020C800002010B50022A2
:102AC000002340F66A14A14200D100BF0A1201247B
:102AD0009440A3B2DC43048010BD21B1828942F44A
:102AE0000052828104E082894DF6FF731A40828190
:102AF000704702460020B1F5007F00D100BF138867
:102B00000B400BB1012000E00020704770B5024679
:102B1000002400230025002040F66A16B14200D1AF
:102B200000BFC1F3421501F01F03012606FA03F3AB
:102B3000012D02D19689334006E0022D02D1168A7A
:102B4000334001E0968A33400C12012606FA04F461
:102B50001688344013B10CB1012000E0002070BD94
:102B6000F0B50346002400260025002040F66A1731
:102B7000B94200D100BF1846C1F3421401F01F064C
:102B8000012707FA06F5012C01D10C3004E0022CD4
:102B900001D1103000E014301AB107682F430760EC
:102BA00002E00768AF430760F0BD00002DE9F04781
:102BB00086B005460E460024A24600BFA146002767
:102BC000B08900B100BF2F462C8A4CF6FF7004403C
:102BD000F08804432C82AC894EF6F3100440B08890
:102BE00031890843718908430443AC81AC8A4FF6AC
:102BF000FF400440B0890443AC8201A8FFF722F8EB
:102C00001F48874202D1DDF810A001E0DDF80CA0DA
:102C1000A88900F4004040B10AEBCA0000EB0A109A
:102C200031684900B0FBF1F807E00AEBCA0000EB9D
:102C30000A1031688900B0FBF1F86420B8FBF0F0AD
:102C400004012009642101FB1089A88900F40040D7
:102C500040B1322000EBC900B0FBF1F000F00700FA
:102C6000044308E0322000EB09106421B0FBF1F0CE
:102C700000F00F0004432C8106B0BDE8F08700008F
:102C80000038014001468888C0F308007047C1F34E
:102C900008028280704700BFFEE700000FB4054BBA
:102CA00010B503A9044A029800F094F810BC5DF82E
:102CB00014FB000069330008C0000020490050EAFE
:102CC000C12018BF04204A0D18BF40F0010040F297
:102CD000FF72B2EB515F08BF40F00200012808BF4D
:102CE000052070472DE9F0414F1E00EBC701044657
:102CF000D1E9000115461E4637F006020DD02A46DE
:102D00003346FDF7A0FB7F1E04EBC703D3E9002386
:102D1000FDF7F2FA37F00602F1D1022F25D0042F89
:102D200013D0062F18BFBDE8F0812A463346FDF7C1
:102D30008AFBD4E90A23FDF7DFFA2A463346FDF77A
:102D400082FBD4E90823FDF7D7FA2A463346FDF77C
:102D50007AFBD4E90623FDF7CFFA2A463346FDF77E
:102D600072FBD4E90423FDF7C7FA2A463346FDF780
:102D70006AFBD4E90223FDF7BFFA2A463346FDF782
:102D800062FBD4E90023BDE8F041FDF7B5BA0122AA
:102D9000FDF7FABDFDF7B0BA024A00201107FDF7B2
:102DA000F3BD000001FDFFFF02E008C8121F08C1CB
:102DB000002AFAD170477047002001E001C1121FBC
:102DC000002AFBD1704700000149086070470000ED
:102DD000C40000202DE9FF4F89B09B460446002522
:102DE00006E025280BD05A460B999047641C6D1CB1
:102DF00020780028F5D10DB02846BDE8F08F0027D7
:102E0000B8460122474900E0074314F8013F203B40
:102E100002FA03F00842F7D120782E2819D114F8CD
:102E2000010F47F004072A280ED06FF02F022078F8
:102E3000A0F1300109290CD808EB880102EB41010F
:102E400000EB0108641CF2E70A98641C50F8048B3C
:102E50000A9020780028CED0642808D0692806D0AF
:102E600075281ED05A460B9990476D1C58E00A9958
:102E70004FF00A0901C90A91002802DA40422D21C7
:102E800002E0390504D52B218DF82010012103E043
:102E9000F90704D02021F7E78A4608AE0DE00021AB
:102EA000FAE70A994FF00A0901C90A91F7E749467A
:102EB000FDF7BCFB303106F8011D0028F7D1ADEB62
:102EC000060000F12009780701D44FF00108C84539
:102ED00002DDA8EB090000E000208046002706E0A4
:102EE00008A85A46C05D0B9990476D1C7F1C57453A
:102EF000F6DB04E030205A460B9990476D1CB8F180
:102F00000001A8F10108F5DC05E016F8010B5A46AE
:102F10000B9990476D1CB9F10001A9F10109F4DC8E
:102F2000641C65E70928010003B583B020480078D8
:102F3000401C40B21E490870084690F90000642108
:102F400090FBF1F201FB1200194908701949184A67
:102F500092F9002001EB8200BDF80C100180BDF851
:102F60000E1041801449124A92F9002001EB8200B0
:102F7000BDF810100180BDF8121041800F48D0F844
:102F80000E0002900D48D0F812000190029900F056
:102F9000E1FA00B20A49064A92F9002021F812002B
:102FA00008480078401C0749087005B000BD0000C3
:102FB0001F0000208A0200201A0400203A07002087
:102FC00072060020210000202DE9F84F04460D462E
:102FD00021F0004000917349814211DC724988421E
:102FE00001DC06D12CB120462946BDE8F84FFFF799
:102FF000CEBE6E48002DCCBF6D496E49BDE8F88F3E
:103000006D49814211DD6D498142D8BF4FF0FF36D5
:103010006DDD20462946FFF751FE042808BFFFF763
:10302000BBFE20462946BDE8F88F6549654F25F06F
:103030000045814233DD6449814219DD0026324674
:103040004FF0804320462946FDF756F980468A46D0
:10305000012220462946FDF797FC00223B46FDF75A
:10306000ECF942465346FDF7BCFB04460D463EE0F4
:1030700001260022BA463B4620462946FDF73CF988
:1030800080460F460022534620462946FDF7D5F9D3
:1030900042463B46FDF7A5FB04460D4627E04B495B
:1030A00081421BDDDFF828A102260022534620467C
:1030B0002946FDF7C8F900223B46FDF71DF9804679
:1030C0000F460022534620462946FDF7B6F94246F0
:1030D0003B46FDF786FB04460D4608E003262246E4
:1030E0002B4600203B49FDF77CFB04460D4622465B
:1030F0002B4610461946FDF7A6F98B468246024636
:103100000B46FDF7A0F907460246334888460B46B2
:1031100006217844FFF7E6FD52465B46FDF793F93A
:1031200082462E488B463A46434605217844FFF7AF
:10313000D9FD3A464346FDF786F902460B46002E76
:10314000504659460CDAFDF7D7F822462B46FDF7D4
:103150007AF901B022462B46BDE8F04FFDF770B971
:10316000FDF7CAF822462B46FDF76DF91C4A7A4452
:1031700002EBC603D3E90023FDF75FF922462B4695
:10318000FDF75BF9174A7A4402EBC603D3E9002343
:10319000FDF756F9009A002AB8BF81F00041BDE85A
:1031A000F88F0000000010440000F07F182D4454F8
:1031B000FB21F93FFB21F9BF0000DC3F0000203E6E
:1031C0000000F33F0000F03F0000E63F00800340B6
:1031D0000000F83F0000F0BF4205000000050000BD
:1031E0009E040000660400002DE9F04D9446CCF1E9
:1031F000000423F000464CEA0404524F46EAD4741B
:103200009A46884621F00042BC4206D8454240EA30
:10321000050442EAD474BC4204D9BDE8F04D6246CC
:10322000FFF7B8BDAAF14055A5F17F6555EA0C043A
:103230000BD0022404EAAA74434DDFF810E144EAFB
:10324000D87452EA000B04D00CE0BDE8F04DFFF753
:10325000BBBE002C14BF012CBDE8F08D022C30D079
:10326000032C32D056EA0C0B0AD0BE4220D1BA420F
:1032700009D126F0804622F080423346114617E0FD
:1032800000291ADB25E0DFF8C8B0FB44002C04BF9E
:10329000DBE90001BDE8F08D012C02BFDBE9000194
:1032A00081F00041BDE8F08D022C0AD0032C0CD037
:1032B000BA4212D1B8F1000F0BDA23482549BDE814
:1032C000F08D28462449BDE8F08D28467146BDE8BA
:1032D000F08D1D482149BDE8F08D921B12153C2A46
:1032E000C4BF19481D490EDCBAF1000FBEBF12F170
:1032F0003C0F0020014606DB6246FDF772FA21F022
:103300000041FFF761FE002C08BFBDE8F08D012CE5
:1033100004BF81F00041BDE8F08D114A114B022C31
:1033200007D0FDF78AF82A46BDE8F04D0A4BFDF7B5
:1033300084B8FDF782F82A46BDE8F04D064BFDF74C
:103340007FB800000000F07F182D4454FB2109C015
:10335000FA030000FB21F9BFFB210940FB21F93FE3
:10336000075C143326A6A13C70B504460D46E1B2B5
:103370000548FFF78CFC00BF40210348FFF7B9FB6D
:103380000128F9D1204670BD0038014070B51748BA
:1033900001681748FCF740FF0546FDF7E0F80446D2
:1033A000B4F59D7F0ADD04F59D744FF41D7094FB08
:1033B000F0F100FB1144A4F59D740EE014F59D7F1F
:1033C0000BDA644204F59D744FF41D7094FBF0F128
:1033D00000FB1144A4F59D74644220B20549064ADD
:1033E00092F9002021F8120070BD00007800002042
:1033F0000000E0C2AA0500201F00002001211720C4
:10340000FEF700FC012144F20500FEF70BFC012150
:103410004803FEF707FC01211C20FEF703FC0121F5
:10342000C804FEF7EFFBFEF7C7FFFEF705FEFFF748
:10343000B7FAFEF781FAFDF7DBFBFEF733FAFEF78A
:1034400064FA0BA000F074F8FEF720FDFEF796FF7B
:10345000FEF771FB09A000F06BF807E0FDF7AEFA8C
:1034600041F28830FDF7B2FB00F024F8F6E70000E7
:10347000426567696E20536574757000456E6420FF
:1034800053657475700000004FF08040808C00B26E
:10349000054908800548008800B248800448008833
:1034A00000B288807047000018000020240400400B
:1034B0002408004010B51A481A4991F9001030F854
:1034C00011001949174A92F9002031F81210401AD8
:1034D00004B2B4F59D7F0CDD04F59D7004B24FF489
:1034E0001D7094FBF0F100FB1144A4F59D7004B233
:1034F00012E014F59D7F0FDA604204B204F59D706E
:1035000004B24FF41D7094FBF0F100FB1144A4F5DC
:103510009D7004B2604204B22046FEF7FDFB10BD70
:10352000720600201F000020AA050020FFF71CBF24
:1035300010B5044601E0FFF717FF14F8010B04492A
:103540000028F8D1BDE810400A20FFF70DBF0000A9
:10355000C00000202DE9F347BDF90410BDF900209B
:10356000881AFCF7EBFF04460D46BDF90610BDF9BD
:103570000220881AFCF7E2FF064622462B46FFF798
:1035800033FE8046894642464B4600200449FCF7FC
:103590005AFF0446FCF7FCFF00B2BDE8FC870000C0
:1035A000000059402DE9F04106460F46FDF788F925
:1035B000041E0D4618BF0120284320F00040C0F132
:1035C0007F6000F1E040C00F0ED0301C18BF01201A
:1035D000384320F00040C0F17F6000F1E040C00FB0
:1035E00004BF0120FFF7F0FB20462946BDE8F0812B
:1035F0004FBB610567ACDD3F182D4454FB21E93F0B
:103600009BF681D20B73EF3F182D4454FB21F93FF9
:10361000E2652F227F2B7A3C075C143326A6813C7F
:10362000BDCBF07A8807703C075C143326A6913C2A
:10363000C4EB98999999C9BF711623FEC671BCBF96
:103640006D9A74AFF2B0B3BF9AFDDE522DDEADBFFE
:103650002F6C6A2C44B4A2BF0D5555555555D53F16
:10366000FF8300922449C23F6E204CC5CD45B73F31
:10367000513DD0A0660DB13FEB0D76244B7BA93FA9
:1036800011DA22E33AAD903F000000000000000094
:10369000B036000800000020C8000000A82D000877
:1036A00078370008C8000020900A0000B82D0008F4
:1036B000000000000000000000000000000000000A
:1036C00000000000000000000000000000000000FA
:1036D000000000000000803F00000000000000002B
:1036E00000000000000000000000000000000000DA
:1036F00000000000000000000000000000000000CA
:1037000000000000000000000000000000000000B9
:1037100000000000000000000000000000000000A9
:103720000000000000000000000000000000000099
:103730000000000000000000000000000000000089
:10374000000000000000000000000000010203046F
:1037500001020304060708090204060800A24A043D
:103760000000000000000000010203040607080931
:08377000000000000000000051
:0400000508000131BD
:00000001FF
