:020000040800F2
:10000000A889002045010008B1100008BB0D0008B8
:10001000F90D00082D0A0008172400080000000050
:10002000000000000000000000000000BD150008F6
:10003000310A000800000000A5140008A9160008F5
:100040005F0100085F0100085F0100085F01000810
:100050005F0100085F0100085F0100085F01000800
:100060005F0100085F0100085F0100085F010008F0
:100070005F0100085F0100085F0100085F010008E0
:100080005F0100085F0100085F0100085F010008D0
:100090005F0100085F0100085F0100085F010008C0
:1000A0005F0100085F0100085F0100085F010008B0
:1000B0005F0100085F0100085F0100085F010008A0
:1000C0005F0100085F0100085F0100085F01000890
:1000D0005F010008E92000085F0100085F010008D7
:1000E0005F0100085F0100085F0100085F01000870
:1000F0005F0100085F0100085F0100085F01000860
:100100005F0100085F0100085F0100085F0100084F
:100110005F0100085F010008C91900085F010008BD
:100120005F0100085F0100085F0100085F0100082F
:10013000DFF80CD000F044FC00480047AF2F000867
:10014000A88900200648804706480047FEE7FEE7EA
:10015000FEE7FEE7FEE7FEE7FEE7FEE7FEE7FEE777
:100160002917000831010008F0B480EA0102D40F19
:100170004200B2EB410F02D20246084611464A0045
:1001800042D0C30DDDB2C1F3C752AD1A202D35DA0E
:10019000C1F3160141F4000204B15242C5F1200638
:1001A00002FA06F12A411044B3EBD05F23D0C4B168
:1001B000012DA0EBC35009DCF0BC4FF0004202EA75
:1001C000C352DBB200F5000000F0AEBA400000F10F
:1001D000807000EBC350A0F1807040EAD1704900FC
:1001E00009E0490841EAC071A0EBC35000F50000E6
:1001F000400800EBC350F0BC00F08DBA6142012210
:1002000002EB4101001BF6E7F0BC704781F00041B2
:10021000AAE780F00040A7E780EA010210B502F0EB
:100220000043400022D04A001FD0010E01EB1261B2
:10023000C0F35600C2F3560240F4000042F400023C
:10024000A0FB022000047F39140400D0401C50EAB7
:10025000124001D44000491EC2B20C0604EBD0107B
:10026000401C4008802A02D003E0002010BD20F08E
:100270000100002900DA0020184310BD30B480EAE4
:10028000010202F0004530F0004221F0004013D09E
:1002900090B1C30DD40DC2F31601C0F31600E41AD9
:1002A00041F4000140F400027D34914201D3641C0A
:1002B00000E04900002C02DA30BC002070474FF407
:1002C00000000023914201D3891A034340084FEAFA
:1002D0004101F7D151B1914202D14FF0004105E007
:1002E00002D24FF0010101E06FF0010103EBC450B5
:1002F000284430BC00F00FBA2DE9FE4F804681EA59
:100300000300C00F0C46009021F0004123F000458F
:10031000B8EB0200A94105D24046214690461C4652
:100320000B46024623F00040104347D0270DC7F389
:100330000A00C3F30A510290401A019040286BDA78
:10034000C3F3130040F4801B0098924620B10023B1
:10035000D2EB030A63EB0B0B01985946C0F1400244
:10036000504600F0A7F906460D4650465946019AF8
:1003700000F0BFF910EB08006141002487EA115238
:1003800084EAE7731A4340D0009A62B3019A012AC3
:100390004FEA075215DC001B61EB02014FF00042EF
:1003A00002EA0752CDE90042001C41F580113246B5
:1003B0002B4600F0F6F903B0BDE8F08F4046214629
:1003C000F9E7001B61EB0201001C41F580130018E6
:1003D0005B412018A2F5001747EB030140EAD570F6
:1003E000B6196D4111E06D084FEA360645EAC07551
:1003F0004FEA0752001B61EB0201001C41F580111E
:1004000049084FEA30000019514132462B4603B0EB
:10041000BDE8F04F00F0B6B900980122400000237B
:10042000D0EB020263EBE073009821464FEAE074E0
:10043000B8EB000061EB0401E9E783F000435BE700
:1004400081F0004158E72DE9FE4F81EA030404F0F2
:10045000004421F0004100944FF0000B23F00043D2
:1004600050EA01045ED052EA03045BD0C3F30A549D
:10047000C1F30A552C44A4F2F3340194A0FB0254B6
:10048000C1F3130141F48011C3F3130343F4801348
:1004900001FB024400FB034E840A970A44EA81549C
:1004A00047EA8357A4FB076802958D0A05FB078579
:1004B0004FEA932C04FB0C542705029D4FEA065883
:1004C00047EA1637B5EB08056EEB070C870E920E60
:1004D00047EA811742EA8312A7FB0201B6EB0B0140
:1004E00064EB00042B0D43EA0C335E1844EB1C5004
:1004F000DA465146E7FB0201C5F313044FEA0B331A
:1005000043EA14534FEA0432019C43EA0603A4F180
:100510000C040294009CCDE900B400F042F903B051
:10052000BDE8F08F00200146F9E7C10F80EAE070D6
:100530000844CA079623002100F0F6B80EB5C10F93
:1005400080EAE0700844CA07002140F233438DE896
:100550000E000A460B4600F024F903B000BD00F07F
:10056000004220F00040C10DC0F3160040F400002E
:100570007F2901DA00207047962903DCC1F196013A
:10058000C84001E096398840002AF4D040427047C4
:1005900070B5C1F30A5201F000450024C1F3130104
:1005A00040F2FF3341F480119A4201DA002070BD1D
:1005B00040F233439A42A2F2334203DC524200F04B
:1005C00088F800E090402C43F1D0404270BD00F02C
:1005D000004230F000400AD0C10D01F56071C0F357
:1005E000160042EA0151C20840071143704700203B
:1005F0000146704730B5041E71F1000404DB4FF072
:100600000044404264EB0101141E73F1000405DB59
:100610001C464FF00043524263EB04038B4208BF79
:10062000824230BD30B5041E71F1000404DB4FF08E
:100630000044404264EB0101141E73F1000405DB29
:100640001C464FF00043524263EB0403994208BF3B
:10065000904230BD01F0004330B421F0004150EA37
:10066000010206D00A0DA2F56072C1F31301002A3F
:1006700002DC30BC00207047440F44EAC104C100D2
:10068000E01830BC00EBC25000F045B8002801DB98
:10069000C0F10040002901DBC1F1004181427047F7
:1006A000002801DBC0F10040002901DBC1F100415D
:1006B00088427047202A04DB203A00FA02F1002029
:1006C00070479140C2F1200320FA03F31943904090
:1006D0007047202A04DB203A21FA02F000217047FB
:1006E00021FA02F3D040C2F120029140084319469A
:1006F0007047202A06DBCB17203A41FA02F043EA82
:10070000E07306E041FA02F3D040C2F120029140CA
:100710000843194670470029A8BF7047401C49008C
:1007200008BF20F00100704710B4B0FA80FC00FA56
:100730000CF050EA010404BF10BC704749B1CCF181
:10074000200421FA04F411FA0CF118BF012121430D
:100750000843A3EB0C01CB1D4FEA00614FEA1020C8
:1007600042BF002010BC704700EBC350104400296A
:10077000A4BF10BC7047401C490008BF20F0010016
:1007800010BC704710B5141E73F1000408DA401C49
:1007900041F1000192185B411A4301D120F00100A0
:1007A00010BD2DE9F04D92469B4611B1B1FA81F290
:1007B00002E0B0FA80F220329046FFF77BFF044659
:1007C0000F4640EA0A0041EA0B0153465A460843E5
:1007D00013D0114653EA010019D0C8F14002504627
:1007E000FFF777FF05460E46504659464246FFF74B
:1007F00061FF084305D0012004E020463946BDE8EA
:10080000F08D0020054346EAE0762C4337430A98F2
:100810006305E40AA0EB08000022FD0A44EA4754FD
:100820000A3002D500200146E9E7010510196941A7
:10083000DDE9084500196941BDE8F04DA2E72DE961
:10084000F04D81EA030404F0004B21F0004514460A
:100850004FF0000A23F0004150EA050220D054EA8C
:1008600001021DD0C5F30A570246C5F31303C1F3B5
:100870001300C1F30A5640F4801543F48013A7EB2C
:100880000608101BD64608F2FD3873EB050002D3AC
:1008900008F1010801E092185B41B8F1000F03DA9A
:1008A00000200146BDE8F08D00204FF4801106467F
:1008B00084460EE0171B73EB050705D3121B63EB91
:1008C000050306434CEA010C49084FEA3000921830
:1008D0005B4150EA0107EDD152EA030012D082EAEF
:1008E000040083EA0501084305D0101BAB4106D282
:1008F0000122002306E000224FF0004302E06FF0E7
:10090000010253101AEB06004CEB085110EB0A00E1
:1009100041EB0B01BDE8F04DFFF734BF2DE9F04D81
:1009200000231A461B1A8A4103DB00200146BDE85A
:10093000F08DC1F30A52C1F3130141F480154FF059
:10094000000BD10702D100186D41521E002704464A
:1009500040F2FF11384601EB620A3E4680460246ED
:1009600000204FF48011FFF7B4FEC2197141BB188B
:1009700046EB0100B4EB030C75EB000C04D3E41A56
:1009800065EB000517460E46241908F101006D417C
:1009900080463428E3DDF91946EB0600091BA8411F
:1009A00003D24FF0FF32134601E0002213461BEB47
:1009B000070046EB0A51BDE8F04DFFF7E3BE00002B
:1009C000064C074D06E0E06840F0010394E807009C
:1009D00098471034AC42F6D3FFF7AEFB70360008F0
:1009E0009036000870B521F0004303430CD0C1F3EA
:1009F0000A550024D5EB040564EB0403D617AD1AA1
:100A0000B34102DB0020014670BD201841EB0251CA
:100A100070BD0EB540F2334102910021CDE90011C5
:100A20000A460B46FFF7BDFE03B000BD00BFFEE760
:100A3000704700002DE9F05F40484149098830F9CE
:100A4000210040493E4A128831F92210451A3B489C
:100A50003B49098800EB8100B0F902003949384A66
:100A6000128801EB8201B1F90210441A05FB05F16D
:100A700004FB0410FFF762FD074602F013FC8246F8
:100A8000FFF786FD06466420684390FBF6F738467C
:100A9000FFF74BFD2C4908606420604390FBF6F79C
:100AA0003846FFF742FD294908604FF00109284800
:100AB0000068FFF78CFD21F0004107460022254B1E
:100AC000FFF7B0FD05D200201F4908601F490860EC
:100AD00007E000211E480068FFF7D8FD01D24FF063
:100AE000FF391B480068FFF772FD21F000410746FF
:100AF0000022194BFFF796FD07D2642109FB01F094
:100B0000FFF713FD1549086016E011480068FFF76C
:100B10005EFD21F0004107460022114BFFF782FDE8
:100B200007D209EB89018800FFF7FFFC0B49086039
:100B300002E0002009490860BDE8F09F2082002003
:100B400014000020908000202000002024000020BD
:100B50001C0000200000F83F0000E03F28000020BB
:100B60000000D03F074908604FF0E021096941F0DB
:100B700001014FF0E022116100BF0249096800291C
:100B8000FBD170470000002000B587B0C320ADF84E
:100B9000180004208DF81B0003208DF81A0006A908
:100BA000334800F07BF8C020ADF8180004208DF821
:100BB0001B0003208DF81A0006A92E4800F06EF8DD
:100BC0000020ADF80C004FF6FF70ADF810000020CB
:100BD000ADF81200ADF80E0003A94FF0804001F00F
:100BE000BBF903A9244801F0B7F903A9234801F090
:100BF000B3F900231A4603214FF0804000F08AFF2A
:100C000000231A4603211C4800F084FF00231A46E3
:100C100003211A4800F07EFF684601F003F8062021
:100C2000ADF8080069464FF0804000F0A5FF694626
:100C3000114800F0A1FF6946104800F09DFF002018
:100C40004FF0804188840C49243108800B492431BD
:100C500008800121880700F042FF0121064800F0CA
:100C60003EFF0121054800F03AFF07B000BD00003B
:100C700000080140000C0140000400400008004052
:100C800000204FF080418884024908800249088092
:100C90007047000024040040240800402DE9F04182
:100CA000024600250026002000230024002791F89A
:100CB00003C00CF00F0591F803C00CF0100CBCF150
:100CC000000F03D091F802C04CEA050591F800C06E
:100CD000BCF1000F31D0146800202BE04FF0010C64
:100CE0000CFA00F3B1F800C00CEA03069E4220D1D2
:100CF00083004FF00F0C0CFA03F7BC4305FA03FC1A
:100D00004CEA040491F803C0BCF1280F06D14FF05F
:100D1000010C0CFA00FCC2F814C00AE091F803C000
:100D2000BCF1480F05D14FF0010C0CFA00FCC2F8E1
:100D300010C0401C0828D1D31460B1F800C0BCF129
:100D4000FF0F34DD546800202EE000F1080C4FF056
:100D5000010808FA0CF3B1F800C00CEA03069E4241
:100D600021D183004FF00F0C0CFA03F7BC4305FAB6
:100D700003FC4CEA040491F803C0BCF1280F05D130
:100D800000F1080C08FA0CF8C2F8148091F803C0BE
:100D9000BCF1480F07D100F1080C4FF0010808FA28
:100DA0000CF8C2F81080401C0828CED35460BDE86F
:100DB000F081416170470161704700BFFEE70000AC
:100DC00008B50C20ADF8000010208DF803000320BA
:100DD0008DF8020069460648FFF760FF40F20330D5
:100DE000ADF8000069460348FFF758FF08BD000052
:100DF00000080140000C014000BFFEE710B502F002
:100E0000FFF8FFF73DFF02F05BF9FFF713FE02F07A
:100E10006FFA00F0B3F900F0E1F810BD2DE9FC47DE
:100E200081468A460024B9F1640F01DD642406E09E
:100E300019F1640F02DA6FF0630400E04C4644BB22
:100E4000BAF1000F06D0BAF1010F0CD0BAF1020FBF
:100E50001DD111E004215B48FFF7ABFF0821594881
:100E6000FFF7A7FF14E001215748FFF7A2FF022177
:100E70005548FFF79EFF0BE04FF480715248FFF793
:100E800098FF4FF400715048FFF793FF00E000BF58
:100E900096E0002C48DD2046FFF750FB07464B4A02
:100EA0004B4BFFF7D0FA054600224A4BFFF724FAD6
:100EB000CDE90001FFF76CFB04B2BAF1000F06D0D8
:100EC000BAF1010F10D0BAF1020F2BD11AE00421B0
:100ED0003C48FFF76EFF08213A48FFF76CFF04EB30
:100EE000C4003D4908801EE001213748FFF761FF3B
:100EF00002213548FFF75FFF04EBC4003649091DA6
:100F0000088010E04FF480712F48FFF752FF4FF434
:100F100000712D48FFF74FFF04EBC4002E49083144
:100F2000088000E000BF4BE02046FFF707FB0546C6
:100F3000264A274BFFF787FA07460022254BFFF783
:100F40007CFACDE90001FFF723FB04B2BAF1000FF0
:100F500006D0BAF1010F11D0BAF1020F2ED11CE068
:100F600004211848FFF727FF08211648FFF721FF43
:100F7000604200EBC0001849088020E001211248BF
:100F8000FFF719FF02211048FFF713FF604200EB43
:100F9000C0001149091D088011E04FF480710A4812
:100FA000FFF709FF4FF400710748FFF702FF6042A7
:100FB00000EBC00008490831088000E000BF00BF16
:100FC000BDE8FC8700080140000C0140CDCCCCCC32
:100FD000CCCCDC3F008046403434014070B52F4A11
:100FE00051682F4A5068FFF75BFB02D22C484068DB
:100FF00001E02A48406804462A4841682046FFF735
:101000004FFB01D2204601E02648406804462046B6
:10101000FFF7DDFA05460022234BFFF703FB20D242
:101020001F4948682146FFF729F905461F49FFF780
:10103000F3F81B494860194948682146FFF71EF933
:1010400005461A49FFF7E8F8144948601549486809
:101050002146FFF713F905461449FFF7DDF811495A
:1010600048600F494868FFF77AFA05B20021284620
:10107000FFF7D4FE09494868FFF771FA05B201216C
:101080002846FFF7CBFE07494868FFF768FA05B224
:1010900002212846FFF7C2FE70BD000058850020DF
:1010A0004085002070850020000059400000C842A3
:1010B000704708B54FF4A06000F056F825208DF871
:1010C000000001208DF8030000208DF801008DF84C
:1010D0000200684600F010F836208DF8000001206C
:1010E0008DF8010000208DF8020001208DF803002A
:1010F000684600F001F808BD70B5002100230F22FA
:10110000C47804B3154C246804F4E064C4F5E064C6
:10111000210AC1F10403CA40447804FA03F1847837
:101120001440214309010E4C0678A155047804F0BF
:101130001F050124AC4005786D11AD0005F1E025D7
:10114000C5F8004109E0047804F01F050124AC4013
:10115000044D0678761145F8264070BD0CED00E090
:1011600000E400E080E100E002490143024A11602E
:10117000704700000000FA050CED00E02DE9F04793
:101180000124BD480068BD490860BD4A1168BB4ADA
:101190001068FFF73BF8B949C860BA480068FFF724
:1011A00016FA05460E46B549C868FFF710FA21F051
:1011B000004107462A463346FFF71CFA00D20024B6
:1011C000AE494869B0490968FFF760FA06D2AB49F1
:1011D0004869AE490968FFF763FA19D3A749486916
:1011E000A9490968FFF75CFA05D2A449C86800213B
:1011F000FFF74CFA0CD3A1494869A4490968FFF7E5
:1012000045FA0CD29D49C8680021FFF749FA06D279
:101210009A4AD1685069FEF7A7FF98494861974AF2
:101220001169D068FEF7F2FF074699480168384611
:10123000FEF7F2FF05462046FFF777F9824695480C
:1012400001685046FEF7E8FF80468C4841694046F9
:10125000FEF7E2FF07468948C1688F480068FEF73D
:10126000DBFF81463946FEF77FFF06462946FEF73B
:101270007BFF824948600846C068086101247E48B7
:101280004068864908607E4A5168844A1068FEF7C3
:10129000BDFF8249C8607B480068FFF798F90546A2
:1012A0000E467E49C868FFF792F921F000410746D3
:1012B0002A463346FFF79EF900D200247749486951
:1012C00071490968FFF7E2F906D2744948696F4924
:1012D0000968FFF7E5F919D3704948696A4909684F
:1012E000FFF7DEF905D26D49C8680021FFF7CEF996
:1012F0000CD36A49486965490968FFF7C7F90CD2F8
:101300006649C8680021FFF7CBF906D2634AD16865
:101310005069FEF729FF61494861604A1169D06848
:10132000FEF774FF07465A4801683846FEF774FF17
:1013300005462046FFF7F9F88246564801685046B0
:10134000FEF76AFF8046554841694046FEF764FF54
:1013500007465248C16850480068FEF75DFF814665
:101360003946FEF701FF06462946FEF7FDFE4B49CA
:1013700048600846C068086101243F4880684849C1
:1013800008603F4A9168464A1068FEF73FFF4449AB
:10139000C8603C480068FFF71AF905460E46404908
:1013A000C868FFF714F921F0004107462A46334682
:1013B000FFF720F900D20024394948693249096809
:1013C000FFF764F906D23649486930490968FFF7E2
:1013D00067F919D3324948692B490968FFF760F961
:1013E00005D22F49C8680021FFF750F90CD32C49CA
:1013F000486926490968FFF749F90CD22849C868A5
:101400000021FFF74DF906D2254AD1685069FEF751
:10141000ABFE23494861224A1169D068FEF7F6FE07
:1014200007461B4801683846FEF7F6FE054620468B
:10143000FFF77BF88246174801685046FEF7ECFE3E
:101440008046174841694046FEF7E6FE07461448C5
:10145000C16811480068FEF7DFFE81463946FEF795
:1014600083FE06462946FEF77FFE0D494860084682
:10147000C0680861BDE8F0878480002040850020B6
:101480007880002040000020380000203C00002030
:1014900034000020300000202C000020588500205F
:1014A000708500207047000029B1064AD2690243C6
:1014B000044BDA6104E0034AD2698243014BDA61EA
:1014C000704700000010024029B1064A92690243A9
:1014D000044B9A6104E0034A92698243014B9A618A
:1014E000704700000010024030B5002100220024A7
:1014F00000232D4D6D6805F00C0121B1042905D0A4
:10150000082923D105E0294D056022E0274D05601B
:101510001FE0254D6D6805F47012234D6D6805F4CC
:101520008034022505EB92421CB9214D55430560DC
:101530000BE01D4D6D6805F400351DB11C4D554384
:10154000056002E0194D5543056002E0174D056046
:1015500000BF00BF144D6D6805F0F0010909154D7D
:101560006B5C0568DD4045600F4D6D6805F4E0611A
:10157000090A104D6B5C4568DD4085600A4D6D6859
:1015800005F46051C90A0B4D6B5C4568DD40C560D0
:10159000054D6D6805F44041890B074D6B5CC568CE
:1015A000B5FBF3F5056130BD0010024000127A0072
:1015B00000093D004700002057000020704710B58B
:1015C00000F002F810BD00000CB500200190009062
:1015D0003348006840F480303149086000BF30482B
:1015E000006800F4003000900198401C01900098C1
:1015F00018B90198B0F5A06FF1D12948006800F43E
:10160000003010B10120009001E00020009000980F
:10161000012843D12348006840F0100021490860A8
:101620000846006820F0030008600846006840F0A3
:10163000020008601A484068194948600846406836
:1016400048600846406840F480604860084640684A
:1016500020F47C1048600846406840F4E810486078
:101660000846006840F08070086000BF0C480068C1
:1016700000F000700028F9D00948406820F003000D
:10168000074948600846406840F00200486000BFD3
:101690000348406800F00C000828F9D10CBD000098
:1016A000001002400020024010B500F0A7FC10BD61
:1016B00030B519480068194AB0FBF2F1481EB0F184
:1016C000807F01D301201BE0481E4FF0E0225061D3
:1016D00050170F22002804DB13071C0E104B1C545C
:1016E00006E013071D0E0F4B00F00F04241F1D55BD
:1016F00000BF00204FF0E022906107201061002021
:1017000008B100BFFEE74FF0E020006920F00100C3
:101710004FF0E021086130BD5C000020A086010090
:1017200000E400E018ED00E010B51348006840F058
:1017300001001149086008464068104908400E49F8
:101740004860084600680E4908400B490860084692
:10175000006820F4802008600846406820F4FE00FD
:1017600048604FF41F008860FFF729FF4FF00060CA
:101770000449086010BD0000001002400000FFF89E
:10178000FFFFF6FE08ED00E0F0B50C46154600221E
:101790000021068C4FF6FE773E400684028B018CBA
:1017A0004FF60C7632407E1C06EA03162E43324377
:1017B000104EB0420ED0104EB0420BD0B0F1804F60
:1017C00008D00E4EB04205D00D4EB04202D00D4EA4
:1017D000B04206D14FF6FD76314044F00106314368
:1017E00005E04FF6F576314044F0010631430283BF
:1017F0000184F0BD002C0140003401400004004091
:1018000000080040000C0040F0B50C4615460022D0
:1018100000210026078C4FF6EF7C07EA0C070784AF
:10182000028B018C4FF6FF7707EA041640F6FF475C
:101830003A404FF6FF7707EA03373A434FF6FF7710
:1018400007EA05273A43114FB8420ED0104FB8426D
:101850000BD0B0F1804F08D00E4FB84205D00E4FDC
:10186000B84202D00D4FB84206D14FF6DF7739406B
:1018700046F01007394305E04FF65F77394044F0F2
:101880001007394302830184F0BD0000002C0140A1
:10189000003401400004004000080040000C0040FB
:1018A000F0B50C461546002200210026078C4FF6A5
:1018B000FF6C07EA0C070784828B018C4FF6FF77D9
:1018C00007EA04264FF60C773A404FF6FF7707EA0F
:1018D00003172F433A43114FB8420ED0104FB8426E
:1018E0000BD0B0F1804F08D00E4FB84205D00E4F4C
:1018F000B84202D00D4FB84206D14FF6FF573940DB
:1019000046F48077394305E04FF2FF57394044F4FD
:101910008077394382830184F0BD0000002C0140B0
:10192000003401400004004000080040000C00406A
:10193000F0B50C461546002200210026078C4EF615
:10194000FF7C07EA0C070784828B018C4FF6FF7738
:1019500007EA043640F6FF473A404FF6FF7707EABA
:1019600005273A434FF6FF7707EA03373A43114F0B
:10197000B8420ED0104FB8420BD0B0F1804F08D013
:101980000E4FB84205D00E4FB84202D00D4FB842AC
:1019900006D14DF6FF77394046F48057394305E0CC
:1019A00047F6FF57394044F4805739438283018416
:1019B000F0BD0000002C0140003401400004004054
:1019C00000080040000C004010B50121074800F05D
:1019D000C2F848B10121054800F07EF801F010FB83
:1019E000FFF74EF9FFF70AFA10BD000000100040A3
:1019F0000EB540F60F60ADF800001320ADF80400FE
:101A00000020ADF80600ADF802006946064800F077
:101A1000A3FA01221146044800F00DF90121024801
:101A200000F05DF80EBD00000010004000B589B068
:101A30004FF4E070ADF8200018208DF8230003204B
:101A40008DF8220008A92248FFF728F94FF46170A9
:101A5000ADF818000020ADF81400ADF81A00ADF88C
:101A6000160005A91B4800F077FA6020ADF80400C5
:101A70000120ADF806000020ADF80C0001A91548C2
:101A800000F0E2F80821134800F02AF901A91148F2
:101A900000F030F908210F4800F07EF901A90D4847
:101AA00000F088F908210B4800F0D4F901A9094891
:101AB00000F0DAF90821074800F014FA012105487E
:101AC00000F00DF80121034800F015F809B000BD41
:101AD0000010014000340140CA430282704721B126
:101AE000028842F00102028004E002884FF6FE7391
:101AF0001A400280704731B1B0F8442042F40042ED
:101B0000A0F8442005E0B0F84420C2F30E02A0F88B
:101B100044207047F0B50C4615461E4600210022B1
:101B200000230189028B038C4FF6F877394021435B
:101B30004FF6FC473A4040F201173A434FF6DD7743
:101B40003B404FF6FF7707EA06172F433B430181DF
:101B500002830384F0BD30B5024600200023002438
:101B6000158A05EA0103958905EA010413B10CB150
:101B7000012000E0002030BD70B505460C46244829
:101B800085420ED0234885420BD0B5F1804F08D056
:101B90002148854205D02148854202D0204885420F
:101BA00000D100E000BF208850B92389A288618855
:101BB0002846FFF7E9FDE188284600F0A0F925E076
:101BC000208804280AD12389A28861882846FFF743
:101BD0001BFEE188284600F09BF917E020880828C2
:101BE0000AD12389A28861882846FFF759FEE18837
:101BF000284600F09AF909E02389A28861882846DE
:101C0000FFF796FEE188284600F098F970BD0000C5
:101C1000002C014000340140000400400008004056
:101C2000000C0040002101804180012181800021C1
:101C3000C180018170471AB183890B43838102E01F
:101C400083898B438381704770B500240022002371
:101C5000058C4FF6FE7635400584028C8388048B14
:101C60004FF68F752C40B51E2C400D882C43751EE9
:101C70002A400D892A434D882A43144DA8420BD08F
:101C8000134DA84208D0134DA84205D0124DA842CA
:101C900002D0124DA84213D14FF6F7752A404D8954
:101CA0002A434FF6FB752A408D882A434FF6FF657D
:101CB0002B404FF6FF552B408D892B43CD892B436D
:101CC00083800483CD888586028470BD002C01400A
:101CD0000034014000400140004401400048014000
:101CE0000A460021018B4FF6F77319401143018317
:101CF0007047000070B5002400220023058C4FF6C9
:101D0000EF7635400584028C8388048B48F6FF7596
:101D10002C404FF6FF452C400D884FF6FF7606EA23
:101D200005252C434FF6DF752A400D8906EA051577
:101D30002A434D8806EA05152A43154DA84202D0CC
:101D4000144DA8421DD14FF67F752A404D894FF69C
:101D5000FF7606EA05152A434FF6BF752A408D889F
:101D600006EA05152A434FF6FF352B404FF2FF7563
:101D70002B408D8906EA85052B43CD8906EA85052A
:101D80002B4383800483CD880587028470BD0000C7
:101D9000002C0140003401400A460021018B4FF223
:101DA000FF7319404FF6FF7303EA022319430183BF
:101DB0007047000070B5002400220023058C4FF608
:101DC000FF6635400584028C8388848B4FF68F75BF
:101DD0002C404FF6FC752C400D882C434FF6FF55D8
:101DE0002A400D894FF6FF7606EA05252A434D88DD
:101DF00006EA05252A43154DA84202D0144DA842F3
:101E00001DD14FF2FF752A404D894FF6FF7606EA45
:101E100005252A434FF6FF352A408D8806EA052519
:101E20002A434EF6FF752B404DF6FF752B408D89EA
:101E300006EA05152B43CD8906EA05152B43838059
:101E40008483CD888587028470BD0000002C01400A
:101E5000003401400A460021818B4FF6F773194088
:101E6000114381837047000070B5002200230024D5
:101E7000058C4EF6FF7635400584038C8488828B72
:101E800048F6FF752A404FF6FF452A400D884FF669
:101E9000FF7606EA05252A434DF6FF752B400D898E
:101EA00006EA05352B434D8806EA05352B430B4DD5
:101EB000A84202D00A4DA84208D14BF6FF752C402B
:101EC0008D894FF6FF7606EA85152C438480828340
:101ED000CD88A0F84050038470BD0000002C014064
:101EE000003401400A460021818B4FF2FF731940F4
:101EF0004FF6FF7303EA0223194381837047028B75
:101F00004FF6F3731A400283028B0A430283704731
:101F1000028B4FF2FF331A400283028B4FF6FF739E
:101F200003EA01231A4302837047828B4FF6F3734F
:101F30001A408283828B0A4382837047828B4FF2DE
:101F4000FF331A408283828B4FF6FF7303EA01232B
:101F50001A43828370470000002202881D4B98427A
:101F60000ED01D4B98420BD0B0F1804F08D01B4BC8
:101F7000984205D01A4B984202D01A4B984204D18D
:101F80004FF68F731A404B881A43174B984207D06D
:101F9000164B984204D04FF6FF431A40CB881A43A1
:101FA00002808B8883850B8803850A4B98420BD06F
:101FB000094B984208D00E4B984205D00D4B9842E1
:101FC00002D00D4B984201D10B7A03860123838204
:101FD00070470000002C0140003401400004004024
:101FE00000080040000C00400010004000140040B9
:101FF000004001400044014000480140044800689E
:1020000020B103480068401E014908607047000085
:102010000000002000B585B018208DF813004FF4A3
:102020000070ADF8100003208DF8120004A92A48B2
:10203000FEF734FE04208DF813000002ADF8100006
:1020400004A92548FEF72AFE18208DF813004FF446
:102050008060ADF8100003208DF8120004A91F481D
:10206000FEF71CFE04208DF813004002ADF81000AE
:1020700004A91A48FEF712FE4FF4165000900C20E7
:10208000ADF80A000020ADF80800ADF80600ADF884
:102090000400ADF80C006946114800F047F9012230
:1020A00040F225510E4800F01BF901210C4800F0C8
:1020B000D4F84FF4E130009069460A4800F036F950
:1020C000012240F22551074800F00AF90121054894
:1020D00000F0C3F805B000BD000801400010014049
:1020E00000380140004C00401CB540F225514E48DC
:1020F00000F0CCF8B0B140F225514B4800F09EF80A
:10210000494800F07FF9C4B248480068B0F5804FF4
:1021100007D0464801680068401C444A10604448A3
:10212000445400BF4148006820287CD140480078D2
:10213000FC2862DB3E48807F0D285ED13C48C07F92
:102140000A285AD13A48007800F0020039498871CB
:102150003748007800F00100C871354840788009A0
:102160000872334880783249497801F03F0140EAEB
:102170000120304908802E48C07848822C48407998
:102180002B49097940EA012001B22A488182284876
:1021900080792849C8822648007A2549C97940EAC9
:1021A000012001B2234801832148407A2149C88196
:1021B0001F48C07A1E49897A40EA012001B21D48B1
:1021C00001821B48407B1A49097B40EA01201949DA
:1021D00048801748C07B1649897B40EA0120154991
:1021E00088801348007C48721148407C88721048EF
:1021F000807CC8720E48C07C08730E48D0F80E0070
:1022000001900C48D0F812000090019900F052FCA7
:102210000020064908600849522000F02FFF0649B7
:102220000A2000F02BFF1CBD0038014008000020F0
:1022300078400020888500207000002010B5002222
:10224000002340F66A14A14200D100BF0A12012403
:102250009440A3B2DC43048010BD21B1828942F4D2
:102260000052828104E082894DF6FF731A40828118
:10227000704702460020B1F5007F00D100BF1388EF
:102280000B400BB1012000E00020704770B5024602
:10229000002400230025002040F66A16B14200D138
:1022A00000BFC1F3421501F01F03012606FA03F334
:1022B000012D02D19689334006E0022D02D1168A03
:1022C000334001E0968A33400C12012606FA04F4EA
:1022D0001688344013B10CB1012000E0002070BD1D
:1022E000F0B50346002400260025002040F66A17BA
:1022F000B94200D100BF1846C1F3421401F01F06D5
:10230000012707FA06F5012C01D10C3004E0022C5C
:1023100001D1103000E014301AB107682F43076074
:1023200002E00768AF430760F0BD00002DE9F04709
:1023300086B005460E460024A24600BFA1460027EF
:10234000B08900B100BF2F462C8A4CF6FF700440C4
:10235000F08804432C82AC894EF6F3100440B08818
:1023600031890843718908430443AC81AC8A4FF634
:10237000FF400440B0890443AC8201A8FFF7B4F8E1
:102380001F48874202D1DDF810A001E0DDF80CA063
:10239000A88900F4004040B10AEBCA0000EB0A1023
:1023A00031684900B0FBF1F807E00AEBCA0000EB26
:1023B0000A1031688900B0FBF1F86420B8FBF0F036
:1023C00004012009642101FB1089A88900F4004060
:1023D00040B1322000EBC900B0FBF1F000F0070083
:1023E000044308E0322000EB09106421B0FBF1F057
:1023F00000F00F0004432C8106B0BDE8F087000018
:102400000038014001468888C0F308007047C1F3D6
:1024100008028280704700BFFEE7490050EAC120F1
:1024200018BF04204A0D18BF40F0010040F2FF72AF
:10243000B2EB515F08BF40F00200012808BF052041
:10244000704700002DE9F74F144694B00021C4E90D
:1024500002111599079121F00045C9498D4206DC0A
:102460001599C4E9000117B00020BDE8F08FC549F7
:10247000DFF814A3A9423CDD0799C44E0029C44FDC
:10248000C44A1599534619DDFDF7D7FF554506D0C7
:10249000C14AC24BFDF7D1FFC4E900010AE04FF089
:1024A000D352BE4BFDF7C9FF32463B46FDF7C5FF91
:1024B000C4E9000117B00120BDE8F08FFDF71CFF53
:1024C000554506D0B44AB54BFDF716FFC4E90001E7
:1024D0000AE04FF0D352B14BFDF70EFF32463B46B8
:1024E000FDF70AFFC4E9000117B04FF0FF30BDE867
:1024F000F08FAB49A942159978DB21F00041834662
:102500008846A84AA84BFDF79EFF0022A74BFDF77F
:10251000F3FEFEF73DF80990FEF710F806460F4669
:102520009C4A5346FDF78FFF43465A46FDF788FF06
:1025300080468A46984A994B30463946FDF783FFD4
:102540002A0D01250B9242465346FDF779FF032DD4
:10255000C4E9000139D00B98C1F30A51401A05EBC8
:1025600045111139814230DA9148C346784400EB75
:102570000510CDF80CA00C90D0E900233046394668
:10258000FDF761FF02460B460491069058460399F9
:10259000FDF753FF80468A4602460B46584603998C
:1025A000FDF74BFF049B069AFDF747FF83460C9807
:1025B00003913946D0E902233046FDF744FF5A46DD
:1025C000039BFDF73AFF6D1CBDE707980028A2BFEB
:1025D000099817B0BDE8F08F616881F00041616033
:1025E000099817B04042BDE8F08FFFE78446159880
:1025F000C1F31301C0F30A50A0F2F5304FEA60189E
:1026000000F01F06C6F120001390002006900790EE
:1026100041F4801E05206D4676B1664A08EB000144
:102620007A4452F8213002EB8101B3404A68139991
:1026300022FA01F1194305E05F4908EB00027944F1
:1026400051F82210A1FB0E27A1FB0C131A449A4249
:1026500034BF0123002303EB070A05EB8003D3E912
:1026600001B70F448F4234BF0121002193448B44B2
:1026700011B1934502D903E0934501D2012100E055
:102680000021C3E901B7514445F82010011EA0F113
:102690000100C1DC0298059F00F10050800F1290EC
:1026A0000298DDE903568000FDF748FF834628467F
:1026B0000D91FEF7AEF96FF01D02FEF793F9CDE92B
:1026C0000E013046FEF7A5F96FF03D02FEF78AF9DC
:1026D00080468A463846FEF79CF96FF05D02FEF7A9
:1026E00081F90746424653461191FDF705FEDDE9A3
:1026F0000E23FDF701FE5A460D9BFDF7FDFD00255B
:102700000E465A4628460D9BFDF797FEDDE90E233F
:10271000FDF793FE42465346FDF78FFE3A46119B66
:10272000FDF78EFEDFF898A0244A5346FDF78BFE96
:1027300007468846234A244B31462846FDF783FE48
:102740003A464346FDF7D8FD074688464FF0A84273
:10275000534631462846FDF776FE3A464346FDF796
:10276000CBFD159A12F0004F04D0129A81F000416F
:1027700052421292C4E90001129817B0BDE8F08FDE
:10278000FB21E93F7CD90240FB21F93F7370032E06
:102790008A19A33B000040543163621A61B4D03DF2
:1027A000FB21394183C8C96D305FE43F0000E03F41
:1027B000101000008C0F00006E0F0000182D445404
:1027C000FB21F93D3326A611460B113C2DE9FF4DA7
:1027D00021F0004807460C46B8F1795F08DAFDF7AA
:1027E000D7FE002801BF0020324904B0BDE8F08DBB
:1027F0003A46234610461946FDF725FE0546024691
:102800002D480E460B460621784400F05DF82A4616
:102810003346FDF718FEDDE9022382468B46384633
:102820002146FDF710FE04460F4652465B462846F9
:102830003146FDF708FE22463B46FDF7FEFD074602
:102840008A464FF0FF3228463146FEF7CBF81B4A46
:1028500090450ADA3A465346FDF7EFFD04B00022F0
:10286000BDE8F04D134BFDF7EBBD154A4245A8BF3F
:10287000A8F500154FF00004B8BF124D22462B46B4
:10288000FDF7DBFD0646884622462B460020094917
:10289000FDF7D3FD04460D463A46534630464146C1
:1028A000FDF7CBFD04B022462B46BDE8F04DFDF709
:1028B000C7BD00000000F03F3C0D00003333D33FA4
:1028C0000000E93F0000D23F2DE9F0414F1E00EB30
:1028D000C7010446D1E9000115461E4637F006023D
:1028E0000DD02A463346FDF7AEFD7F1E04EBC7032D
:1028F000D3E90023FDF700FD37F00602F1D1022FE6
:1029000025D0042F13D0062F18BFBDE8F0812A462A
:102910003346FDF798FDD4E90A23FDF7EDFC2A467E
:102920003346FDF790FDD4E90823FDF7E5FC2A4680
:102930003346FDF788FDD4E90623FDF7DDFC2A4682
:102940003346FDF780FDD4E90423FDF7D5FC2A4684
:102950003346FDF778FDD4E90223FDF7CDFC2A4686
:102960003346FDF770FDD4E90023BDE8F041FDF7E3
:10297000C3BC00002DE9FF4D054621F0004084B0A6
:102980000C46B0F1795F0BDA2846FFF746FD0428C4
:1029900008BF00F071F8284608B02146BDE8F08D68
:1029A0002A460B461046FDF74EFD06460F462A46C0
:1029B0002346FDF748FD804626488A4632463B4678
:1029C00005217844FFF780FF83461098029160B399
:1029D000214A224B40465146FDF735FDCDE9000125
:1029E0005A4640465146029BFDF72DFD82468846D9
:1029F000DDE906014FF0FF32FDF7F4FF5246434692
:102A0000FDF71BFD32463B46FDF71DFDDDE90623C4
:102A1000FDF713FDDDE90023FDF70FFD08B02A46A1
:102A20002346BDE8F04DFDF70BBD0B465A46304638
:102A30003946FDF708FD084A084BFDF75DFC4246A4
:102A40005346FDF700FD08B02A462346BDE8F04D89
:102A5000FDF752BC820C0000495555555555C5BF70
:102A60000122FDF7BFBFFDF747BC00221346104609
:102A70001146FDF7E4BE0000024A00201107FDF7F1
:102A8000B1BF000001FDFFFF02E008C8121F08C12E
:102A9000002AFAD170477047002001E001C1121FDF
:102AA000002AFBD170470000014908607047000010
:102AB0007400002003B512480088401C10490880AB
:102AC00008460088642190FBF1F201FB12000C49DA
:102AD00008800C490A4A128801EB8200BDF80010F8
:102AE0000180BDF8021041800749054A128801EBB8
:102AF0008200BDF804100180BDF8061041800CBDB5
:102B00001400002090800020208200202DE9F84F42
:102B100004460D4621F0004000917349814211DCCA
:102B20007249884201DC06D12CB120462946BDE815
:102B3000F84FFFF795BF6E48002DCCBF6D496E4929
:102B4000BDE8F88F6D49814211DD6D498142D8BFE2
:102B50004FF0FF366DDD20462946FFF75EFC042866
:102B600008BFFFF789FF20462946BDE8F88F654971
:102B7000654F25F00045814233DD6449814219DD0E
:102B8000002632464FF0804320462946FDF7B4FB2D
:102B900080468A46012220462946FDF723FF00226F
:102BA0003B46FDF74AFC42465346FDF748FE0446C5
:102BB0000D463EE001260022BA463B462046294605
:102BC000FDF79AFB80460F460022534620462946D1
:102BD000FDF733FC42463B46FDF731FE04460D4609
:102BE00027E04B4981421BDDDFF828A102260022A5
:102BF000534620462946FDF726FC00223B46FDF7BA
:102C00007BFB80460F460022534620462946FDF7AF
:102C100014FC42463B46FDF712FE04460D4608E012
:102C2000032622462B4600203B49FDF708FE0446BA
:102C30000D4622462B4610461946FDF704FC8B46EE
:102C4000824602460B46FDF7FEFB07460246334826
:102C500088460B4606217844FFF736FE52465B460F
:102C6000FDF7F1FB82462E488B463A464346052146
:102C70007844FFF729FE3A464346FDF7E4FB024657
:102C80000B46002E504659460CDAFDF735FB22461E
:102C90002B46FDF7D8FB01B022462B46BDE8F04F8E
:102CA000FDF7CEBBFDF728FB22462B46FDF7CBFBFD
:102CB0001C4A7A4402EBC603D3E90023FDF7BDFBAF
:102CC00022462B46FDF7B9FB174A7A4402EBC603AE
:102CD000D3E90023FDF7B4FB009A002AB8BF81F0C6
:102CE0000041BDE8F88F0000000010440000F07FB4
:102CF000182D4454FB21F93FFB21F9BF0000DC3FB4
:102D00000000203E0000F33F0000F03F0000E63FDF
:102D1000008003400000F83F0000F0BFBE08000044
:102D20007C0800001A080000E20700002DE9F04DC1
:102D30009446CCF1000423F000464CEA0404524FC0
:102D400046EAD4749A46884621F00042BC4206D82E
:102D5000454240EA050442EAD474BC4204D9BDE8C5
:102D6000F04D6246FFF77FBEAAF14055A5F17F65A1
:102D700055EA0C040BD0022404EAAA74434DDFF890
:102D800010E144EAD87452EA000B04D00CE0BDE82C
:102D9000F04DFFF7BBBE002C14BF012CBDE8F08D39
:102DA000022C30D0032C32D056EA0C0B0AD0BE4293
:102DB00020D1BA4209D126F0804622F08042334623
:102DC000114617E000291ADB25E0DFF8C8B0FB4404
:102DD000002C04BFDBE90001BDE8F08D012C02BF2F
:102DE000DBE9000181F00041BDE8F08D022C0AD042
:102DF000032C0CD0BA4212D1B8F1000F0BDA2348E1
:102E00002549BDE8F08D28462449BDE8F08D2846C7
:102E10007146BDE8F08D1D482149BDE8F08D921B3B
:102E200012153C2AC4BF19481D490EDCBAF1000F27
:102E3000BEBF12F13C0F0020014606DB6246FDF7E3
:102E4000FEFC21F00041FFF761FE002C08BFBDE849
:102E5000F08D012C04BF81F00041BDE8F08D114AD6
:102E6000114B022C07D0FDF7E8FA2A46BDE8F04DD9
:102E70000A4BFDF7E2BAFDF7E0FA2A46BDE8F04D4D
:102E8000064BFDF7DDBA00000000F07F182D44541A
:102E9000FB2109C0A6070000FB21F9BFFB21094067
:102EA000FB21F93F075C143326A6A13C00B5244B57
:102EB00021F0004287B09A42DCBF0022134629DD90
:102EC000204B9A4208D140B94FF00100FFF7ECFDCA
:102ED000FFF7CBFD07B000BD03DBFFF7C1FD07B077
:102EE00000BD02AAFFF7AEFA10F0030104BF0DF116
:102EF000080C9CE80F000DD0012001290ED00229FA
:102F000014D00DF1080C00909CE80F00FFF732FD83
:102F100007B000BDFFF75AFC07B000BD0DF1080C6B
:102F200000909CE80F00FFF725FD05E00DF1080C6F
:102F30009CE80F00FFF74AFC07B081F0004100BD9C
:102F4000FB21E93F0000F07F70B504460D46E1B279
:102F50000548FFF75CFA00BF40210348FFF789F9F5
:102F60000128F9D1204670BD003801402DE9F34118
:102F7000BDF90010BDF90420891A4943BDF90220AA
:102F8000BDF90630D21ABDF90230BDF906609B1BAF
:102F900002FB0310FDF7D2FA04460D4620462946EF
:102FA00000F080F90646FDF755FBBDE8FC810121E4
:102FB0001720FEF779FA012144F20500FEF784FAA2
:102FC00001214803FEF780FA01211C20FEF77CFA5C
:102FD0000121C804FEF768FAFEF728FDFEF768FB3A
:102FE000FFF718F8FDF7ECFEFDF7CEFDFEF700FD4C
:102FF000FEF75FF803E042F21070FDF7B3FDFAE769
:103000002DE9F0414FF08041898C08B2FDF796FA26
:1030100006460022134BFDF710FA0446FDF71AFB93
:10302000114988601149098808B2FDF787FA0646F8
:1030300000220C4BFDF701FA0446FDF70BFB0C498F
:1030400088600C49098808B2FDF778FA0646002224
:10305000044BFDF7F2F90446FDF7FCFA06498860D7
:10306000BDE8F08100002840408500202404004095
:10307000588500202408004070850020FFF764BFB9
:103080002DE9F34381B0BDF90810BDF90420881A79
:10309000FDF754FA04460D46BDF90A10BDF90620A5
:1030A000881AFDF74BFA064622462B46FFF73EFEEE
:1030B0008046FDF7CFFA00900098BDE8FE8300003F
:1030C0002DE9FC4748484949098800EB8109B9F8CE
:1030D0000000ADF80000B9F80200ADF80200444865
:1030E0004249098800EB81042088ADF8040060881B
:1030F000ADF80600DDE90001FFF738FF8246FDF775
:1031000066FA05460E463B483849098800EB8109B6
:10311000B9F80000ADF80000B9F80200ADF80200FF
:1031200033483249098800EB81042088ADF8040057
:103130006088ADF80600DDE90001FFF717FF824661
:10314000FDF745FA0746884629482849098830F896
:1031500021002949088026482449098800EB81007C
:103160004088254948803A46434628463146FDF77F
:1031700059FA0DD2204840880C3800B21E494880C8
:103180000846B0F902000C280CDA0C20488009E04F
:103190001749164A128801EB82000188164A1180ED
:1031A0004188518010481149098800EB810420882A
:1031B000ADF800006088ADF802000F480088ADF857
:1031C00004000D484088ADF80600DDE90001FFF776
:1031D00057FF8146094801684846FDF717F8084936
:1031E0000860BDE8FC8700009080002014000020EB
:1031F00020820020B0830020160000201000002054
:103200001C00002000B5254B21F0004287B09A42F7
:1032100003DC0022134600922BE0214B9A4208D196
:1032200040B94FF00100FFF73FFCFFF71EFC07B06D
:1032300000BD03DBFFF714FC07B000BD02AAFFF7D7
:1032400001F910F003014FF001000DD0012914D055
:1032500002291AD00DF1080C9CE80F00FFF7B6FA0E
:1032600007B081F0004100BD0DF1080C00909CE812
:103270000F00FFF77FFB07B000BD0DF1080C9CE8C5
:103280000F00FFF7A3FA07B000BD0DF1080C009086
:103290009CE80F00FFF76EFBE2E70000FB21E93F2F
:1032A0000000F07F2DE9F04106460F46FDF736FBA2
:1032B000041E0D4618BF0120284320F00040C0F135
:1032C0007F6000F1E040C00F0ED0301C18BF01201D
:1032D000384320F00040C0F17F6000F1E040C00FB3
:1032E00004BF0120FFF7E0FB20462946BDE8F0813E
:1032F0002DE9F04F8BB0664800680A906548006879
:10330000FDF765F9CDE906010A98FDF760F98246F7
:10331000614A624BFDF791F88046FFF7C7FD04460E
:103320000D465F480068FDF752F9064622462B46D7
:10333000FDF789F8CDE902010A98FDF748F906463C
:10334000554A564BFDF779F88046FFF75BFF044678
:103350000D4654480068FDF73AF9824622462B464E
:10336000FDF771F8CDE90001DDE90223FDF765F80D
:10337000CDE90401DDE90623FCF7BEFFCDE9080134
:10338000FDF768F94849086042480068FDF71FF9F1
:10339000CDE908010A98FDF71AF98046FFF786FD86
:1033A00004460D463E480068FDF711F906462246E0
:1033B0002B46FDF748F8CDE904010A98FDF707F917
:1033C0008046FFF71FFF04460D4636480068FDF7AC
:1033D000FEF8064622462B46FDF735F8CDE90201F8
:1033E000DDE90423FDF729F8CDE90601DDE908232D
:1033F000FCF782FF8246FDF72DF92B4948602548EE
:103400000068FDF7E4F8CDE906010A98FDF7DFF85A
:103410008046214A214BFCF76FFF0646FFF746FD29
:1034200004460D461E480068FDF7D1F88246224644
:103430002B46FDF708F8CDE902010A98FDF7C7F819
:103440000646154A154BFCF757FF8246FFF7DAFE92
:1034500004460D4613480068FDF7B9F88046224639
:103460002B46FCF7F0FFCDE90001DDE90223FCF774
:10347000E4FFCDE90401DDE90623FCF73DFFCDE9DA
:103480000801FDF7E7F8084988600BB0BDE8F08F48
:1034900010000020280000208D976E1283C000408D
:1034A0002400002020000020848000200000000074
:1034B0004FBB610567ACDD3F182D4454FB21E93F4C
:1034C0009BF681D20B73EF3F182D4454FB21F93F3B
:1034D000E2652F227F2B7A3C075C143326A6813CC1
:1034E000BDCBF07A8807703C075C143326A6913C6C
:1034F000C4EB98999999C9BF711623FEC671BCBFD8
:103500006D9A74AFF2B0B3BF9AFDDE522DDEADBF3F
:103510002F6C6A2C44B4A2BF0D5555555555D53F57
:10352000FF8300922449C23F6E204CC5CD45B73F72
:10353000513DD0A0660DB13FEB0D76244B7BA93FEA
:1035400011DA22E33AAD903F4C5555555555A53FFC
:103550007751C1166CC156BF9015CB19A001FA3E28
:10356000AD529C804F7E92BEC4B1B4BD9EEE213E52
:10357000D43888BEE9FAA8BD0000000000000000B1
:1035800000004054FB21F93F3163621A61B4D03D21
:103590000000601A61B4D03D7370032E8A19A33BFA
:1035A0000000002E8A19A33BC14920259A837B394C
:1035B00000000000000000006E83F9A22915444EAF
:1035C000D15727FCC0DD34F5999562DB4190433C2F
:1035D000AB6351FE61C5BBDE3A6E24B7E0D24D420B
:1035E000EA2E49061C92D1091CEB1DFE3EA729B10B
:1035F000F53582E88444BB2E26709CE9417E5FB499
:1036000039D69139F43953838B5F849C3B28F9BDBB
:10361000FF97F81F0F9805DE8B112FEF1F6D0A5AC9
:10362000CF7E366DB709CB27663F464F2DEA5F9EAA
:10363000C7BA27757BF1E5EBF739073DEA92528A65
:10364000B15FFB6B085D8D1FA6F810111111813F52
:10365000D561C119A0012ABF7DFEB157E31DC73E48
:10366000EB9C2B8AE6E55ABE7CD5CF5A3AD9E53D8C
:10367000903600080000002078000000882A00082A
:10368000083700087800002030890000982A0008D8
:10369000000000000000000000000000000000002A
:1036A0006666E63E0000000000000000000000002A
:1036B000000000000000000000000000CDCC4C3EE7
:1036C000CDCC4C3DCDCCCC3D000048430000484320
:1036D0000000C842000000000000000102030401D5
:1036E00002030406070809020406080000A24A04AF
:1036F00000000000000000000102030406070809A2
:083700000000000000000000C1
:0400000508000131BD
:00000001FF
