:020000040800F2
:10000000F00D0020450100088D100008230E0008A7
:10001000610E00082D0A0008AB2600080000000051
:10002000000000000000000000000000FD160008B5
:10003000310A000800000000DD140008E91700087C
:100040005F0100085F0100085F0100085F01000810
:100050005F0100085F0100085F0100085F01000800
:100060005F0100085F0100085F0100085F010008F0
:100070005F0100085F0100085F0100085F010008E0
:100080005F0100085F0100085F0100085F010008D0
:100090005F0100085F0100085F0100085F010008C0
:1000A0005F0100085F0100085F0100085F010008B0
:1000B0005F0100085F0100085F0100085F010008A0
:1000C0005F0100085F0100085F0100085F01000890
:1000D0005F010008DD2300085F010008A12400087B
:1000E0005F0100085F0100085F0100085F01000870
:1000F0005F0100085F0100085F0100085F01000860
:100100005F0100085F0100085F0100085F0100084F
:10011000F92100085F010008091B00085F010008C1
:100120005F0100085F0100085F0100085F0100082F
:10013000DFF80CD000F044FC00480047853200088E
:10014000F00D00200648804706480047FEE7FEE71E
:10015000FEE7FEE7FEE7FEE7FEE7FEE7FEE7FEE777
:100160006918000831010008F0B480EA0102D40FD8
:100170004200B2EB410F02D20246084611464A0045
:1001800042D0C30DDDB2C1F3C752AD1A202D35DA0E
:10019000C1F3160141F4000204B15242C5F1200638
:1001A00002FA06F12A411044B3EBD05F23D0C4B168
:1001B000012DA0EBC35009DCF0BC4FF0004202EA75
:1001C000C352DBB200F5000000F01EBB400000F19E
:1001D000807000EBC350A0F1807040EAD1704900FC
:1001E00009E0490841EAC071A0EBC35000F50000E6
:1001F000400800EBC350F0BC00F0FDBA61420122A0
:1002000002EB4101001BF6E7F0BC704781F00041B2
:10021000AAE780F00040A7E780EA010210B502F0EB
:100220000043400022D04A001FD0010E01EB1261B2
:10023000C0F35600C2F3560240F4000042F400023C
:10024000A0FB022000047F39140400D0401C50EAB7
:10025000124001D44000491EC2B20C0604EBD0107B
:10026000401C4008802A02D003E0002010BD20F08E
:100270000100002900DA0020184310BD30B480EAE4
:10028000010202F0004530F0004221F0004013D09E
:1002900090B1C30DD40DC2F31601C0F31600E41AD9
:1002A00041F4000140F400027D34914201D3641C0A
:1002B00000E04900002C02DA30BC002070474FF407
:1002C00000000023914201D3891A034340084FEAFA
:1002D0004101F7D151B1914202D14FF0004105E007
:1002E00002D24FF0010101E06FF0010103EBC450B5
:1002F000284430BC00F07FBA2DE9FE4F804681EAE9
:100300000300C00F0C46009021F0004123F000458F
:10031000B8EB0200A94105D24046214690461C4652
:100320000B46024623F00040104347D0270DC7F389
:100330000A00C3F30A510290401A019040286BDA78
:10034000C3F3130040F4801B0098924620B10023B1
:10035000D2EB030A63EB0B0B01985946C0F1400244
:10036000504600F017FA06460D4650465946019A87
:1003700000F02FFA10EB08006141002487EA1152C7
:1003800084EAE7731A4340D0009A62B3019A012AC3
:100390004FEA075215DC001B61EB02014FF00042EF
:1003A00002EA0752CDE90042001C41F580113246B5
:1003B0002B4600F066FA03B0BDE8F08F40462146B8
:1003C000F9E7001B61EB0201001C41F580130018E6
:1003D0005B412018A2F5001747EB030140EAD570F6
:1003E000B6196D4111E06D084FEA360645EAC07551
:1003F0004FEA0752001B61EB0201001C41F580111E
:1004000049084FEA30000019514132462B4603B0EB
:10041000BDE8F04F00F026BA00980122400000230A
:10042000D0EB020263EBE073009821464FEAE074E0
:10043000B8EB000061EB0401E9E783F000435BE700
:1004400081F0004158E72DE9FE4F81EA030404F0F2
:10045000004421F0004100944FF0000B23F00043D2
:1004600050EA01045ED052EA03045BD0C3F30A549D
:10047000C1F30A552C44A4F2F3340194A0FB0254B6
:10048000C1F3130141F48011C3F3130343F4801348
:1004900001FB024400FB034E840A970A44EA81549C
:1004A00047EA8357A4FB076802958D0A05FB078579
:1004B0004FEA932C04FB0C542705029D4FEA065883
:1004C00047EA1637B5EB08056EEB070C870E920E60
:1004D00047EA811742EA8312A7FB0201B6EB0B0140
:1004E00064EB00042B0D43EA0C335E1844EB1C5004
:1004F000DA465146E7FB0201C5F313044FEA0B331A
:1005000043EA14534FEA0432019C43EA0603A4F180
:100510000C040294009CCDE900B400F0B2F903B0E1
:10052000BDE8F08F00200146F9E72DE9F04D81EAA2
:10053000030404F0004B21F0004514464FF0000A7C
:1005400023F0004150EA050220D054EA01021DD0F8
:10055000C5F30A570246C5F31303C1F31300C1F3F1
:100560000A5640F4801543F48013A7EB0608101BCD
:10057000D64608F2FD3873EB050002D308F10108F6
:1005800001E092185B41B8F1000F03DA0020014648
:10059000BDE8F08D00204FF48011064684460EE041
:1005A000171B73EB050705D3121B63EB050306430B
:1005B0004CEA010C49084FEA300092185B4150EABE
:1005C0000107EDD152EA030012D082EA040083EA67
:1005D0000501084305D0101BAB4106D201220023C0
:1005E00006E000224FF0004302E06FF001025310DA
:1005F0001AEB06004CEB085110EB0A0041EB0B0123
:10060000BDE8F04D00F02EB9C10F80EAE07008445B
:10061000CA079623002100F0F7B80EB5C10F80EA93
:10062000E0700844CA07002140F233438DE80E0011
:100630000A460B4600F025F903B000BD00F0004269
:1006400020F00040C10DC0F3160040F400007F29E7
:1006500001DA00207047962903DCC1F19601C840F9
:1006600001E096398840002AF4D04042704770B5C6
:10067000C1F30A5201F000450024C1F3130140F216
:10068000FF3341F480119A4201DA002070BD40F23C
:1006900033439A42A2F2334203DC524200F089F81B
:1006A00000E090402C43F1D0404270BD00F0004289
:1006B00030F000400AD0C10D01F56071C0F31600A2
:1006C00042EA0151C2084007114370470020014629
:1006D0007047000030B5041E71F1000404DB4FF0D8
:1006E0000044404264EB0101141E73F1000405DB79
:1006F0001C464FF00043524263EB04038B4208BF99
:10070000824230BD30B5041E71F1000404DB4FF0AD
:100710000044404264EB0101141E73F1000405DB48
:100720001C464FF00043524263EB0403994208BF5A
:10073000904230BD01F0004330B421F0004150EA56
:10074000010206D00A0DA2F56072C1F31301002A5E
:1007500002DC30BC00207047440F44EAC104C100F1
:10076000E01830BC00EBC25000F045B8002801DBB7
:10077000C0F10040002901DBC1F100418142704716
:10078000002801DBC0F10040002901DBC1F100417C
:1007900088427047202A04DB203A00FA02F1002048
:1007A00070479140C2F1200320FA03F319439040AF
:1007B0007047202A04DB203A21FA02F0002170471A
:1007C00021FA02F3D040C2F12002914008431946B9
:1007D0007047202A06DBCB17203A41FA02F043EAA1
:1007E000E07306E041FA02F3D040C2F120029140EA
:1007F0000843194670470029A8BF7047401C4900AC
:1008000008BF20F00100704710B4B0FA80FC00FA75
:100810000CF050EA010404BF10BC704749B1CCF1A0
:10082000200421FA04F411FA0CF118BF012121432C
:100830000843A3EB0C01CB1D4FEA00614FEA1020E7
:1008400042BF002010BC704700EBC3501044002989
:10085000A4BF10BC7047401C490008BF20F0010035
:1008600010BC704710B5141E73F1000408DA401C68
:1008700041F1000192185B411A4301D120F00100BF
:1008800010BD2DE9F04D92469B4611B1B1FA81F2AF
:1008900002E0B0FA80F220329046FFF77BFF044678
:1008A0000F4640EA0A0041EA0B0153465A46084304
:1008B00013D0114653EA010019D0C8F14002504646
:1008C000FFF777FF05460E46504659464246FFF76A
:1008D00061FF084305D0012004E020463946BDE809
:1008E000F08D0020054346EAE0762C4337430A9812
:1008F0006305E40AA0EB08000022FD0A44EA47541D
:100900000A3002D500200146E9E7010510196941C6
:10091000DDE9084500196941BDE8F04DA2E72DE980
:10092000F04D00231A461B1A8A4103DB00200146C2
:10093000BDE8F08DC1F30A52C1F3130141F48015F3
:100940004FF0000BD10702D100186D41521E002755
:10095000044640F2FF11384601EB620A3E468046EB
:10096000024600204FF48011FFF723FFC2197141A6
:10097000BB1846EB0100B4EB030C75EB000C04D381
:10098000E41A65EB000517460E46241908F101002C
:100990006D4180463428E3DDF91946EB0600091B5A
:1009A000A84103D24FF0FF32134601E00022134664
:1009B0001BEB070046EB0A51BDE8F04DFFF752BFB5
:1009C000064C074D06E0E06840F0010394E807009C
:1009D00098471034AC42F6D3FFF7AEFBA83C0008B2
:1009E000C83C000870B521F0004303430CD0C1F3AC
:1009F0000A550024D5EB040564EB0403D617AD1AA1
:100A0000B34102DB0020014670BD201841EB0251CA
:100A100070BD0EB540F2334102910021CDE90011C5
:100A20000A460B46FFF72DFF03B000BD00BFFEE7EF
:100A3000704700002DE9F05F5748B0F900005749B2
:100A4000574A128831F92210461A5348B0F9021059
:100A50005248534A128800EB8200B0F902000C1A87
:100A600006FB06F104FB0410FFF7D7FD074602F072
:100A7000EDFE8246FFF7FBFD814601250021494836
:100A80000068FFF773FE00D2AD1EC820704390FBD4
:100A9000F9F73846FFF7B8FD43490860C8206043BE
:100AA00090FBF9F73846FFF7AFFD404908603D4835
:100AB0000068FFF7FBFD21F00041074600223C4B98
:100AC000FFF720FE08D20020374908603749086048
:100AD0003848394908605CE032480068FFF7E6FDB5
:100AE00021F0004107460022344BFFF70BFE14D2E1
:100AF00000202D4908602D490860C5EB05118800CC
:100B0000FFF782FD2C4908602D49362002F04EFC8B
:100B10002B490A2002F04AFC3BE022480068FFF71C
:100B2000C5FD21F0004107460022264BFFF7EAFDF4
:100B30000FD2C5EB05118800FFF766FD1E4908605E
:100B40001F49332002F032FC1D490A2002F02EFC1E
:100B50001FE014480068FFF7A9FD21F00041074697
:100B60004FF03332184BFFF7CDFD0FD205EB850167
:100B7000C800FFF749FD104908601149382002F00C
:100B800015FC0F490A2002F011FC02E000200A497E
:100B90000860BDE8F09F00001A000020E00300207C
:100BA0001800002020000020240000202800002041
:100BB000000004400000A0422C0000200000F03F94
:100BC000C00000200000E03F3333C33F0749086006
:100BD0004FF0E021096941F001014FF0E02211617D
:100BE00000BF024909680029FBD1704700000020BE
:100BF00000B587B0C320ADF8180004208DF81B00A5
:100C000003208DF81A0006A9334800F07BF8C020B5
:100C1000ADF8180004208DF81B0003208DF81A0091
:100C200006A92E4800F06EF80020ADF80C004FF633
:100C3000FF70ADF810000020ADF81200ADF80E0006
:100C400003A94FF0804001F03BFA03A9244801F0CA
:100C500037FA03A9234801F033FA00231A46032187
:100C60004FF0804001F00AF800231A4603211C4887
:100C700001F004F800231A4603211A4800F0FEFF91
:100C8000684601F083F80620ADF8080069464FF089
:100C9000804001F025F86946114801F021F86946C5
:100CA000104801F01DF800204FF0804188840C4965
:100CB000243108800B49243108800121880700F085
:100CC000C2FF0121064800F0BEFF0121054800F0E7
:100CD000BAFF07B000BD000000080140000C014051
:100CE000000400400008004000204FF0804188844C
:100CF000024908800249088070470000240400402F
:100D0000240800402DE9F04102460025002600207D
:100D100000230024002791F803C00CF00F0591F880
:100D200003C00CF0100CBCF1000F03D091F802C00E
:100D30004CEA050591F800C0BCF1000F31D01468F1
:100D400000202BE04FF0010C0CFA00F3B1F800C0CA
:100D50000CEA03069E4220D183004FF00F0C0CFAE0
:100D600003F7BC4305FA03FC4CEA040491F803C002
:100D7000BCF1280F06D14FF0010C0CFA00FCC2F8B0
:100D800014C00AE091F803C0BCF1480F05D14FF040
:100D9000010C0CFA00FCC2F810C0401C0828D1D38A
:100DA0001460B1F800C0BCF1FF0F34DD54680020BE
:100DB0002EE000F1080C4FF0010808FA0CF3B1F82E
:100DC00000C00CEA03069E4221D183004FF00F0CB5
:100DD0000CFA03F7BC4305FA03FC4CEA040491F84F
:100DE00003C0BCF1280F05D100F1080C08FA0CF87B
:100DF000C2F8148091F803C0BCF1480F07D100F18C
:100E0000080C4FF0010808FA0CF8C2F81080401CDA
:100E10000828CED35460BDE8F0814161704701617C
:100E2000704700BFFEE7000008B50C20ADF80000D9
:100E300010208DF8030003208DF802006946064853
:100E4000FFF760FF40F20330ADF800006946034849
:100E5000FFF758FF08BD000000080140000C0140EA
:100E600000BFFEE710B502F05FFAFFF73DFF02F0AA
:100E7000DDFAFFF7DFFD02F00FFD00F089F900F069
:100E8000E1F810BD2DE9FC4781468A460024B9F1FE
:100E9000640F01DD642406E019F1640F02DA6FF0DB
:100EA000630400E04C4644BBBAF1000F06D0BAF12F
:100EB000010F0CD0BAF1020F1DD111E004215B48E3
:100EC000FFF7ABFF08215948FFF7A7FF14E0012106
:100ED0005748FFF7A2FF02215548FFF79EFF0BE09E
:100EE0004FF480715248FFF798FF4FF4007150485B
:100EF000FFF793FF00E000BF96E0002C48DD20469E
:100F0000FFF78BFB07464B4A4B4BFFF79CFA054616
:100F100000224A4BFFF7F0F9CDE90001FFF7A7FBEC
:100F200004B2BAF1000F06D0BAF1010F10D0BAF135
:100F3000020F2BD11AE004213C48FFF76EFF082175
:100F40003A48FFF76CFF04EBC4003D4908801EE0FF
:100F500001213748FFF761FF02213548FFF75FFFA6
:100F600004EBC4003649091D088010E04FF480717D
:100F70002F48FFF752FF4FF400712D48FFF74FFF46
:100F800004EBC4002E490831088000E000BF4BE0AC
:100F90002046FFF742FB0546264A274BFFF753FA48
:100FA00007460022254BFFF748FACDE90001FFF77D
:100FB0005EFB04B2BAF1000F06D0BAF1010F11D0F6
:100FC000BAF1020F2ED11CE004211848FFF727FFC9
:100FD00008211648FFF721FF604200EBC0001849C6
:100FE000088020E001211248FFF719FF0221104874
:100FF000FFF713FF604200EBC0001149091D088094
:1010000011E04FF480710A48FFF709FF4FF40071B7
:101010000748FFF702FF604200EBC00008490831B3
:10102000088000E000BF00BFBDE8FC870008014069
:10103000000C0140CDCCCCCCCCCCDC3F0080464079
:101040003434014010B50E494868FFF7F7FA04B28E
:1010500000212046FFF716FF0A494868FFF7EEFA1D
:1010600004B201212046FFF70DFF07494868FFF74A
:10107000E5FA04B202212046FFF704FF10BD00008C
:1010800090080020A8080020C0080020704708B57C
:101090004FF4A06000F072F825208DF800000120C8
:1010A0008DF8030000208DF8010001208DF802006A
:1010B000684600F02BF827208DF8000001208DF8FD
:1010C000010000208DF8020001208DF80300684621
:1010D00000F01CF836208DF8000001208DF801008A
:1010E0008DF802008DF80300684600F00FF83420F8
:1010F0008DF8000000208DF801008DF8020001201D
:101100008DF80300684600F001F808BD70B50021B5
:1011100000230F22C47804B3154C246804F4E0645F
:10112000C4F5E064210AC1F10403CA40447804FA1A
:1011300003F184781440214309010E4C0678A1552F
:10114000047804F01F050124AC4005786D11AD0052
:1011500005F1E025C5F8004109E0047804F01F0519
:101160000124AC40044D0678761145F8264070BD48
:101170000CED00E000E400E080E100E00249014302
:10118000024A1160704700000000FA050CED00E013
:101190002DE9F0470124C6480068C6490860C64AE0
:1011A0001168C44A1068FFF731F8C249C860C348E3
:1011B0000068FFF77BFA05460E46BE49C868FFF790
:1011C00075FA21F0004107462A463346FFF782FAB6
:1011D00000D20024B7494869B9490968FFF7C6FA3F
:1011E00006D2B4494869B7490968FFF7C9FA19D363
:1011F000B0494869B2490968FFF7C2FA05D2AD495A
:10120000C8680021FFF7B2FA0CD3AA494869AD4972
:101210000968FFF7ABFA0CD2A649C8680021FFF7AE
:10122000AFFA06D2A34AD1685069FEF79DFFA149E3
:101230004861A04A1169D068FEF7E8FF0746A24856
:1012400001683846FEF7E8FF05462046FFF7DCF95F
:1012500082469E4801685046FEF7DEFF814695486B
:1012600041694846FEF7D8FF07469248C16898484A
:101270000068FEF7D1FF81468D4801684846FEF7B9
:1012800073FF80463946FEF76FFF06462946FEF794
:101290006BFF884948600846C0680861012484489B
:1012A00040688C490860844A51688A4A1068FEF791
:1012B000ADFF8849C86081480068FFF7F7F9054627
:1012C0000E468449C868FFF7F1F921F0004107464E
:1012D0002A463346FFF7FEF900D200247D494869CB
:1012E00077490968FFF742FA06D27A494869754991
:1012F0000968FFF745FA19D37649486970490968C2
:10130000FFF73EFA05D27349C8680021FFF72EFAAD
:101310000CD3704948696B490968FFF727FA0CD26A
:101320006C49C8680021FFF72BFA06D2694AD168D8
:101330005069FEF719FF67494861664A1169D0682C
:10134000FEF764FF0746604801683846FEF764FF11
:1013500005462046FFF758F982465C48016850462A
:10136000FEF75AFF81465B4841694846FEF754FF45
:1013700007465848C16856480068FEF74DFF814649
:101380004B4841684846FEF7EFFE80463946FEF777
:10139000EBFE06462946FEF7E7FE4E494860084642
:1013A000C06808610124424880684B490860424A8D
:1013B0009168494A1068FEF729FF4749C8603F48CD
:1013C0000068FFF773F905460E464349C868FFF702
:1013D0006DF921F0004107462A463346FFF77AF9B6
:1013E00000D200243C49486935490968FFF7BEF935
:1013F00006D23949486933490968FFF7C1F919D359
:10140000354948692E490968FFF7BAF905D23249CA
:10141000C8680021FFF7AAF90CD32F494869294968
:101420000968FFF7A3F90CD22B49C8680021FFF720
:10143000A7F906D2284AD1685069FEF795FE2649D9
:101440004861254A1169D068FEF7E0FE07461E484C
:1014500001683846FEF7E0FE05462046FFF7D4F85F
:1014600082461A4801685046FEF7D6FE81461A4861
:1014700041694846FEF7D0FE07461748C168144840
:101480000068FEF7C9FE8146094881684846FEF7B4
:101490006BFE80463946FEF767FE06462946FEF794
:1014A00063FE0D4948600846C0680861BDE8F087E2
:1014B000D403002090080020C8030020440000202E
:1014C0003C000020400000203800002034000020B4
:1014D00030000020A8080020C0080020704700004D
:1014E00036490A780978491C344B197034498854B4
:1014F0000978552903D000211A46117070472F49E9
:1015000009780B2900DAF9E72D494978503909297A
:101510004ED2DFE801F0050D151D252D353D4500A6
:101520002849274A921C13680B6052684A603FE0C2
:101530002549234A921C13680B6052684A6037E0C1
:1015400022491F4A921C13680B6052684A602FE0C0
:101550001F491B4A921C13680B6052684A6027E0BF
:101560001C49174A921C13680B6052684A601FE0BE
:101570001949134A921C13680B6052684A6017E0BD
:1015800016490F4A921C13680B6052684A600FE0BC
:1015900013490B4A921C13680B6052684A6007E0BB
:1015A0001049074A921C13680B6052684A6000BFDA
:1015B00000BF0021014A117000BF9FE79400002086
:1015C000F20800204C000020540000205C000020A5
:1015D000640000206C000020740000207C000020CB
:1015E000840000208C00002029B1064AD269024301
:1015F000044BDA6104E0034AD2698243014BDA61A9
:10160000704700000010024029B1064A9269024367
:10161000044B9A6104E0034A92698243014B9A6148
:10162000704700000010024030B500210022002465
:1016300000232D4D6D6805F00C0121B1042905D062
:10164000082923D105E0294D056022E0274D0560DA
:101650001FE0254D6D6805F47012234D6D6805F48B
:101660008034022505EB92421CB9214D554305609B
:101670000BE01D4D6D6805F400351DB11C4D554343
:10168000056002E0194D5543056002E0174D056005
:1016900000BF00BF144D6D6805F0F0010909154D3C
:1016A0006B5C0568DD4045600F4D6D6805F4E061D9
:1016B000090A104D6B5C4568DD4085600A4D6D6818
:1016C00005F46051C90A0B4D6B5C4568DD40C5608F
:1016D000054D6D6805F44041890B074D6B5CC5688D
:1016E000B5FBF3F5056130BD0010024000127A0031
:1016F00000093D0095000020A5000020704710B5AE
:1017000000F002F810BD00000CB500200190009020
:101710003348006840F480303149086000BF3048E9
:10172000006800F4003000900198401C019000987F
:1017300018B90198B0F5A06FF1D12948006800F4FC
:10174000003010B10120009001E0002000900098CE
:10175000012843D12348006840F010002149086067
:101760000846006820F0030008600846006840F062
:10177000020008601A4840681949486008464068F5
:1017800048600846406840F4806048600846406809
:1017900020F47C1048600846406840F4E810486037
:1017A0000846006840F08070086000BF0C48006880
:1017B00000F000700028F9D00948406820F00300CC
:1017C000074948600846406840F00200486000BF92
:1017D0000348406800F00C000828F9D10CBD000057
:1017E000001002400020024010B500F0BBFC10BD0C
:1017F00030B519480068194AB0FBF2F1481EB0F143
:10180000807F01D301201BE0481E4FF0E022506191
:1018100050170F22002807DA13071D0E104B00F097
:101820000F04241F1D5503E013071C0E0D4B1C5401
:1018300000BF00204FF0E0229061072010610020DF
:1018400008B100BFFEE74FF0E020006920F0010082
:101850004FF0E021086130BDAC000020A0860100FF
:1018600018ED00E000E400E010B51348006840F017
:1018700001001149086008464068104908400E49B7
:101880004860084600680E4908400B490860084651
:10189000006820F4802008600846406820F4FE00BC
:1018A00048604FF41F008860FFF729FF4FF0006089
:1018B0000449086010BD0000001002400000FFF85D
:1018C000FFFFF6FE08ED00E0F0B50C4615460022DD
:1018D0000021068C4FF6FE773E400684028B018C79
:1018E0004FF60C7632407E1C06EA03162E43324336
:1018F000104EB0420ED0104EB0420BD0B0F1804F1F
:1019000008D00E4EB04205D00D4EB04202D00D4E62
:10191000B04206D14FF6FD76314044F00106314326
:1019200005E04FF6F576314044F00106314302837D
:101930000184F0BD002C014000340140000400404F
:1019400000080040000C0040F0B50C46154600228F
:1019500000210026078C4FF6EF7C07EA0C0707846E
:10196000028B018C4FF6FF7707EA041640F6FF471B
:101970003A404FF6FF7707EA03373A434FF6FF77CF
:1019800007EA05273A43114FB8420ED0104FB8422C
:101990000BD0B0F1804F08D00E4FB84205D00E4F9B
:1019A000B84202D00D4FB84206D14FF6DF7739402A
:1019B00046F01007394305E04FF65F77394044F0B1
:1019C0001007394302830184F0BD0000002C014060
:1019D000003401400004004000080040000C0040BA
:1019E000F0B50C461546002200210026078C4FF664
:1019F000FF6C07EA0C070784828B018C4FF6FF7798
:101A000007EA04264FF60C773A404FF6FF7707EACD
:101A100003172F433A43114FB8420ED0104FB8422C
:101A20000BD0B0F1804F08D00E4FB84205D00E4F0A
:101A3000B84202D00D4FB84206D14FF6FF57394099
:101A400046F48077394305E04FF2FF57394044F4BC
:101A50008077394382830184F0BD0000002C01406F
:101A6000003401400004004000080040000C004029
:101A7000F0B50C461546002200210026078C4EF6D4
:101A8000FF7C07EA0C070784828B018C4FF6FF77F7
:101A900007EA043640F6FF473A404FF6FF7707EA79
:101AA00005273A434FF6FF7707EA03373A43114FCA
:101AB000B8420ED0104FB8420BD0B0F1804F08D0D2
:101AC0000E4FB84205D00E4FB84202D00D4FB8426B
:101AD00006D14DF6FF77394046F48057394305E08B
:101AE00047F6FF57394044F48057394382830184D5
:101AF000F0BD0000002C0140003401400004004013
:101B000000080040000C004070B501210E4800F0B4
:101B1000D6F8B8B101210C4800F092F80B49B1F9A0
:101B20000400FEF771FD80F000454FF08E4128461D
:101B3000FEF7A4FB04460649FEF76EFB0549086064
:101B4000FFF790F970BD0000001000406400002015
:101B5000DB0F4940140000200EB540F60F60ADF8D1
:101B600000004FF4FA70ADF804000020ADF8060054
:101B7000ADF802006946064800F0A2FA01221146BB
:101B8000034800F00CF90121014800F05CF80EBD9B
:101B90000010004000B589B04FF4E070ADF82000AF
:101BA00018208DF8230003208DF8220008A9224870
:101BB000FFF7A8F84FF46170ADF818000020ADF8F9
:101BC0001400ADF81A00ADF8160005A91B4800F086
:101BD00077FA6020ADF804000120ADF8060000207F
:101BE000ADF80C0001A9154800F0E2F808211348EF
:101BF00000F02AF901A9114800F030F908210F4836
:101C000000F07EF901A90D4800F088F908210B4881
:101C100000F0D4F901A9094800F0DAF908210748D1
:101C200000F014FA0121054800F00DF801210348E5
:101C300000F015F809B000BD00100140003401406B
:101C4000CA430282704721B1028842F00102028039
:101C500004E002884FF6FE731A400280704731B1EB
:101C6000B0F8442042F40042A0F8442005E0B0F867
:101C70004420C2F30E02A0F844207047F0B50C4691
:101C800015461E460021002200230189028B038C89
:101C90004FF6F877394021434FF6FC473A4040F27F
:101CA00001173A434FF6DD773B404FF6FF7707EADF
:101CB00006172F433B43018102830384F0BD30B5F7
:101CC0000246002000230024158A05EA01039589B5
:101CD00005EA010413B10CB1012000E0002030BD81
:101CE00070B505460C46244885420ED023488542EF
:101CF0000BD0B5F1804F08D02148854205D021484E
:101D0000854202D02048854200D100E000BF2088F3
:101D100050B92389A28861882846FFF7D5FDE1885C
:101D2000284600F0A0F925E0208804280AD123895C
:101D3000A28861882846FFF707FEE188284600F060
:101D40009BF917E0208808280AD12389A288618896
:101D50002846FFF745FEE188284600F09AF909E099
:101D60002389A28861882846FFF782FEE1882846F9
:101D700000F098F970BD0000002C014000340140D3
:101D80000004004000080040000C004000210180D9
:101D90004180012181800021C180018170471AB1F9
:101DA00083890B43838102E083898B43838170475E
:101DB00070B5002400220023058C4FF6FE763540D6
:101DC0000584028C8388048B4FF68F752C40B51EDA
:101DD0002C400D882C43751E2A400D892A434D88BE
:101DE0002A43144DA8420BD0134DA84208D0134DDE
:101DF000A84205D0124DA84202D0124DA84213D1DC
:101E00004FF6F7752A404D892A434FF6FB752A4055
:101E10008D882A434FF6FF652B404FF6FF552B4028
:101E20008D892B43CD892B4383800483CD88858680
:101E3000028470BD002C014000340140004001408C
:101E400000440140004801400A460021018B4FF642
:101E5000F7731940114301837047000070B50024E7
:101E600000220023058C4FF6EF7635400584028C66
:101E70008388048B48F6FF752C404FF6FF452C40B5
:101E80000D884FF6FF7606EA05252C434FF6DF75E1
:101E90002A400D8906EA05152A434D8806EA0515EC
:101EA0002A43154DA84202D0144DA8421DD14FF629
:101EB0007F752A404D894FF6FF7606EA05152A43BD
:101EC0004FF6BF752A408D8806EA05152A434FF65E
:101ED000FF352B404FF2FF752B408D8906EA8505B3
:101EE0002B43CD8906EA85052B4383800483CD8867
:101EF0000587028470BD0000002C014000340140C1
:101F00000A460021018B4FF2FF7319404FF6FF7311
:101F100003EA0223194301837047000070B50024CF
:101F200000220023058C4FF6FF6635400584028CA5
:101F30008388848B4FF68F752C404FF6FC752C40B0
:101F40000D882C434FF6FF552A400D894FF6FF763A
:101F500006EA05252A434D8806EA05252A43154D3C
:101F6000A84202D0144DA8421DD14FF2FF752A405D
:101F70004D894FF6FF7606EA05252A434FF6FF35D1
:101F80002A408D8806EA05252A434EF6FF752B4028
:101F90004DF6FF752B408D8906EA05152B43CD893B
:101FA00006EA05152B4383808483CD8885870284C8
:101FB00070BD0000002C0140003401400A460021A1
:101FC000818B4FF6F77319401143818370470000EE
:101FD00070B5002200230024058C4EF6FF763540B4
:101FE0000584038C8488828B48F6FF752A404FF65F
:101FF000FF452A400D884FF6FF7606EA05252A435D
:102000004DF6FF752B400D8906EA05352B434D88AB
:1020100006EA05352B430B4DA84202D00A4DA842D3
:1020200008D14BF6FF752C408D894FF6FF7606EAF6
:1020300085152C4384808283CD88A0F8405003848A
:1020400070BD0000002C0140003401400A46002110
:10205000818B4FF2FF7319404FF6FF7303EA02239F
:10206000194381837047028B4FF6F3731A40028342
:10207000028B0A4302837047028B4FF2FF331A40F0
:102080000283028B4FF6FF7303EA01231A43028394
:102090007047828B4FF6F3731A408283828B0A4318
:1020A00082837047828B4FF2FF331A408283828B88
:1020B0004FF6FF7303EA01231A438283704700003F
:1020C000002202881D4B98420ED01D4B98420BD027
:1020D000B0F1804F08D01B4B984205D01A4B984264
:1020E00002D01A4B984204D14FF68F731A404B8896
:1020F0001A43174B984207D0164B984204D04FF61C
:10210000FF431A40CB881A4302808B8883850B8853
:1021100003850A4B98420BD0094B984208D00E4BCE
:10212000984205D00D4B984202D00D4B984201D1F8
:102130000B7A03860123838270470000002C014044
:10214000003401400004004000080040000C004042
:1021500000100040001400400040014000440140D5
:10216000004801400448006820B103480068401E50
:1021700001490860704700000000002000B585B0EC
:1021800018208DF813004FF48060ADF81000032084
:102190008DF8120004A91648FEF7B4FD04208DF84E
:1021A00013004002ADF8100004A91148FEF7AAFD83
:1021B0004FF4E13000900C20ADF80A000020ADF89B
:1021C0000800ADF80600ADF80400ADF80C00694653
:1021D000084800F0F5F9012240F22551054800F0C9
:1021E000C9F90121034800F082F905B000BD0000E3
:1021F00000100140004C00401CB540F225515448ED
:1022000000F08EF9A8B140F22551514800F060F974
:102210004F4800F041FAC4B24E480068FF2807D08A
:102220004C4801680068401C4A4A10604A484454BF
:1022300000BF4848006820287ED147480078FC2825
:102240007BDB4548807F0D287ED14348C07F0A282C
:102250007AD14148C079002876DD3F48007800F007
:1022600002003E49C8713C48007800F001008871C6
:102270003948007800F0010008723748407880093A
:102280004872354880783449497801F03F0140EA86
:102290000120324908803048C07848822E48407971
:1022A0002D49097940EA012001B22C4881822A484F
:1022B00080792A49C8822848007A2749C97940EAA2
:1022C000012001B2254801832348407A2349C8816F
:1022D0002148C07A2049897A40EA012001B21F488A
:1022E00001821D48407B1C49097B40EA01201B49B3
:1022F00048801948C07B1849897B40EA012017496A
:1023000088801548007C88721348407CC872124847
:10231000807C08731048C07C48730846408AADF83A
:1023200000000846808AADF802000846C089ADF872
:1023300004000846008A01E009E005E0ADF8060067
:10234000DDE9000100F000FD0020024908601CBD2D
:10235000004C004008000020C7010020D8080020E1
:1023600000B585B018208DF813004FF40070ADF85B
:10237000100003208DF8120004A91648FEF7C2FCD5
:1023800004208DF813000002ADF8100004A91148D4
:10239000FEF7B8FC4FF4165000900C20ADF80A0080
:1023A0000020ADF80800ADF80600ADF80400ADF867
:1023B0000C006946084800F003F9012240F225515B
:1023C000054800F0D7F80121034800F090F805B067
:1023D00000BD0000000801400038014010B540F287
:1023E00025510D4800F09CF8A8B140F225510A484B
:1023F00000F06EF8084800F04FF9C4B207480068D2
:10240000FF2807D0054801680068401C034A106097
:102410000348445400BF10BD0038014008000020AC
:10242000C701002000B585B018208DF813004FF4C7
:102430008060ADF8100003208DF8120004A9164842
:10244000FEF760FC04208DF813004002ADF8100088
:1024500004A91148FEF756FC4FF4E13000900C201F
:10246000ADF80A000020ADF80800ADF80600ADF8A0
:102470000400ADF80C006946084800F0A1F80122FC
:1024800040F22551054800F075F80121034800F09D
:102490002EF805B000BD0000000C014000480040CF
:1024A00010B540F22551094800F03AF860B140F209
:1024B0002551064800F00CF8044800F0EDF8C4B2CD
:1024C0002046FFF70DF800BF10BD00000048004097
:1024D00010B50022002340F66A14A14200D100BFCB
:1024E0000A1201249440A3B2DC43048010BD21B140
:1024F000828942F40052828104E082894DF6FF73A2
:102500001A408281704702460020B1F5007F00D159
:1025100000BF13880B400BB1012000E00020704782
:1025200070B50246002400230025002040F66A16FC
:10253000B14200D100BFC1F3421501F01F030126D3
:1025400006FA03F3012D02D19689334006E0022DED
:1025500002D1168A334001E0968A33400C120126DC
:1025600006FA04F41688344013B10CB1012000E0DF
:10257000002070BDF0B50346002400260025002091
:1025800040F66A17B94200D100BF1846C1F34214A1
:1025900001F01F06012707FA06F5012C01D10C30C6
:1025A00004E0022C01D1103000E014301AB10768A9
:1025B0002F43076002E00768AF430760F0BD0000EB
:1025C0002DE9F04786B005460E460024A24600BF1E
:1025D000A1460027B08900B100BF2F462C8A4CF6D7
:1025E000FF700440F08804432C82AC894EF6F3104F
:1025F0000440B08831890843718908430443AC81A1
:10260000AC8A4FF6FF400440B0890443AC8201A875
:10261000FFF70AF81F48874202D1DDF810A001E059
:10262000DDF80CA0A88900F4004040B10AEBCA0014
:1026300000EB0A1031684900B0FBF1F807E00AEB43
:10264000CA0000EB0A1031688900B0FBF1F8642081
:10265000B8FBF0F004012009642101FB1089A8896E
:1026600000F4004040B1322000EBC900B0FBF1F0B3
:1026700000F00700044308E0322000EB0910642159
:10268000B0FBF1F000F00F0004432C8106B0BDE870
:10269000F08700000038014001468888C0F3080038
:1026A0007047C1F308028280704700BFFEE749000F
:1026B00050EAC12018BF04204A0D18BF40F00100A5
:1026C00040F2FF72B2EB515F08BF40F002000128F8
:1026D00008BF0520704700002DE9F74F144694B05D
:1026E0000021C4E902111599079121F00045C9495B
:1026F0008D4206DC1599C4E9000117B00020BDE841
:10270000F08FC549DFF814A3A9423CDD0799C44EF8
:102710000029C44FC44A1599534619DDFDF78DFEB3
:10272000554506D0C14AC24BFDF787FEC4E90001FA
:102730000AE04FF0D352BE4BFDF77FFE32463B46D8
:10274000FDF77BFEC4E9000117B00120BDE8F08F62
:10275000FDF7D2FD554506D0B44AB54BFDF7CCFD8B
:10276000C4E900010AE04FF0D352B14BFDF7C4FDBC
:1027700032463B46FDF7C0FDC4E9000117B04FF0FB
:10278000FF30BDE8F08FAB49A942159978DB21F005
:10279000004183468846A84AA84BFDF754FE002214
:1027A000A74BFDF7A9FDFDF762FF0990FDF735FF87
:1027B00006460F469C4A5346FDF745FE43465A4699
:1027C000FDF73EFE80468A46984A994B3046394688
:1027D000FDF739FE2A0D01250B9242465346FDF7BF
:1027E0002FFE032DC4E9000139D00B98C1F30A5123
:1027F000401A05EB45111139814230DA9148C34640
:10280000784400EB0510CDF80CA00C90D0E9002323
:1028100030463946FDF717FE02460B4604910690F6
:1028200058460399FDF709FE80468A4602460B4644
:1028300058460399FDF701FE049B069AFDF7FDFD3E
:1028400083460C9803913946D0E902233046FDF7C0
:10285000FAFD5A46039BFDF7F0FD6D1CBDE7079896
:102860000028A2BF099817B0BDE8F08F616881F019
:1028700000416160099817B04042BDE8F08FFFE762
:1028800084461598C1F31301C0F30A50A0F2F53045
:102890004FEA601800F01F06C6F1200013900020D8
:1028A0000690079041F4801E05206D4676B1664A79
:1028B00008EB00017A4452F8213002EB8101B34069
:1028C0004A68139922FA01F1194305E05F4908EBC0
:1028D0000002794451F82210A1FB0E27A1FB0C1332
:1028E0001A449A4234BF0123002303EB070A05EB85
:1028F0008003D3E901B70F448F4234BF0121002187
:1029000093448B4411B1934502D903E0934501D21E
:10291000012100E00021C3E901B7514445F820102E
:10292000011EA0F10100C1DC0298059F00F10050DA
:10293000800F12900298DDE903568000FDF76DFECE
:10294000834628460D91FEF764F86FF01D02FEF7EE
:1029500049F8CDE90E013046FEF75BF86FF03D0215
:10296000FEF740F880468A463846FEF752F86FF088
:102970005D02FEF737F80746424653461191FDF7D0
:10298000BBFCDDE90E23FDF7B7FC5A460D9BFDF7B6
:10299000B3FC00250E465A4628460D9BFDF74DFD1B
:1029A000DDE90E23FDF749FD42465346FDF745FD9F
:1029B0003A46119BFDF744FDDFF898A0244A5346A0
:1029C000FDF741FD07468846234A244B31462846F9
:1029D000FDF739FD3A464346FDF78EFC074688462B
:1029E0004FF0A842534631462846FDF72CFD3A46A3
:1029F0004346FDF781FC159A12F0004F04D0129A5D
:102A000081F0004152421292C4E90001129817B0BD
:102A1000BDE8F08FFB21E93F7CD90240FB21F93F63
:102A20007370032E8A19A33B000040543163621A6D
:102A300061B4D03DFB21394183C8C96D305FE43FAB
:102A40000000E03FB4130000301300001213000038
:102A5000182D4454FB21F93D3326A611460B113C99
:102A60002DE9FF4D21F0004807460C46B8F1795F8B
:102A700008DAFDF7FCFD002801BF0020324904B050
:102A8000BDE8F08D3A46234610461946FDF7DBFCBB
:102A9000054602462D480E460B460621784400F0B6
:102AA0005DF82A463346FDF7CEFCDDE90223824677
:102AB0008B4638462146FDF7C6FC04460F46524673
:102AC0005B4628463146FDF7BEFC22463B46FDF7F5
:102AD000B4FC07468A464FF0FF3228463146FDF7E0
:102AE00081FF1B4A90450ADA3A465346FDF7A5FC9A
:102AF00004B00022BDE8F04D134BFDF7A1BC154A10
:102B00004245A8BFA8F500154FF00004B8BF124D0C
:102B100022462B46FDF791FC0646884622462B4668
:102B200000200949FDF789FC04460D463A46534604
:102B300030464146FDF781FC04B022462B46BDE8F5
:102B4000F04DFDF77DBC00000000F03FE0100000FC
:102B50003333D33F0000E93F0000D23F2DE9F0417D
:102B60004F1E00EBC7010446D1E9000115461E4681
:102B700037F006020DD02A463346FDF764FC7F1E6F
:102B800004EBC703D3E90023FDF7B6FB37F00602D9
:102B9000F1D1022F25D0042F13D0062F18BFBDE886
:102BA000F0812A463346FDF74EFCD4E90A23FDF7AF
:102BB000A3FB2A463346FDF746FCD4E90823FDF77C
:102BC0009BFB2A463346FDF73EFCD4E90623FDF77E
:102BD00093FB2A463346FDF736FCD4E90423FDF780
:102BE0008BFB2A463346FDF72EFCD4E90223FDF782
:102BF00083FB2A463346FDF726FCD4E90023BDE8D3
:102C0000F041FDF779BB00002DE9FF4D054621F0AD
:102C1000004084B00C46B0F1795F0BDA2846FFF72C
:102C200046FD042808BF00F071F8284608B0214688
:102C3000BDE8F08D2A460B461046FDF704FC06461B
:102C40000F462A462346FDF7FEFB804626488A4665
:102C500032463B4605217844FFF780FF83461098B3
:102C6000029160B3214A224B40465146FDF7EBFBEF
:102C7000CDE900015A4640465146029BFDF7E3FB71
:102C800082468846DDE906014FF0FF32FDF7AAFED5
:102C900052464346FDF7D1FB32463B46FDF7D3FB98
:102CA000DDE90623FDF7C9FBDDE90023FDF7C5FBE0
:102CB00008B02A462346BDE8F04DFDF7C1BB0B46E0
:102CC0005A4630463946FDF7BEFB084A084BFDF729
:102CD00013FB42465346FDF7B6FB08B02A4623468F
:102CE000BDE8F04DFDF708BB2610000049555555CD
:102CF0005555C5BF0122FDF775BEFDF7FDBA00228F
:102D0000134610461146FDF710BC0000024A002091
:102D10001107FDF767BE000001FDFFFF02E008C8D4
:102D2000121F08C1002AFAD170477047002001E045
:102D300001C1121F002AFBD1704700000149086041
:102D400070470000C400002003B512480088401CF2
:102D50001049088008460088642190FBF1F201FBCD
:102D600012000C4908800C490A4A128801EB8200C3
:102D7000BDF800100180BDF8021041800749054AE6
:102D8000128801EB8200BDF804100180BDF8061026
:102D900041800CBD18000020E003002070050020D9
:102DA0002DE9F84F04460D4621F00040009173498B
:102DB000814211DC7249884201DC06D12CB12046E7
:102DC0002946BDE8F84FFFF795BF6E48002DCCBFF0
:102DD0006D496E49BDE8F88F6D49814211DD6D493D
:102DE0008142D8BF4FF0FF366DDD20462946FFF700
:102DF0005EFC042808BFFFF789FF20462946BDE88E
:102E0000F88F6549654F25F00045814233DD6449FF
:102E1000814219DD002632464FF080432046294684
:102E2000FDF76AFA80468A46012220462946FDF7C8
:102E3000D9FD00223B46FDF700FB42465346FDF715
:102E400074FB04460D463EE001260022BA463B468E
:102E500020462946FDF750FA80460F460022534689
:102E600020462946FDF7E9FA42463B46FDF75DFB61
:102E700004460D4627E04B4981421BDDDFF828A1BF
:102E800002260022534620462946FDF7DCFA00229E
:102E90003B46FDF731FA80460F4600225346204656
:102EA0002946FDF7CAFA42463B46FDF73EFB04467B
:102EB0000D4608E0032622462B4600203B49FDF73D
:102EC00034FB04460D4622462B4610461946FDF7B4
:102ED000BAFA8B46824602460B46FDF7B4FA07461D
:102EE0000246334888460B4606217844FFF736FEF3
:102EF00052465B46FDF7A7FA82462E488B463A4675
:102F0000434605217844FFF729FE3A464346FDF73C
:102F10009AFA02460B46002E504659460CDAFDF747
:102F2000EBF922462B46FDF78EFA01B022462B46DE
:102F3000BDE8F04FFDF784BAFDF7DEF922462B46D7
:102F4000FDF781FA1C4A7A4402EBC603D3E9002359
:102F5000FDF773FA22462B46FDF76FFA174A7A44BB
:102F600002EBC603D3E90023FDF76AFA009A002AB0
:102F7000B8BF81F00041BDE8F88F000000001044A8
:102F80000000F07F182D4454FB21F93FFB21F9BFCD
:102F90000000DC3F0000203E0000F33F0000F03F57
:102FA0000000E63F008003400000F83F0000F0BF53
:102FB000620C0000200C0000BE0B0000860B00001D
:102FC0002DE9F04D9446CCF1000423F000464CEA84
:102FD0000404524F46EAD4749A46884621F00042CF
:102FE000BC4206D8454240EA050442EAD474BC42D9
:102FF00004D9BDE8F04D6246FFF77FBEAAF1405507
:10300000A5F17F6555EA0C040BD0022404EAAA74EA
:10301000434DDFF810E144EAD87452EA000B04D0C3
:103020000CE0BDE8F04DFFF7BBBE002C14BF012C37
:10303000BDE8F08D022C30D0032C32D056EA0C0BB8
:103040000AD0BE4220D1BA4209D126F0804622F0F1
:1030500080423346114617E000291ADB25E0DFF8ED
:10306000C8B0FB44002C04BFDBE90001BDE8F08DD3
:10307000012C02BFDBE9000181F00041BDE8F08DC9
:10308000022C0AD0032C0CD0BA4212D1B8F1000F96
:103090000BDA23482549BDE8F08D28462449BDE8D0
:1030A000F08D28467146BDE8F08D1D482149BDE8E8
:1030B000F08D921B12153C2AC4BF19481D490EDC25
:1030C000BAF1000FBEBF12F13C0F0020014606DB33
:1030D0006246FDF72AFA21F00041FFF761FE002C5D
:1030E00008BFBDE8F08D012C04BF81F00041BDE8B0
:1030F000F08D114A114B022C07D0FDF79EF92A469C
:10310000BDE8F04D0A4BFDF798B9FDF796F92A4650
:10311000BDE8F04D064BFDF793B900000000F07FCD
:10312000182D4454FB2109C04A0B0000FB21F9BFB4
:10313000FB210940FB21F93F075C143326A6A13C83
:1031400010B5044604E00B492046FDF75FF804463D
:1031500009492046FDF714FBF5D304E00549204654
:10316000FDF702F8044605492046FDF7FFFAF5D3BE
:10317000204610BDDB0FC940DB0F4940DB0F49C0C3
:1031800000B5244B21F0004287B09A42DCBF0022F8
:10319000134629DD204B9A4208D140B94FF0010077
:1031A000FFF7CCFDFFF7ABFD07B000BD03DBFFF77A
:1031B000A1FD07B000BD02AAFFF78EFA10F00301CF
:1031C00004BF0DF1080C9CE80F000DD0012001296F
:1031D0000ED0022914D00DF1080C00909CE80F00CD
:1031E000FFF712FD07B000BDFFF73AFC07B000BDC6
:1031F0000DF1080C00909CE80F00FFF705FD05E0BD
:103200000DF1080C9CE80F00FFF72AFC07B081F0D5
:10321000004100BDFB21E93F0000F07F70B504468E
:103220000D46E1B20548FFF73CFA00BF40210348D4
:10323000FFF769F90128F9D1204670BD0038014037
:103240002DE9F341BDF90010BDF90420891A494365
:10325000BDF90220BDF90630D21ABDF90230BDF920
:1032600006609B1B02FB0310FDF7D7F904460D46D1
:103270002046294600F0EAFA0646FDF75BFABDE86B
:10328000FC81000001211720FEF7AEF9012144F274
:103290000500FEF7B9F901214803FEF7B5F9012150
:1032A0001C20FEF7B1F901214FF44020FEF79CF9F4
:1032B0006920144908800020488001201249887143
:1032C000FEF768FCFEF794FAFFF74AF80FA000F04B
:1032D0006FF8FFF7A7F81048FDF778FC0FA000F093
:1032E00067F8FDF7A1FDFDF783FCFEF735FCFEF75F
:1032F00045FFFDF7CCFE03E042F21070FDF766FCDF
:10330000FAE7000010000020D80800204265676935
:103310006E2053657475700020A10700456E64200F
:1033200053657475700000002DE9F0414FF0804145
:10333000898C09B24842FDF770F906460022154B08
:10334000FDF7F3F80446FDF7F5F9134988601349D2
:10335000098809B24842FDF760F9064600220D4B84
:10336000FDF7E3F80446FDF7E5F90D4988600D49DE
:10337000098809B24842FDF750F906460022054B7C
:10338000FDF7D3F80446FDF7D5F907498860BDE895
:10339000F08100000000F43F900800202404004069
:1033A000A808002024080040C0080020FFF736BF0E
:1033B00010B5044601E0FFF731FF14F8010B044992
:1033C0000028F8D1BDE810400A20FFF727BF000011
:1033D000C00000202DE9F34383B0BDF91200BDF910
:1033E0000E10401A0290BDF91000BDF90C10401AE1
:1033F0000190029820B9019810B9002001460CE014
:103400000198FDF70AF906460F460298FDF705F9FF
:10341000804632463B46FFF7D3FD0446FDF78AF966
:103420000090009805B0BDE8F08300002DE9F04F52
:103430008BB0D248D249098800EB81073888ADF8B3
:1034400024007888ADF82600CE48CD49098800EBE5
:1034500081042088ADF828006088ADF82A00DDE9F5
:103460000901FFF7EDFE8046FDF720F905460E46FF
:10347000C548C349098800EB81073888ADF82400A6
:103480007888ADF82600BF48BD49098800EB810463
:103490002088ADF828006088ADF82A00DDE9090130
:1034A000FFF7CEFE8046B748B549098830F82100BD
:1034B000B6490880B348B249098800EB81004088CA
:1034C000B2494880B248807998BB084640880C3899
:1034D00000B248800846B0F902000C2801DA0C203E
:1034E0004880A648A649098800EB81042088ADF8E9
:1034F00024006088ADF82600A4480088ADF82800B4
:10350000A2484088ADF82A00DDE90901FFF762FF13
:103510000746A04801683846FCF778FE9E490860D7
:103520009E494420FFF742FF9C490A20FFF73EFFD7
:103530001CE1FFE700229A4B28463146FDF7E2F8EE
:1035400036D290488E49098830F821008F4908808A
:103550008C488B49098800EB810040888B49488062
:1035600086488749098800EB81042088ADF824004B
:103570006088ADF8260085480088ADF828008348AB
:103580004088ADF82A00DDE90901FFF723FF07466F
:10359000804801683846FCF739FE7F4908607F495A
:1035A0005320FFF703FF7D490A20FFF7FFFEDDE010
:1035B0007A494320FFF7FAFE78490A20FFF7F6FE22
:1035C00070486F49098830F8210048B96D486C4946
:1035D000098800EB8100408810B90BB0BDE8F08F7E
:1035E0007048B0F900006749654A128831F9221025
:1035F000A0EB01096B48B0F902006249604A1288E9
:1036000001EB8201B1F90210441A09FB09F104FB34
:103610000410FDF702F8074600F018F95948584918
:10362000098800EB81073888ADF820007888ADF86C
:1036300022005C480088ADF824005A484088ADF864
:103640002600DDE90801FFF7C5FE0A905148016830
:103650000A98FCF7DBFD504908604E4801680A985B
:10366000FCF7D4FD8246FDF721F821F00041074622
:103670004FF033324C4BFDF745F86FD24948B0F963
:10368000000040493E4A128831F92210A0EB010B9C
:103690004448B0F902103B48394A128800EB8200D6
:1036A000B0F90200A1EB000A0BFB0BF10AFB0A10B8
:1036B000FCF7B3FFCDE9080100F0C8F807468846DB
:1036C0005846FCF7AAFF2A463346CDE90001FCF72D
:1036D000BAFE3A464346CDE90201FCF726FFCDE9A2
:1036E00006012849264A128831F92200FCF795FF85
:1036F000CDE90401DDE90623FCF79FFECDE90801D1
:10370000FCF7B5FF00B2214908805046FCF785FF61
:103710002A463346CDE90001FCF795FE3A4643467A
:10372000CDE90201FCF701FFCDE906011549144A74
:10373000128801EB8201B1F90200FCF76EFFCDE9BE
:103740000401DDE90623FCF778FECDE90801FCF76A
:103750008EFF00B20D49088007E0FFE7114800889E
:103760000A4908800F484088488000BF0A4800681E
:10377000FFF7E6FC0849086000BF2EE7E0030020E1
:103780001800002070050020000700201A0000200B
:10379000D80800201400002020000020C0000020D5
:1037A00000002E40100000203333C33F00B5254BEE
:1037B00021F0004287B09A4203DC002213460092B7
:1037C0002BE0214B9A4208D140B94FF00100FFF79E
:1037D000B5FAFFF794FA07B000BD03DBFFF78AFAEA
:1037E00007B000BD02AAFEF777FF10F003014FF00B
:1037F00001000DD0012914D002291AD00DF1080CB6
:103800009CE80F00FFF72CF907B081F0004100BDE4
:103810000DF1080C00909CE80F00FFF7F5F907B0D8
:1038200000BD0DF1080C9CE80F00FFF719F907B077
:1038300000BD0DF1080C00909CE80F00FFF7E4F9C3
:10384000E2E70000FB21E93F0000F07F2DE9F041B5
:1038500006460F46FDF763F8041E0D4618BF01200B
:10386000284320F00040C0F17F6000F1E040C00F2D
:103870000ED0301C18BF0120384320F00040C0F1AA
:103880007F6000F1E040C00F04BF0120FFF756FA4F
:1038900020462946BDE8F0812DE9F04F8DB08848DB
:1038A000D0F800B087480068FCF700FFCDE90801B8
:1038B0005846FCF7FBFE844A844BCDE90001FCF737
:1038C000BCFD8046FFF75CFC04460D46804800685E
:1038D000FCF7ECFE064622462B46FCF7B4FDCDE98C
:1038E00004015846FCF7E2FE0646774A774BFCF7A0
:1038F000A4FDCDE90001FFF759FF04460D467548C8
:103900000068FCF7D3FE804622462B46FCF79BFD61
:10391000CDE90201DDE90423FCF78FFDCDE90601C5
:10392000DDE90823FCF7E8FCCDE90A01FCF702FF1A
:103930006949086063480068FCF7B8FECDE90801F2
:103940005846FCF7B3FE8046FFF71AFC04460D46C6
:103950005F480068FCF7AAFE064622462B46FCF7A5
:1039600072FDCDE904015846FCF7A0FE8046FFF742
:103970001DFF04460D4657480068FCF797FE0646B3
:1039800022462B46FCF75FFDCDE90201DDE9042369
:10399000FCF753FDCDE90601DDE90823FCF7ACFC9B
:1039A000CDE90A01FCF7C6FE4B494860454800686E
:1039B000FCF77CFECDE908015846FCF777FE424A49
:1039C000424BCDE90001FCF797FC0646FFF7D8FB18
:1039D00004460D463E480068FCF768FE80462246D5
:1039E0002B46FCF730FDCDE904015846FCF75EFE9E
:1039F0000646354A354BFCF77FFC0446FFF7D6FEFA
:103A00008046894633480068FCF750FE42464B46E4
:103A1000CDE90001FCF717FDCDE90201DDE9042342
:103A2000FCF70BFDCDE90601DDE90823FCF764FC9A
:103A3000CDE90A01FCF77EFE274988600A465168F5
:103A40001068FCF79DFE02D22348006801E022487E
:103A500040688246204881685046FCF791FE01D2BA
:103A6000504601E01C48806882465046FCF71EFE26
:103A700004460022194BFCF745FE1ED21649086881
:103A80005146FCF7FBFB04461549FCF7C5FB124900
:103A9000086048685146FCF7F1FB04461049FCF702
:103AA000BBFB0D49486088685146FCF7E7FB0446BC
:103AB0000B49FCF7B1FB084988600DB0BDE8F08FF9
:103AC000140000202C0000208D976E1283C000404F
:103AD0002800002024000020D403002000005440CF
:103AE0000000A042000000004FBB610567ACDD3F55
:103AF000182D4454FB21E93F9BF681D20B73EF3F15
:103B0000182D4454FB21F93FE2652F227F2B7A3C8C
:103B1000075C143326A6813CBDCBF07A8807703C45
:103B2000075C143326A6913CC4EB98999999C9BFB8
:103B3000711623FEC671BCBF6D9A74AFF2B0B3BFED
:103B40009AFDDE522DDEADBF2F6C6A2C44B4A2BFAD
:103B50000D5555555555D53FFF8300922449C23F19
:103B60006E204CC5CD45B73F513DD0A0660DB13F4D
:103B7000EB0D76244B7BA93F11DA22E33AAD903F5F
:103B80004C5555555555A53F7751C1166CC156BF7B
:103B90009015CB19A001FA3EAD529C804F7E92BE8B
:103BA000C4B1B4BD9EEE213ED43888BEE9FAA8BDAA
:103BB000000000000000000000004054FB21F93F1D
:103BC0003163621A61B4D03D0000601A61B4D03D27
:103BD0007370032E8A19A33B0000002E8A19A33BA1
:103BE000C14920259A837B390000000000000000B5
:103BF0006E83F9A22915444ED15727FCC0DD34F558
:103C0000999562DB4190433CAB6351FE61C5BBDEDD
:103C10003A6E24B7E0D24D42EA2E49061C92D109F1
:103C20001CEB1DFE3EA729B1F53582E88444BB2E6E
:103C300026709CE9417E5FB439D69139F4395383BB
:103C40008B5F849C3B28F9BDFF97F81F0F9805DE1A
:103C50008B112FEF1F6D0A5ACF7E366DB709CB2718
:103C6000663F464F2DEA5F9EC7BA27757BF1E5EBAD
:103C7000F739073DEA92528AB15FFB6B085D8D1FF1
:103C8000A6F810111111813FD561C119A0012ABFF9
:103C90007DFEB157E31DC73EEB9C2B8AE6E55ABE7D
:103CA0007CD5CF5A3AD9E53DC83C00080000002039
:103CB000C80000001C2D0008903D0008C80000202E
:103CC000280D00002C2D000800000000000000005E
:103CD00000000000000000000000000000000000E4
:103CE00000000000000000000000000000000000D4
:103CF0000000000000000000CDCCCC3DCDCC4C3D00
:103D0000CDCCCC3D00004843000048C300004842F1
:103D100000000000000000000000000000000000A3
:103D20000000000000000000000000000000000093
:103D30000000000000000000000000000000000083
:103D40000000000000000000000000000000000073
:103D50000000000000000000000000000000000063
:103D60000001020304010203040607080902040615
:103D70000800000000A24A0400000000000000004B
:103D8000010203040607080900000000000000000B
:0400000508000131BD
:00000001FF
