:020000040800F2
:10000000F80D002045010008A9110008FD0E0008A8
:100010007D0F00082D0A00081B28000800000000C2
:100020000000000000000000000000001918000897
:10003000310A000800000000F91500082D19000819
:100040005F0100085F0100085F0100085F01000810
:100050005F0100085F0100085F0100085F01000800
:100060005F0100085F0100085F0100085F010008F0
:100070005F0100085F0100085F0100085F010008E0
:100080005F0100085F0100085F0100085F010008D0
:100090005F0100085F0100085F0100085F010008C0
:1000A0005F0100085F0100085F0100085F010008B0
:1000B0005F0100085F0100085F0100085F010008A0
:1000C0005F0100085F0100085F0100085F01000890
:1000D0005F0100084D2500085F0100081126000897
:1000E0005F0100085F0100085F0100085F01000870
:1000F0005F0100085F0100085F0100085F01000860
:100100005F0100085F0100085F0100085F0100084F
:100110005D2300085F0100084D1C00085F01000816
:100120005F0100085F0100085F0100085F0100082F
:10013000DFF80CD000F044FC0048004749340008C8
:10014000F80D00200648804706480047FEE7FEE716
:10015000FEE7FEE7FEE7FEE7FEE7FEE7FEE7FEE777
:10016000AD19000831010008F0B480EA0102D40F93
:100170004200B2EB410F02D20246084611464A0045
:1001800042D0C30DDDB2C1F3C752AD1A202D35DA0E
:10019000C1F3160141F4000204B15242C5F1200638
:1001A00002FA06F12A411044B3EBD05F23D0C4B168
:1001B000012DA0EBC35009DCF0BC4FF0004202EA75
:1001C000C352DBB200F5000000F01EBB400000F19E
:1001D000807000EBC350A0F1807040EAD1704900FC
:1001E00009E0490841EAC071A0EBC35000F50000E6
:1001F000400800EBC350F0BC00F0FDBA61420122A0
:1002000002EB4101001BF6E7F0BC704781F00041B2
:10021000AAE780F00040A7E780EA010210B502F0EB
:100220000043400022D04A001FD0010E01EB1261B2
:10023000C0F35600C2F3560240F4000042F400023C
:10024000A0FB022000047F39140400D0401C50EAB7
:10025000124001D44000491EC2B20C0604EBD0107B
:10026000401C4008802A02D003E0002010BD20F08E
:100270000100002900DA0020184310BD30B480EAE4
:10028000010202F0004530F0004221F0004013D09E
:1002900090B1C30DD40DC2F31601C0F31600E41AD9
:1002A00041F4000140F400027D34914201D3641C0A
:1002B00000E04900002C02DA30BC002070474FF407
:1002C00000000023914201D3891A034340084FEAFA
:1002D0004101F7D151B1914202D14FF0004105E007
:1002E00002D24FF0010101E06FF0010103EBC450B5
:1002F000284430BC00F07FBA2DE9FE4F804681EAE9
:100300000300C00F0C46009021F0004123F000458F
:10031000B8EB0200A94105D24046214690461C4652
:100320000B46024623F00040104347D0270DC7F389
:100330000A00C3F30A510290401A019040286BDA78
:10034000C3F3130040F4801B0098924620B10023B1
:10035000D2EB030A63EB0B0B01985946C0F1400244
:10036000504600F017FA06460D4650465946019A87
:1003700000F02FFA10EB08006141002487EA1152C7
:1003800084EAE7731A4340D0009A62B3019A012AC3
:100390004FEA075215DC001B61EB02014FF00042EF
:1003A00002EA0752CDE90042001C41F580113246B5
:1003B0002B4600F066FA03B0BDE8F08F40462146B8
:1003C000F9E7001B61EB0201001C41F580130018E6
:1003D0005B412018A2F5001747EB030140EAD570F6
:1003E000B6196D4111E06D084FEA360645EAC07551
:1003F0004FEA0752001B61EB0201001C41F580111E
:1004000049084FEA30000019514132462B4603B0EB
:10041000BDE8F04F00F026BA00980122400000230A
:10042000D0EB020263EBE073009821464FEAE074E0
:10043000B8EB000061EB0401E9E783F000435BE700
:1004400081F0004158E72DE9FE4F81EA030404F0F2
:10045000004421F0004100944FF0000B23F00043D2
:1004600050EA01045ED052EA03045BD0C3F30A549D
:10047000C1F30A552C44A4F2F3340194A0FB0254B6
:10048000C1F3130141F48011C3F3130343F4801348
:1004900001FB024400FB034E840A970A44EA81549C
:1004A00047EA8357A4FB076802958D0A05FB078579
:1004B0004FEA932C04FB0C542705029D4FEA065883
:1004C00047EA1637B5EB08056EEB070C870E920E60
:1004D00047EA811742EA8312A7FB0201B6EB0B0140
:1004E00064EB00042B0D43EA0C335E1844EB1C5004
:1004F000DA465146E7FB0201C5F313044FEA0B331A
:1005000043EA14534FEA0432019C43EA0603A4F180
:100510000C040294009CCDE900B400F0B2F903B0E1
:10052000BDE8F08F00200146F9E72DE9F04D81EAA2
:10053000030404F0004B21F0004514464FF0000A7C
:1005400023F0004150EA050220D054EA01021DD0F8
:10055000C5F30A570246C5F31303C1F31300C1F3F1
:100560000A5640F4801543F48013A7EB0608101BCD
:10057000D64608F2FD3873EB050002D308F10108F6
:1005800001E092185B41B8F1000F03DA0020014648
:10059000BDE8F08D00204FF48011064684460EE041
:1005A000171B73EB050705D3121B63EB050306430B
:1005B0004CEA010C49084FEA300092185B4150EABE
:1005C0000107EDD152EA030012D082EA040083EA67
:1005D0000501084305D0101BAB4106D201220023C0
:1005E00006E000224FF0004302E06FF001025310DA
:1005F0001AEB06004CEB085110EB0A0041EB0B0123
:10060000BDE8F04D00F02EB9C10F80EAE07008445B
:10061000CA079623002100F0F7B80EB5C10F80EA93
:10062000E0700844CA07002140F233438DE80E0011
:100630000A460B4600F025F903B000BD00F0004269
:1006400020F00040C10DC0F3160040F400007F29E7
:1006500001DA00207047962903DCC1F19601C840F9
:1006600001E096398840002AF4D04042704770B5C6
:10067000C1F30A5201F000450024C1F3130140F216
:10068000FF3341F480119A4201DA002070BD40F23C
:1006900033439A42A2F2334203DC524200F089F81B
:1006A00000E090402C43F1D0404270BD00F0004289
:1006B00030F000400AD0C10D01F56071C0F31600A2
:1006C00042EA0151C2084007114370470020014629
:1006D0007047000030B5041E71F1000404DB4FF0D8
:1006E0000044404264EB0101141E73F1000405DB79
:1006F0001C464FF00043524263EB04038B4208BF99
:10070000824230BD30B5041E71F1000404DB4FF0AD
:100710000044404264EB0101141E73F1000405DB48
:100720001C464FF00043524263EB0403994208BF5A
:10073000904230BD01F0004330B421F0004150EA56
:10074000010206D00A0DA2F56072C1F31301002A5E
:1007500002DC30BC00207047440F44EAC104C100F1
:10076000E01830BC00EBC25000F045B8002801DBB7
:10077000C0F10040002901DBC1F100418142704716
:10078000002801DBC0F10040002901DBC1F100417C
:1007900088427047202A04DB203A00FA02F1002048
:1007A00070479140C2F1200320FA03F319439040AF
:1007B0007047202A04DB203A21FA02F0002170471A
:1007C00021FA02F3D040C2F12002914008431946B9
:1007D0007047202A06DBCB17203A41FA02F043EAA1
:1007E000E07306E041FA02F3D040C2F120029140EA
:1007F0000843194670470029A8BF7047401C4900AC
:1008000008BF20F00100704710B4B0FA80FC00FA75
:100810000CF050EA010404BF10BC704749B1CCF1A0
:10082000200421FA04F411FA0CF118BF012121432C
:100830000843A3EB0C01CB1D4FEA00614FEA1020E7
:1008400042BF002010BC704700EBC3501044002989
:10085000A4BF10BC7047401C490008BF20F0010035
:1008600010BC704710B5141E73F1000408DA401C68
:1008700041F1000192185B411A4301D120F00100BF
:1008800010BD2DE9F04D92469B4611B1B1FA81F2AF
:1008900002E0B0FA80F220329046FFF77BFF044678
:1008A0000F4640EA0A0041EA0B0153465A46084304
:1008B00013D0114653EA010019D0C8F14002504646
:1008C000FFF777FF05460E46504659464246FFF76A
:1008D00061FF084305D0012004E020463946BDE809
:1008E000F08D0020054346EAE0762C4337430A9812
:1008F0006305E40AA0EB08000022FD0A44EA47541D
:100900000A3002D500200146E9E7010510196941C6
:10091000DDE9084500196941BDE8F04DA2E72DE980
:10092000F04D00231A461B1A8A4103DB00200146C2
:10093000BDE8F08DC1F30A52C1F3130141F48015F3
:100940004FF0000BD10702D100186D41521E002755
:10095000044640F2FF11384601EB620A3E468046EB
:10096000024600204FF48011FFF723FFC2197141A6
:10097000BB1846EB0100B4EB030C75EB000C04D381
:10098000E41A65EB000517460E46241908F101002C
:100990006D4180463428E3DDF91946EB0600091B5A
:1009A000A84103D24FF0FF32134601E00022134664
:1009B0001BEB070046EB0A51BDE8F04DFFF752BFB5
:1009C000064C074D06E0E06840F0010394E807009C
:1009D00098471034AC42F6D3FFF7AEFB5041000805
:1009E0007041000870B521F0004303430CD0C1F3FF
:1009F0000A550024D5EB040564EB0403D617AD1AA1
:100A0000B34102DB0020014670BD201841EB0251CA
:100A100070BD0EB540F2334102910021CDE90011C5
:100A20000A460B46FFF72DFF03B000BD00BFFEE7EF
:100A3000704700002DE9F05F7D48B0F900007D4966
:100A40007D4A128831F92210461A7948B0F902001D
:100A50007849794A128801EB8201B1F90210451AEE
:100A600006FB06F105FB0510FFF7D7FD074603F06F
:100A70003DF98246FFF7FBFD04464FF001090022D5
:100A800013466E4908684968FFF724FE01D24FF00B
:100A9000FF392046FFF7C1FD07460022684BFFF7EC
:100AA00031FE12D29620704390FBF4F73846FFF7E0
:100AB000ABFD644908609620684390FBF4F7384624
:100AC000FFF7A2FD6049086017E004F10A0000EB9F
:100AD0004000704390FBF4F73846FFF795FD594905
:100AE000086004F10A0000EB4000684390FBF4F753
:100AF0003846FFF789FD5449086050490F68496836
:100B000021F000410022514B3846FFF7FBFD08D28F
:100B100000204C4908604C4908604D484D49086028
:100B200042E046490F68496821F0004100224A4BE3
:100B30003846FFF7E7FD0CD20020424908604249E1
:100B4000086009EB8901C800FFF75EFD41490860B4
:100B50002AE03A490F68496821F000414FF04042CD
:100B60003E4B3846FFF7CEFD07D2C9EB09114800CE
:100B7000FFF74AFD3749086016E030490F684968B9
:100B800021F000414FF02042354B3846FFF7BAFDC7
:100B900007D209EB89014800FFF736FD2D490860AF
:100BA00002E000202B4908602E488079E8BB2548E8
:100BB0000068FFF77BFD21F00041074600222A4B29
:100BC000FFF7A0FD0BD320480068FFF76FFD21F071
:100BD000004107460022244BFFF794FD25D21A4816
:100BE000016818480068FFF7CBFD02D2154800687D
:100BF00001E015480068074639461C48FFF73EFBF0
:100C00008046104801684046FFF706FB0D49086022
:100C100039461648FFF732FB80460B4801684046CC
:100C2000FFF7FAFA0849086000BFBDE8F09F00002E
:100C300022000020EC0300202000002028000020DB
:100C40000000444030000020340000200000044038
:100C500000002042380000200000F83F54C1E03F6F
:100C600069DEC13FE408002000003E400000F04182
:100C7000074908604FF0E021096941F001014FF098
:100C8000E022116100BF024909680029FBD17047C9
:100C90000400002008B50720ADF8000048208DF8BA
:100CA000030003208DF802006946024800F08EF828
:100CB00008BD00000010014000B587B0C320ADF8AA
:100CC000180004208DF81B0003208DF81A0006A9D7
:100CD000334800F07BF8C020ADF8180004208DF8F0
:100CE0001B0003208DF81A0006A92E4800F06EF8AC
:100CF0000020ADF80C004FF6FF70ADF8100000209A
:100D0000ADF81200ADF80E0003A94FF0804001F0DD
:100D100089FA03A9244801F085FA03A9234801F0C0
:100D200081FA00231A4603214FF0804001F058F861
:100D300000231A4603211C4801F052F800231A46EA
:100D400003211A4801F04CF8684601F0D1F806205A
:100D5000ADF8080069464FF0804001F073F869462D
:100D6000114801F06FF86946104801F06BF8002057
:100D70004FF0804188840C49243108800B4924318C
:100D800008800121880701F010F80121064801F0D0
:100D90000CF80121054801F008F807B000BD00007B
:100DA00000080140000C0140000400400008004021
:100DB00000204FF080418884024908800249088061
:100DC0007047000024040040240800402DE9F04151
:100DD000024600250026002000230024002791F869
:100DE00003C00CF00F0591F803C00CF0100CBCF11F
:100DF000000F03D091F802C04CEA050591F800C03D
:100E0000BCF1000F31D0146800202BE04FF0010C32
:100E10000CFA00F3B1F800C00CEA03069E4220D1A0
:100E200083004FF00F0C0CFA03F7BC4305FA03FCE8
:100E30004CEA040491F803C0BCF1280F06D14FF02E
:100E4000010C0CFA00FCC2F814C00AE091F803C0CF
:100E5000BCF1480F05D14FF0010C0CFA00FCC2F8B0
:100E600010C0401C0828D1D31460B1F800C0BCF1F8
:100E7000FF0F34DD546800202EE000F1080C4FF025
:100E8000010808FA0CF3B1F800C00CEA03069E4210
:100E900021D183004FF00F0C0CFA03F7BC4305FA85
:100EA00003FC4CEA040491F803C0BCF1280F05D1FF
:100EB00000F1080C08FA0CF8C2F8148091F803C08D
:100EC000BCF1480F07D100F1080C4FF0010808FAF7
:100ED0000CF8C2F81080401C0828CED35460BDE83E
:100EE000F0810246002093680B400BB1012000E026
:100EF00000207047416170470161704700BFFEE705
:100F000000200F49B1F91210C3290ADA0C49B1F9CE
:100F100012100F2905DD0A49B1F91410B1F58D7FC2
:100F20000CDB0749B1F91210412906DD0449B1F97A
:100F30001210912901DA002000E001207047000022
:100F4000E408002008B50C20ADF8000010208DF852
:100F5000030003208DF8020069460648FFF736FFBC
:100F600040F20330ADF8000069460348FFF72EFF5A
:100F700008BD000000080140000C014000BFFEE772
:100F800010B502F0ADFAFFF713FF02F02DFBFFF7EB
:100F900051FD02F0D1FE00F089F900F0E1F810BD3A
:100FA0002DE9FC4781468A460024B9F1640F01DD32
:100FB000642406E019F1640F02DA6FF0630400E0C4
:100FC0004C4644BBBAF1000F06D0BAF1010F0CD069
:100FD000BAF1020F1DD111E004215B48FFF78AFF2F
:100FE00008215948FFF786FF14E001215748FFF711
:100FF00081FF02215548FFF77DFF0BE04FF4807120
:101000005248FFF777FF4FF400715048FFF772FF27
:1010100000E000BF96E0002C48DD2046FFF7FDFA17
:1010200007464B4A4B4BFFF70EFA054600224A4B48
:10103000FFF762F9CDE90001FFF719FB04B2BAF13D
:10104000000F06D0BAF1010F10D0BAF1020F2BD168
:101050001AE004213C48FFF74DFF08213A48FFF70A
:101060004BFF04EBC4003D4908801EE001213748D6
:10107000FFF740FF02213548FFF73EFF04EBC400B5
:101080003649091D088010E04FF480712F48FFF7A2
:1010900031FF4FF400712D48FFF72EFF04EBC40021
:1010A0002E490831088000E000BF4BE02046FFF7E2
:1010B000B4FA0546264A274BFFF7C5F90746002232
:1010C000254BFFF7BAF9CDE90001FFF7D0FA04B2DA
:1010D000BAF1000F06D0BAF1010F11D0BAF1020F28
:1010E0002ED11CE004211848FFF706FF08211648FE
:1010F000FFF700FF604200EBC0001849088020E0C5
:1011000001211248FFF7F8FE02211048FFF7F2FE16
:10111000604200EBC0001149091D088011E04FF446
:1011200080710A48FFF7E8FE4FF400710748FFF7A7
:10113000E1FE604200EBC00008490831088000E091
:1011400000BF00BFBDE8FC8700080140000C014063
:10115000CDCCCCCCCCCCDC3F0080464034340140FC
:1011600010B50E494868FFF769FA04B2002120461D
:10117000FFF716FF0A494868FFF760FA04B2012139
:101180002046FFF70DFF07494868FFF757FA04B2FA
:1011900002212046FFF704FF10BD00009C0800203C
:1011A000B4080020CC080020704708B54FF4A060B8
:1011B00000F072F825208DF8000001208DF8030062
:1011C00000208DF8010001208DF80200684600F033
:1011D0002BF827208DF8000001208DF80100002059
:1011E0008DF8020001208DF80300684600F01CF81D
:1011F00036208DF8000001208DF801008DF80200E6
:101200008DF80300684600F00FF834208DF80000D8
:1012100000208DF801008DF8020001208DF80300F8
:10122000684600F001F808BD70B5002100230F22C8
:10123000C47804B3154C246804F4E064C4F5E06495
:10124000210AC1F10403CA40447804FA03F1847806
:101250001440214309010E4C0678A155047804F08E
:101260001F050124AC4005786D11AD0005F1E025A6
:10127000C5F8004109E0047804F01F050124AC40E2
:10128000044D0678761145F8264070BD0CED00E05F
:1012900000E400E080E100E002490143024A1160FD
:1012A000704700000000FA050CED00E02DE9F04762
:1012B0000124C6480068C6490860C64A1168C44A85
:1012C0001068FEF7A3FFC249C860C3480068FFF773
:1012D000EDF905460E46BE49C868FFF7E7F921F06B
:1012E000004107462A463346FFF7F4F900D20024AE
:1012F000B7494869B9490968FFF738FA06D2B449CD
:101300004869B7490968FFF73BFA19D3B0494869FA
:10131000B2490968FFF734FA05D2AD49C86800211F
:10132000FFF724FA0CD3AA494869AD490968FFF7C9
:101330001DFA0CD2A649C8680021FFF721FA06D28F
:10134000A34AD1685069FEF70FFFA1494861A04A3E
:101350001169D068FEF75AFF0746A248016838466F
:10136000FEF75AFF05462046FFF74EF982469E4893
:1013700001685046FEF750FF81469548416948464E
:10138000FEF74AFF07469248C16898480068FEF792
:1013900043FF81468D4801684846FEF7E5FE8046DA
:1013A0003946FEF7E1FE06462946FEF7DDFE88498E
:1013B00048600846C06808610124844840688C4938
:1013C0000860844A51688A4A1068FEF71FFF8849FE
:1013D000C86081480068FFF769F905460E468449F0
:1013E000C868FFF763F921F0004107462A463346F3
:1013F000FFF770F900D200247D49486977490968F0
:10140000FFF7B4F906D27A49486975490968FFF7C8
:10141000B7F919D37649486970490968FFF7B0F9F7
:1014200005D27349C8680021FFF7A0F90CD37049B1
:1014300048696B490968FFF799F90CD26C49C8688B
:101440000021FFF79DF906D2694AD1685069FEF77D
:101450008BFE67494861664A1169D068FEF7D6FE7F
:101460000746604801683846FEF7D6FE0546204626
:10147000FFF7CAF882465C4801685046FEF7CCFE8A
:1014800081465B4841694846FEF7C6FE0746584814
:10149000C16856480068FEF7BFFE81464B48416868
:1014A0004846FEF761FE80463946FEF75DFE064679
:1014B0002946FEF759FE4E4948600846C068086153
:1014C0000124424880684B490860424A9168494A71
:1014D0001068FEF79BFE4749C8603F480068FFF769
:1014E000E5F805460E464349C868FFF7DFF821F0E6
:1014F000004107462A463346FFF7ECF800D20024A5
:101500003C49486935490968FFF730F906D239493D
:10151000486933490968FFF733F919D335494869F0
:101520002E490968FFF72CF905D23249C868002115
:10153000FFF71CF90CD32F49486929490968FFF7BF
:1015400015F90CD22B49C8680021FFF719F906D20A
:10155000284AD1685069FEF707FE26494861254AA6
:101560001169D068FEF752FE07461E4801683846EA
:10157000FEF752FE05462046FFF746F882461A4817
:1015800001685046FEF748FE81461A4841694846C0
:10159000FEF742FE07461748C16814480068FEF788
:1015A0003BFE8146094881684846FEF7DDFD8046DE
:1015B0003946FEF7D9FD06462946FEF7D5FD0D4909
:1015C00048600846C0680861BDE8F087E003002075
:1015D0009C080020D4030020500000204800002078
:1015E0004C00002044000020400000203C0000206F
:1015F000B4080020CC0800207047000036490A7863
:101600000978491C344B1970344988540978552994
:1016100003D000211A46117070472F4909780B2911
:1016200000DAF9E72D494978503909294ED2DFE827
:1016300001F0050D151D252D353D45002849274A8A
:10164000921C13680B6052684A603FE02549234AA8
:10165000921C13680B6052684A6037E022491F4AA7
:10166000921C13680B6052684A602FE01F491B4AA6
:10167000921C13680B6052684A6027E01C49174AA5
:10168000921C13680B6052684A601FE01949134AA4
:10169000921C13680B6052684A6017E016490F4AA3
:1016A000921C13680B6052684A600FE013490B4AA2
:1016B000921C13680B6052684A6007E01049074AA1
:1016C000921C13680B6052684A6000BF00BF002183
:1016D000014A117000BF9FE7A0000020FE08002013
:1016E00058000020600000206800002070000020EA
:1016F000780000208000002088000020900000205A
:101700009800002029B1064AD2690243044BDA61ED
:1017100004E0034AD2698243014BDA61704700005A
:101720000010024029B1064A92690243044B9A61B3
:1017300004E0034A92698243014B9A6170470000BA
:101740000010024030B500210022002400232D4D5E
:101750006D6805F00C0121B1042905D0082923D1B9
:1017600005E0294D056022E0274D05601FE0254D6D
:101770006D6805F47012234D6D6805F48034022500
:1017800005EB92421CB9214D554305600BE01D4D00
:101790006D6805F400351DB11C4D5543056002E030
:1017A000194D5543056002E0174D056000BF00BFAD
:1017B000144D6D6805F0F0010909154D6B5C056865
:1017C000DD4045600F4D6D6805F4E061090A104D7C
:1017D0006B5C4568DD4085600A4D6D6805F46051BD
:1017E000C90A0B4D6B5C4568DD40C560054D6D68F1
:1017F00005F44041890B074D6B5CC568B5FBF3F5FB
:10180000056130BD0010024000127A0000093D0061
:10181000A1000020B1000020704710B500F002F8D0
:1018200010BD00000CB50020019000903348006806
:1018300040F480303149086000BF3048006800F44F
:10184000003000900198401C0190009818B9019850
:10185000B0F5A06FF1D12948006800F4003010B154
:101860000120009001E0002000900098012843D161
:101870002348006840F010002149086008460068CD
:1018800020F0030008600846006840F0020008608D
:101890001A48406819494860084640684860084648
:1018A000406840F4806048600846406820F47C103E
:1018B00048600846406840F4E81048600846006800
:1018C00040F08070086000BF0C48006800F00070B5
:1018D0000028F9D00948406820F003000749486013
:1018E0000846406840F00200486000BF0348406876
:1018F00000F00C000828F9D10CBD000000100240D7
:101900000020024010B50020074908700021084659
:10191000FFF746FB01210020FFF742FB02210020D8
:10192000FFF73EFB10BD00005400002010B500F092
:10193000CBFC10BD30B519480068194AB0FBF2F174
:10194000481EB0F1807F01D301201BE0481E4FF0FC
:10195000E022506150170F22002804DB13071C0EF1
:10196000104B1C5406E013071D0E0F4B00F00F0424
:10197000241F1D5500BF00204FF0E022906107207A
:101980001061002008B100BFFEE74FF0E0200069C1
:1019900020F001004FF0E021086130BDB8000020C8
:1019A000A086010000E400E018ED00E010B5134847
:1019B000006840F00100114908600846406810497D
:1019C00008400E494860084600680E4908400B4927
:1019D00008600846006820F48020086008464068D7
:1019E00020F4FE0048604FF41F008860FFF715FFE9
:1019F0004FF000600449086010BD00000010024074
:101A00000000FFF8FFFFF6FE08ED00E0F0B50C4621
:101A1000154600220021068C4FF6FE773E400684D4
:101A2000028B018C4FF60C7632407E1C06EA0316C0
:101A30002E433243104EB0420ED0104EB0420BD067
:101A4000B0F1804F08D00E4EB04205D00D4EB042DE
:101A500002D00D4EB04206D14FF6FD76314044F033
:101A60000106314305E04FF6F576314044F00106BA
:101A7000314302830184F0BD002C01400034014059
:101A80000004004000080040000C0040F0B50C4687
:101A90001546002200210026078C4FF6EF7C07EA4E
:101AA0000C070784028B018C4FF6FF7707EA0416B8
:101AB00040F6FF473A404FF6FF7707EA03373A43CD
:101AC0004FF6FF7707EA05273A43114FB8420ED089
:101AD000104FB8420BD0B0F1804F08D00E4FB84233
:101AE00005D00E4FB84202D00D4FB84206D14FF686
:101AF000DF77394046F01007394305E04FF65F774E
:101B0000394044F01007394302830184F0BD0000DE
:101B1000002C014000340140000400400008004057
:101B2000000C0040F0B50C461546002200210026AE
:101B3000078C4FF6FF6C07EA0C070784828B018C39
:101B40004FF6FF7707EA04264FF60C773A404FF638
:101B5000FF7707EA03172F433A43114FB8420ED0DD
:101B6000104FB8420BD0B0F1804F08D00E4FB842A2
:101B700005D00E4FB84202D00D4FB84206D14FF6F5
:101B8000FF57394046F48077394305E04FF2FF575D
:101B9000394044F48077394382830184F0BD0000EA
:101BA000002C0140003401400004004000080040C7
:101BB000000C0040F0B50C4615460022002100261E
:101BC000078C4EF6FF7C07EA0C070784828B018C9A
:101BD0004FF6FF7707EA043640F6FF473A404FF6E4
:101BE000FF7707EA05273A434FF6FF7707EA0337FF
:101BF0003A43114FB8420ED0104FB8420BD0B0F15B
:101C0000804F08D00E4FB84205D00E4FB84202D0D8
:101C10000D4FB84206D14DF6FF77394046F4805754
:101C2000394305E047F6FF57394044F480573943BC
:101C300082830184F0BD0000002C0140003401408B
:101C40000004004000080040000C004070B5012175
:101C5000154800F0E6F818B30121134800F0A2F887
:101C60001249B1F90400FEF7CFFC80F000464FF0B6
:101C70008E413046FEF702FB05460D49FEF7CCFAD1
:101C80000446FEF713FD0B4A106051600A48408875
:101C9000002803DC0848407A012802D0FFF732FE12
:101CA00001E0FFF76DF970BD0010004070000020EA
:101CB000DB0F494018000020E40800200EB540F674
:101CC0000F60ADF800004FF4FA70ADF8040000208A
:101CD000ADF80600ADF802006946064800F0A2FA29
:101CE00001221146034800F00CF90121014800F0DF
:101CF0005CF80EBD0010004000B589B04FF4E070F4
:101D0000ADF8200018208DF8230003208DF8220064
:101D100008A92248FFF75AF84FF46170ADF818008F
:101D20000020ADF81400ADF81A00ADF8160005A9B2
:101D30001B4800F077FA6020ADF804000120ADF8F0
:101D400006000020ADF80C0001A9154800F0E2F8EB
:101D50000821134800F02AF901A9114800F030F9D0
:101D600008210F4800F07EF901A90D4800F088F91C
:101D700008210B4800F0D4F901A9094800F0DAF96C
:101D80000821074800F014FA0121054800F00DF879
:101D90000121034800F015F809B000BD0010014012
:101DA00000340140CA430282704721B1028842F0E8
:101DB0000102028004E002884FF6FE731A4002809E
:101DC000704731B1B0F8442042F40042A0F84420FA
:101DD00005E0B0F84420C2F30E02A0F8442070479A
:101DE000F0B50C4615461E4600210022002301894D
:101DF000028B038C4FF6F877394021434FF6FC47AE
:101E00003A4040F201173A434FF6DD773B404FF638
:101E1000FF7707EA06172F433B43018102830384C0
:101E2000F0BD30B50246002000230024158A05EAE3
:101E30000103958905EA010413B10CB1012000E00A
:101E4000002030BD70B505460C46244885420ED0B2
:101E5000234885420BD0B5F1804F08D021488542F8
:101E600005D02148854202D02048854200D100E0BB
:101E700000BF208850B92389A28861882846FFF7CF
:101E8000C5FDE188284600F0A0F925E02088042857
:101E90000AD12389A28861882846FFF7F7FDE188E7
:101EA000284600F09BF917E0208808280AD12389EA
:101EB000A28861882846FFF735FEE188284600F0B1
:101EC0009AF909E02389A28861882846FFF772FE03
:101ED000E188284600F098F970BD0000002C014010
:101EE000003401400004004000080040000C0040A5
:101EF000002101804180012181800021C180018178
:101F000070471AB183890B43838102E083898B4335
:101F10008381704770B5002400220023058C4FF6A2
:101F2000FE7635400584028C8388048B4FF68F75CE
:101F30002C40B51E2C400D882C43751E2A400D895F
:101F40002A434D882A43144DA8420BD0134DA84272
:101F500008D0134DA84205D0124DA84202D0124D10
:101F6000A84213D14FF6F7752A404D892A434FF600
:101F7000FB752A408D882A434FF6FF652B404FF6AC
:101F8000FF552B408D892B43CD892B4383800483C0
:101F9000CD888586028470BD002C0140003401404C
:101FA0000040014000440140004801400A46002131
:101FB000018B4FF6F77319401143018370470000FE
:101FC00070B5002400220023058C4FF6EF763540D3
:101FD0000584028C8388048B48F6FF752C404FF6ED
:101FE000FF452C400D884FF6FF7606EA05252C4369
:101FF0004FF6DF752A400D8906EA05152A434D88FC
:1020000006EA05152A43154DA84202D0144DA842F0
:102010001DD14FF67F752A404D894FF6FF7606EAAF
:1020200005152A434FF6BF752A408D8806EA051527
:102030002A434FF6FF352B404FF2FF752B408D8919
:1020400006EA85052B43CD8906EA85052B43838067
:102050000483CD880587028470BD0000002C0140F8
:10206000003401400A460021018B4FF2FF731940F2
:102070004FF6FF7303EA0223194301837047000000
:1020800070B5002400220023058C4FF6FF66354012
:102090000584028C8388848B4FF68F752C404FF615
:1020A000FC752C400D882C434FF6FF552A400D89B6
:1020B0004FF6FF7606EA05252A434D8806EA0525F0
:1020C0002A43154DA84202D0144DA8421DD14FF20B
:1020D000FF752A404D894FF6FF7606EA05252A430B
:1020E0004FF6FF352A408D8806EA05252A434EF62D
:1020F000FF752B404DF6FF752B408D8906EA0515BF
:102100002B43CD8906EA05152B4383808483CD8834
:102110008587028470BD0000002C0140003401401E
:102120000A460021818B4FF6F773194011438183D2
:102130007047000070B5002200230024058C4EF685
:10214000FF7635400584038C8488828B48F6FF75C2
:102150002A404FF6FF452A400D884FF6FF7606EAE3
:1021600005252A434DF6FF752B400D8906EA0535F6
:102170002B434D8806EA05352B430B4DA84202D070
:102180000A4DA84208D14BF6FF752C408D894FF6B9
:10219000FF7606EA85152C4384808283CD88A0F8DB
:1021A0004050038470BD0000002C01400034014009
:1021B0000A460021818B4FF2FF7319404FF6FF73DF
:1021C00003EA0223194381837047028B4FF6F373AE
:1021D0001A400283028B0A4302837047028B4FF23C
:1021E000FF331A400283028B4FF6FF7303EA012389
:1021F0001A4302837047828B4FF6F3731A4082832F
:10220000828B0A4382837047828B4FF2FF331A40DE
:102210008283828B4FF6FF7303EA01231A43828382
:1022200070470000002202881D4B98420ED01D4BC3
:1022300098420BD0B0F1804F08D01B4B984205D08C
:102240001A4B984202D01A4B984204D14FF68F7322
:102250001A404B881A43174B984207D0164B9842A6
:1022600004D04FF6FF431A40CB881A4302808B8874
:1022700083850B8803850A4B98420BD0094B984203
:1022800008D00E4B984205D00D4B984202D00D4B12
:10229000984201D10B7A03860123838270470000A4
:1022A000002C0140003401400004004000080040C0
:1022B000000C0040001000400014004000400140AD
:1022C00000440140004801400448006820B1034830
:1022D0000068401E014908607047000004000020AB
:1022E00000B585B018208DF813004FF48060ADF86C
:1022F000100003208DF8120004A91648FEF766FDB1
:1023000004208DF813004002ADF8100004A9114814
:10231000FEF75CFD4FF4E13000900C20ADF80A00B0
:102320000020ADF80800ADF80600ADF80400ADF8E7
:102330000C006946084800F0FBF9012240F22551E3
:10234000054800F0CFF90121034800F088F905B0F5
:1023500000BD000000100140004C00401CB540F2E0
:102360002551564800F094F9A8B140F22551534840
:1023700000F066F9514800F047FAC4B250480068CE
:10238000FF2807D04E4801680068401C4C4A106086
:102390004C48445400BF4A48006820287ED1494830
:1023A0000078FC287BDB4748807F0D2877D14548A3
:1023B000C07F0A287ED14348007800F002004249DD
:1023C000C8714048007800F0010088713D480078ED
:1023D00000F0010008723B48407880094872394893
:1023E00080783849497801F03F0140EA01203649B8
:1023F00008803448C07848823248407931490979A8
:1024000040EA012001B2304881822E4880792E496D
:10241000C8822C48007A2B49C97940EA012001B2D0
:10242000294801832748407A2749C8812548807A6E
:1024300040B2012101EBE070244908602148C07AD4
:102440002049897A40EA012001B21F4801821D48D3
:10245000407B1C49097B40EA01201B494880194800
:10246000C07B1849897B40EA0120174988801548BC
:10247000007C88721348407CC8721248807C0873C4
:102480001048C07C48730846408AADF800000846F2
:10249000808AADF802000846C08901E00DE009E03D
:1024A000ADF804000846008AADF80600DDE9000139
:1024B00000F002FD0020024908601CBD004C0040F5
:1024C0000C000020D3010020E408002000000020C0
:1024D00000B585B018208DF813004FF40070ADF8EA
:1024E000100003208DF8120004A91648FEF76EFCB8
:1024F00004208DF813000002ADF8100004A9114863
:10250000FEF764FC4FF4165000900C20ADF80A0062
:102510000020ADF80800ADF80600ADF80400ADF8F5
:102520000C006946084800F003F9012240F22551E9
:10253000054800F0D7F80121034800F090F805B0F5
:1025400000BD0000000801400038014010B540F215
:1025500025510D4800F09CF8A8B140F225510A48D9
:1025600000F06EF8084800F04FF9C4B20748006860
:10257000FF2807D0054801680068401C034A106026
:102580000348445400BF10BD003801400C00002037
:10259000D301002000B585B018208DF813004FF44A
:1025A0008060ADF8100003208DF8120004A91648D1
:1025B000FEF70CFC04208DF813004002ADF810006B
:1025C00004A91148FEF702FC4FF4E13000900C2002
:1025D000ADF80A000020ADF80800ADF80600ADF82F
:1025E0000400ADF80C006946084800F0A1F801228B
:1025F00040F22551054800F075F80121034800F02C
:102600002EF805B000BD0000000C0140004800405D
:1026100010B540F22551094800F03AF860B140F297
:102620002551064800F00CF8044800F0EDF8C4B25B
:102630002046FEF7E3FF00BF10BD00000048004049
:1026400010B50022002340F66A14A14200D100BF59
:102650000A1201249440A3B2DC43048010BD21B1CE
:10266000828942F40052828104E082894DF6FF7330
:102670001A408281704702460020B1F5007F00D1E8
:1026800000BF13880B400BB1012000E00020704711
:1026900070B50246002400230025002040F66A168B
:1026A000B14200D100BFC1F3421501F01F03012662
:1026B00006FA03F3012D02D19689334006E0022D7C
:1026C00002D1168A334001E0968A33400C1201266B
:1026D00006FA04F41688344013B10CB1012000E06E
:1026E000002070BDF0B50346002400260025002020
:1026F00040F66A17B94200D100BF1846C1F3421430
:1027000001F01F06012707FA06F5012C01D10C3054
:1027100004E0022C01D1103000E014301AB1076837
:102720002F43076002E00768AF430760F0BD000079
:102730002DE9F04786B005460E460024A24600BFAC
:10274000A1460027B08900B100BF2F462C8A4CF665
:10275000FF700440F08804432C82AC894EF6F310DD
:102760000440B08831890843718908430443AC812F
:10277000AC8A4FF6FF400440B0890443AC8201A804
:10278000FEF7E0FF1F48874202D1DDF810A001E00C
:10279000DDF80CA0A88900F4004040B10AEBCA00A3
:1027A00000EB0A1031684900B0FBF1F807E00AEBD2
:1027B000CA0000EB0A1031688900B0FBF1F8642010
:1027C000B8FBF0F004012009642101FB1089A889FD
:1027D00000F4004040B1322000EBC900B0FBF1F042
:1027E00000F00700044308E0322000EB09106421E8
:1027F000B0FBF1F000F00F0004432C8106B0BDE8FF
:10280000F08700000038014001468888C0F30800C6
:102810007047C1F308028280704700BFFEE749009D
:1028200050EAC12018BF04204A0D18BF40F0010033
:1028300040F2FF72B2EB515F08BF40F00200012886
:1028400008BF0520704700002DE9F74F144694B0EB
:102850000021C4E902111599079121F00045C949E9
:102860008D4206DC1599C4E9000117B00020BDE8CF
:10287000F08FC549DFF814A3A9423CDD0799C44E87
:102880000029C44FC44A1599534619DDFDF7D5FDFB
:10289000554506D0C14AC24BFDF7CFFDC4E9000142
:1028A0000AE04FF0D352BE4BFDF7C7FD32463B4620
:1028B000FDF7C3FDC4E9000117B00120BDE8F08FAA
:1028C000FDF71AFD554506D0B44AB54BFDF714FD8A
:1028D000C4E900010AE04FF0D352B14BFDF70CFD03
:1028E00032463B46FDF708FDC4E9000117B04FF042
:1028F000FF30BDE8F08FAB49A942159978DB21F094
:10290000004183468846A84AA84BFDF79CFD00225B
:10291000A74BFDF7F1FCFDF7AAFE0990FDF77DFE40
:1029200006460F469C4A5346FDF78DFD43465A46E0
:10293000FDF786FD80468A46984A994B30463946CF
:10294000FDF781FD2A0D01250B9242465346FDF706
:1029500077FD032DC4E9000139D00B98C1F30A516A
:10296000401A05EB45111139814230DA9148C346CE
:10297000784400EB0510CDF80CA00C90D0E90023B2
:1029800030463946FDF75FFD02460B46049106903E
:1029900058460399FDF751FD80468A4602460B468C
:1029A00058460399FDF749FD049B069AFDF745FD3E
:1029B00083460C9803913946D0E902233046FDF74F
:1029C00042FD5A46039BFDF738FD6D1CBDE7079895
:1029D0000028A2BF099817B0BDE8F08F616881F0A8
:1029E00000416160099817B04042BDE8F08FFFE7F1
:1029F00084461598C1F31301C0F30A50A0F2F530D4
:102A00004FEA601800F01F06C6F120001390002066
:102A10000690079041F4801E05206D4676B1664A07
:102A200008EB00017A4452F8213002EB8101B340F7
:102A30004A68139922FA01F1194305E05F4908EB4E
:102A40000002794451F82210A1FB0E27A1FB0C13C0
:102A50001A449A4234BF0123002303EB070A05EB13
:102A60008003D3E901B70F448F4234BF0121002115
:102A700093448B4411B1934502D903E0934501D2AD
:102A8000012100E00021C3E901B7514445F82010BD
:102A9000011EA0F10100C1DC0298059F00F1005069
:102AA000800F12900298DDE903568000FDF7B5FD16
:102AB000834628460D91FDF7ACFF6FF01D02FDF730
:102AC00091FFCDE90E013046FDF7A3FF6FF03D0207
:102AD000FDF788FF80468A463846FDF79AFF6FF07B
:102AE0005D02FDF77FFF0746424653461191FDF711
:102AF00003FCDDE90E23FDF7FFFB5A460D9BFDF7B6
:102B0000FBFB00250E465A4628460D9BFDF795FC1B
:102B1000DDE90E23FDF791FC42465346FDF78DFC9F
:102B20003A46119BFDF78CFCDFF898A0244A5346E7
:102B3000FDF789FC07468846234A244B3146284640
:102B4000FDF781FC3A464346FDF7D6FB074688462B
:102B50004FF0A842534631462846FDF774FC3A46EA
:102B60004346FDF7C9FB159A12F0004F04D0129AA4
:102B700081F0004152421292C4E90001129817B04C
:102B8000BDE8F08FFB21E93F7CD90240FB21F93FF2
:102B90007370032E8A19A33B000040543163621AFC
:102BA00061B4D03DFB21394183C8C96D305FE43F3A
:102BB0000000E03FEC160000681600004A16000016
:102BC000182D4454FB21F93D3326A611460B113C28
:102BD0002DE9FF4D21F0004807460C46B8F1795F1A
:102BE00008DAFDF744FD002801BF0020324904B097
:102BF000BDE8F08D3A46234610461946FDF723FC02
:102C0000054602462D480E460B460621784400F044
:102C10005DF82A463346FDF716FCDDE902238246BD
:102C20008B4638462146FDF70EFC04460F465246B9
:102C30005B4628463146FDF706FC22463B46FDF73B
:102C4000FCFB07468A464FF0FF3228463146FDF727
:102C5000C9FE1B4A90450ADA3A465346FDF7EDFB9A
:102C600004B00022BDE8F04D134BFDF7E9BB154A57
:102C70004245A8BFA8F500154FF00004B8BF124D9B
:102C800022462B46FDF7D9FB0646884622462B46B0
:102C900000200949FDF7D1FB04460D463A4653464C
:102CA00030464146FDF7C9FB04B022462B46BDE83D
:102CB000F04DFDF7C5BB00000000F03F1814000008
:102CC0003333D33F0000E93F0000D23F2DE9F0410C
:102CD0004F1E00EBC7010446D1E9000115461E4610
:102CE00037F006020DD02A463346FDF7ACFB7F1EB7
:102CF00004EBC703D3E90023FDF7FEFA37F0060221
:102D0000F1D1022F25D0042F13D0062F18BFBDE814
:102D1000F0812A463346FDF796FBD4E90A23FDF7F6
:102D2000EBFA2A463346FDF78EFBD4E90823FDF77C
:102D3000E3FA2A463346FDF786FBD4E90623FDF77E
:102D4000DBFA2A463346FDF77EFBD4E90423FDF780
:102D5000D3FA2A463346FDF776FBD4E90223FDF782
:102D6000CBFA2A463346FDF76EFBD4E90023BDE8D3
:102D7000F041FDF7C1BA00002DE9FF4D054621F0F5
:102D8000004084B00C46B0F1795F0BDA2846FFF7BB
:102D900046FD042808BF00F071F8284608B0214617
:102DA000BDE8F08D2A460B461046FDF74CFB064663
:102DB0000F462A462346FDF746FB804626488A46AC
:102DC00032463B4605217844FFF780FF8346109842
:102DD000029160B3214A224B40465146FDF733FB36
:102DE000CDE900015A4640465146029BFDF72BFBB8
:102DF00082468846DDE906014FF0FF32FDF7F2FD1D
:102E000052464346FDF719FB32463B46FDF71BFB96
:102E1000DDE90623FDF711FBDDE90023FDF70DFBDE
:102E200008B02A462346BDE8F04DFDF709BB0B4626
:102E30005A4630463946FDF706FB084A084BFDF76F
:102E40005BFA42465346FDF7FEFA08B02A4623468F
:102E5000BDE8F04DFDF750BA5E13000049555555D9
:102E60005555C5BF0122FDF7BDBDFDF745BA00228E
:102E7000134610461146FDF758BB0000024A0020D9
:102E80001107FDF7AFBD000001FDFFFF02E008C81C
:102E9000121F08C1002AFAD170477047002001E0D4
:102EA00001C1121F002AFBD17047000001490860D0
:102EB00070470000D000002003B512480088401C75
:102EC0001049088008460088642190FBF1F201FB5C
:102ED00012000C4908800C490A4A128801EB820052
:102EE000BDF800100180BDF8021041800749054A75
:102EF000128801EB8200BDF804100180BDF80610B5
:102F000041800CBD20000020EC0300207C05002047
:102F10002DE9F84F04460D4621F000400091734919
:102F2000814211DC7249884201DC06D12CB1204675
:102F30002946BDE8F84FFFF795BF6E48002DCCBF7E
:102F40006D496E49BDE8F88F6D49814211DD6D49CB
:102F50008142D8BF4FF0FF366DDD20462946FFF78E
:102F60005EFC042808BFFFF789FF20462946BDE81C
:102F7000F88F6549654F25F00045814233DD64498E
:102F8000814219DD002632464FF080432046294613
:102F9000FDF7B2F980468A46012220462946FDF710
:102FA00021FD00223B46FDF748FA42465346FDF715
:102FB000BCFA04460D463EE001260022BA463B46D6
:102FC00020462946FDF798F980460F4600225346D1
:102FD00020462946FDF731FA42463B46FDF7A5FA61
:102FE00004460D4627E04B4981421BDDDFF828A14E
:102FF00002260022534620462946FDF724FA0022E5
:103000003B46FDF779F980460F460022534620469D
:103010002946FDF712FA42463B46FDF786FA04467A
:103020000D4608E0032622462B4600203B49FDF7CB
:103030007CFA04460D4622462B4610461946FDF7FB
:1030400002FA8B46824602460B46FDF7FCF907461C
:103050000246334888460B4606217844FFF736FE81
:1030600052465B46FDF7EFF982462E488B463A46BC
:10307000434605217844FFF729FE3A464346FDF7CB
:10308000E2F902460B46002E504659460CDAFDF78F
:1030900033F922462B46FDF7D6F901B022462B46DE
:1030A000BDE8F04FFDF7CCB9FDF726F922462B46D7
:1030B000FDF7C9F91C4A7A4402EBC603D3E90023A1
:1030C000FDF7BBF922462B46FDF7B7F9174A7A44BC
:1030D00002EBC603D3E90023FDF7B2F9009A002AF8
:1030E000B8BF81F00041BDE8F88F00000000104437
:1030F0000000F07F182D4454FB21F93FFB21F9BF5C
:103100000000DC3F0000203E0000F33F0000F03FE5
:103110000000E63F008003400000F83F0000F0BFE1
:103120009A0F0000580F0000F60E0000BE0E0000BF
:103130002DE9F04D9446CCF1000423F000464CEA12
:103140000404524F46EAD4749A46884621F000425D
:10315000BC4206D8454240EA050442EAD474BC4267
:1031600004D9BDE8F04D6246FFF77FBEAAF1405595
:10317000A5F17F6555EA0C040BD0022404EAAA7479
:10318000434DDFF810E144EAD87452EA000B04D052
:103190000CE0BDE8F04DFFF7BBBE002C14BF012CC6
:1031A000BDE8F08D022C30D0032C32D056EA0C0B47
:1031B0000AD0BE4220D1BA4209D126F0804622F080
:1031C00080423346114617E000291ADB25E0DFF87C
:1031D000C8B0FB44002C04BFDBE90001BDE8F08D62
:1031E000012C02BFDBE9000181F00041BDE8F08D58
:1031F000022C0AD0032C0CD0BA4212D1B8F1000F25
:103200000BDA23482549BDE8F08D28462449BDE85E
:10321000F08D28467146BDE8F08D1D482149BDE876
:10322000F08D921B12153C2AC4BF19481D490EDCB3
:10323000BAF1000FBEBF12F13C0F0020014606DBC1
:103240006246FDF772F921F00041FFF761FE002CA4
:1032500008BFBDE8F08D012C04BF81F00041BDE83E
:10326000F08D114A114B022C07D0FDF7E6F82A46E3
:10327000BDE8F04D0A4BFDF7E0B8FDF7DEF82A4651
:10328000BDE8F04D064BFDF7DBB800000000F07F15
:10329000182D4454FB2109C0820E0000FB21F9BF08
:1032A000FB210940FB21F93F075C143326A6A13C12
:1032B00070B5044609E0256861684FF0C042124BC2
:1032C0002846FDF7BAF820606160256861684FF014
:1032D000C0420E4B2846FDF715FAECD309E02568ED
:1032E00061684FF0C042084B2846FDF705F82060A2
:1032F0006160256861684FF0C042054B2846FDF7C4
:10330000E9F9ECD370BD0000FB211940FB21094015
:10331000FB2109C000B5244B21F0004287B09A423E
:10332000DCBF0022134629DD204B9A4208D140B968
:103330004FF00100FFF7BAFDFFF799FD07B000BDA0
:1033400003DBFFF78FFD07B000BD02AAFFF77CFA91
:1033500010F0030104BF0DF1080C9CE80F000DD024
:10336000012001290ED0022914D00DF1080C009083
:103370009CE80F00FFF700FD07B000BDFFF728FC39
:1033800007B000BD0DF1080C00909CE80F00FFF79E
:10339000F3FC05E00DF1080C9CE80F00FFF718FCAA
:1033A00007B081F0004100BDFB21E93F0000F07F44
:1033B00070B504460D46E1B20548FFF72AFA00BF92
:1033C00040210348FFF757F90128F9D1204670BD85
:1033D000003801402DE9F341BDF90010BDF904208A
:1033E000891A4943BDF90220BDF90630D21ABDF948
:1033F0000230BDF906609B1B02FB0310FDF70DF9BF
:1034000004460D462046294600F070FC0646FDF7AE
:1034100091F9BDE8FC81000010B5002401210948A4
:10342000FDF75FFD00B9641C02210648FDF759FD58
:1034300000B9641C04210348FDF753FD00B9641C66
:10344000204610BD0010014001211720FEF75AF957
:10345000012144F20500FEF765F901214803FEF75A
:1034600061F901211C20FEF75DF901214FF4402094
:10347000FEF748F9012012498871FEF73DFCFEF77E
:1034800059FAFFF725F80FA000F06EF8FFF782F861
:103490000F48FDF7EDFB0FA000F066F8FDF752FDB9
:1034A000FDF70AFCFEF70AFCFEF71AFFFDF7F2FB38
:1034B000FDF77BFE03E042F21070FDF7D9FBFAE75F
:1034C000E4080020426567696E20536574757000DA
:1034D00020A10700456E64205365747570000000DC
:1034E0002DE9F0414FF08041898C09B24842FDF747
:1034F00094F806460022154BFDF717F80446FDF731
:1035000019F9134988601349098809B24842FDF73F
:1035100084F8064600220D4BFDF707F80446FDF738
:1035200009F90D4988600D49098809B24842FDF73B
:1035300074F806460022054BFCF7F7FF0446FDF73A
:10354000F9F807498860BDE8F08100000000F43F09
:103550009C08002024040040B408002024080040F7
:10356000CC080020FFF724BF10B5044601E0FFF7A8
:103570001FFF14F8010B04490028F8D1BDE81040E2
:103580000A20FFF715BF0000CC0000202DE9F3430F
:1035900083B0BDF91200BDF90E10401A0290BDF9BA
:1035A0001000BDF90C10401A0190DDE9011008432C
:1035B00068B10198FDF731F806460F460298FDF70D
:1035C0002CF8804632463B46FFF7B2FD01E0002072
:1035D00001460446FDF7AEF800900098FDF766F846
:1035E00005B0BDE8F08300002DE9F04F8BB0FE4838
:1035F000408AADF81000FC48808AADF81200FA4805
:10360000C089ADF81400F848008AADF81600DDE96D
:103610000401FFF7DFFE8046F348C08AADF81000D2
:10362000F148008BADF81200EF48C089ADF81400E6
:10363000ED48008AADF81600DDE90401FFF7CAFE87
:103640008046FDF733F8CDE90801E748408AADF838
:103650001000E548808AADF81200E348C08AADF852
:103660001400E148008BADF81600DDE90401FFF716
:10367000B1FE8046FDF71AF8CDE90601DB48066881
:103680004768D948408AADF81000D748808AADF81D
:103690001200D548C089ADF81400D348008AADF8AF
:1036A0001600DDE90401FFF771FFCF48408AADF84D
:1036B0001000CD48808AADF81200CB48C08AADF822
:1036C0001400C948008BADF81600DDE90401FFF7CE
:1036D0005DFF04460D46C448807901287DD1FDF781
:1036E0000FFC60B36920C249088094204880BE481E
:1036F000408AADF81000BC48808AADF81200084638
:103700000088ADF8140008464088ADF81600DDE9E1
:103710000401FFF73BFF804632463B46FCF78DFE37
:10372000B44A106051601046FFF7C2FDB2496220F2
:10373000FFF718FFB0490A20FFF714FF76E2FFF702
:103740006BFE70BBA848C089A9490880A648008ABA
:103750004880A548408AADF81000A348808AADF89B
:10376000120008460088ADF8140008464088ADF8FD
:103770001600DDE90401FFF709FF804632463B46AB
:10378000FCF75BFE9B4A106051601046FFF790FD0E
:1037900099497320FFF7E6FE97490A20FFF7E2FEFA
:1037A00044E2FFE79048B0F914001E2838DA8E484A
:1037B000B0F91200912833DA8B48B0F91200412891
:1037C0002EDD69208A490880052048808648408A85
:1037D000ADF810008448808A00E051E1ADF8120095
:1037E00008460088ADF8140008464088ADF8160079
:1037F000DDE90401FFF7CAFE804632463B46FCF78E
:103800001CFE7C4A106051601046FFF751FD7A495A
:103810006120FFF7A7FE78490A20FFF7A3FE05E223
:103820007148B0F91410B0F91800814204DA6E48FA
:10383000B0F91400372806DA0022704BDDE90601E2
:10384000FCF760FF2CD26920694908801920488064
:103850006548408AADF810006348808AADF81200D0
:1038600008460088ADF8140008464088ADF81600F8
:10387000DDE90401FFF78AFE804632463B46FCF74D
:10388000DCFD5C4A106051601046FFF711FD5A499B
:103890007020FFF767FE58490A20FFF763FEC5E175
:1038A0000022134620462946FCF714FF70D24FF041
:1038B000C042534B20462946FCF724FF68D225F02E
:1038C0000041A246504600F0C1F900224B4BCDE921
:1038D0000001FCF7B8FD804689464349B1F916005E
:1038E000FCF79BFE42464B46CDE90201FCF7A5FDE5
:1038F000CDE90401FCF7BBFE00B23D49088025F08C
:103900000041A0464046FFF705FD00223B4BCDE9B4
:103910000001FCF798FD82468B463349B1F9180047
:10392000FCF77BFE52465B46CDE90201FCF785FDC4
:10393000CDE90401FCF79BFE00B22D4948802A48DE
:10394000408AADF810002848808AADF81200084679
:103950000088ADF8140008464088ADF81600DDE98F
:103960000401FFF713FE804632463B46FCF765FD37
:10397000204A106051601046FFF79AFC1E496C20E7
:10398000FFF7F0FD1C490A20FFF7ECFD4EE1FFE7D1
:1039900025F00041A046404600F058F90022174BA0
:1039A000CDE90001FCF74FFD82468B460E49B1F987
:1039B0001600FCF732FE52465B46CDE90201FCF7E9
:1039C0009BFCCDE90401FCF752FE00B208490880D7
:1039D00025F00040CDE9004020460199FFF79AFC10
:1039E00080460022054B0DE0E4080020180000206E
:1039F0002200002028000020CC00002000003940D8
:103A0000FB21F9BFFCF71FFD82468B468949B1F9BE
:103A10001800FCF702FE52465B46CDE90201FCF7B6
:103A20006BFCCDE90401FCF722FE00B2824948801C
:103A30008048408AADF810007E48808AADF81200B8
:103A400008460088ADF8140008464088ADF8160016
:103A5000DDE90401FFF79AFD804632463B46FCF75C
:103A6000ECFC764A106051601046FFF721FC744967
:103A70007220FFF777FD72490A20FFF773FDD5E04A
:103A80007048006800287DD000226F4BDDE90801F6
:103A9000FCF720FE2ED26748C08A67490880654837
:103AA000008B48806348408AADF810006148808AE6
:103AB000ADF8120008460088ADF8140008464088AA
:103AC000ADF81600DDE90401FFF760FD80463246DF
:103AD0003B46FCF7B2FC594A106051601046FFF7B4
:103AE000E7FB57496320FFF73DFD55490A20FFF7E3
:103AF00039FD9BE0FFF790FC60B396204E490880AB
:103B0000C82048804B48408AADF810004948808A58
:103B1000ADF8120008460088ADF814000846408849
:103B2000ADF81600DDE90401FFF730FD80463246AE
:103B30003B46FCF782FC414A106051601046FFF79B
:103B4000B7FB3F496520FFF70DFD3D490A20FFF710
:103B500009FD6BE03748C089374908803548008A3D
:103B600048803448408AADF810003248808AADF869
:103B7000120008460088ADF8140008464088ADF8E9
:103B8000160000E017E0DDE90401FFF7FFFC8046C6
:103B900032463B46FCF751FC284A10605160104603
:103BA000FFF786FB26497320FFF7DCFC24490A2037
:103BB000FFF7D8FC3AE01F49B1F9161001F169008E
:103BC00000EBD071491009B21B4A11801949B1F9B3
:103BD0001810481D00EBD071491009B251801548EA
:103BE000408AADF810001348808AADF812001046E4
:103BF0000088ADF8140010464088ADF81600DDE9E5
:103C00000401FFF7C3FC804632463B46FCF715FC37
:103C10000A4A106051601046FFF74AFB08496820C5
:103C2000FFF7A0FC06490A20FFF79CFC0BB0BDE89B
:103C3000F08F0000E408002022000020280000206F
:103C4000CC0000200000002000002E4000B5254BD5
:103C500021F0004287B09A4203DC00221346009212
:103C60002BE0214B9A4208D140B94FF00100FFF7F9
:103C70001DF9FFF7FCF807B000BD03DBFFF7F2F812
:103C800007B000BD02AAFEF7DFFD10F003014FF000
:103C900001000DD0012914D002291AD00DF1080C11
:103CA0009CE80F00FEF794FF07B081F0004100BDD3
:103CB0000DF1080C00909CE80F00FFF75DF807B0CD
:103CC00000BD0DF1080C9CE80F00FEF781FF07B066
:103CD00000BD0DF1080C00909CE80F00FFF74CF8B8
:103CE000E2E70000FB21E93F0000F07F2DE9F04111
:103CF00006460F46FCF713FE041E0D4618BF0120B2
:103D0000284320F00040C0F17F6000F1E040C00F88
:103D10000ED0301C18BF0120384320F00040C0F105
:103D20007F6000F1E040C00F04BF0120FFF7BEF844
:103D300020462946BDE8F0812DE9F04F8DB08A4933
:103D400008684968FCF7F6FC834688480068FCF779
:103D5000ADFCCDE908015846FCF7A8FC844A854B28
:103D6000CDE90001FCF769FB8046FFF7D3FA044672
:103D70000D4681480068FCF799FC064622462B4612
:103D8000FCF761FBCDE904015846FCF78FFC0646C1
:103D9000774A784BFCF751FBCDE90001FFF756FF5E
:103DA00004460D4675480068FCF780FC80462246B4
:103DB0002B46FCF748FBCDE90201DDE90423FCF7C3
:103DC0003CFBCDE90601DDE90823FCF795FACDE9D6
:103DD0000A01FCF7AFFC6A49086064480068FCF718
:103DE00065FCCDE908015846FCF760FC8046FFF70A
:103DF00091FA04460D4660480068FCF757FC0646F9
:103E000022462B46FCF71FFBCDE904015846FCF780
:103E10004DFC8046FFF71AFF04460D4657480068E0
:103E2000FCF744FC064622462B46FCF70CFBCDE98A
:103E30000201DDE90423FCF700FBCDE90601DDE921
:103E40000823FCF759FACDE90A01FCF773FC4C4949
:103E5000486046480068FCF729FCCDE9080158464F
:103E6000FCF724FC424A434BCDE90001FCF744FA3D
:103E70000646FFF74FFA04460D463F480068FCF738
:103E800015FC804622462B46FCF7DDFACDE90401FD
:103E90005846FCF70BFC0646354A364BFCF72CFA25
:103EA0000446FFF7D3FE8046894634480068FCF795
:103EB000FDFB42464B46CDE90001FCF7C4FACDE9D3
:103EC0000201DDE90423FCF7B8FACDE90601DDE9DA
:103ED0000823FCF711FACDE90A01FCF72BFC28496D
:103EE00088600A4651681068FCF74AFC02D22448F0
:103EF000006801E0224840688246214881685046B7
:103F0000FCF73EFC01D2504601E01D488068824625
:103F10005046FCF7CBFB044600221A4BFCF7F2FBA1
:103F20001ED2174908685146FCF7A8F904461649FD
:103F3000FCF772F91249086048685146FCF79EF98F
:103F400004461149FCF768F90D49486088685146F4
:103F5000FCF794F904460C49FCF75EF908498860BF
:103F60000DB0BDE8F08F00001800002038000020E0
:103F70008D976E1283C00040340000203000002076
:103F8000E0030020000054400000A04200000000B8
:103F90004FBB610567ACDD3F182D4454FB21E93F61
:103FA0009BF681D20B73EF3F182D4454FB21F93F50
:103FB000E2652F227F2B7A3C075C143326A6813CD6
:103FC000BDCBF07A8807703C075C143326A6913C81
:103FD000C4EB98999999C9BF711623FEC671BCBFED
:103FE0006D9A74AFF2B0B3BF9AFDDE522DDEADBF55
:103FF0002F6C6A2C44B4A2BF0D5555555555D53F6D
:10400000FF8300922449C23F6E204CC5CD45B73F87
:10401000513DD0A0660DB13FEB0D76244B7BA93FFF
:1040200011DA22E33AAD903F4C5555555555A53F11
:104030007751C1166CC156BF9015CB19A001FA3E3D
:10404000AD529C804F7E92BEC4B1B4BD9EEE213E67
:10405000D43888BEE9FAA8BD0000000000000000C6
:1040600000004054FB21F93F3163621A61B4D03D36
:104070000000601A61B4D03D7370032E8A19A33B0F
:104080000000002E8A19A33BC14920259A837B3961
:1040900000000000000000006E83F9A22915444EC4
:1040A000D15727FCC0DD34F5999562DB4190433C44
:1040B000AB6351FE61C5BBDE3A6E24B7E0D24D4220
:1040C000EA2E49061C92D1091CEB1DFE3EA729B120
:1040D000F53582E88444BB2E26709CE9417E5FB4AE
:1040E00039D69139F43953838B5F849C3B28F9BDD1
:1040F000FF97F81F0F9805DE8B112FEF1F6D0A5ADF
:10410000CF7E366DB709CB27663F464F2DEA5F9EBF
:10411000C7BA27757BF1E5EBF739073DEA92528A7A
:10412000B15FFB6B085D8D1FA6F810111111813F67
:10413000D561C119A0012ABF7DFEB157E31DC73E5D
:10414000EB9C2B8AE6E55ABE7CD5CF5A3AD9E53DA1
:104150007041000800000020D40000008C2E0008F0
:1041600044420008D4000020240D00009C2E0008CA
:10417000010000000000000000000000000000003E
:10418000000000000000000000000000000000002F
:10419000000000000000000000000000000000001F
:1041A000000000000000000000000000CDCCCC3D6D
:1041B000CDCC4C3DCDCCCC3D00004843000048C3A5
:1041C0000000484200000000000000000000000065
:1041D00000000000000000000000000000000000DF
:1041E00000000000000000000000000000000000CF
:1041F00000000000000000000000000000000000BF
:1042000000000000000000000000000000000000AE
:104210000000000000010203040102030406070875
:10422000090204060800000000A24A040000000081
:104230000000000001020304060708090000000056
:04424000000000007A
:0400000508000131BD
:00000001FF
