:020000040800F2
:10000000188A0020450100087D1B0008C314000861
:10001000C51800082D0A00088F30000800000000F5
:10002000000000000000000000000000892000081F
:10003000310A000800000000711F000819230008A1
:100040005F0100085F0100085F0100085F01000810
:100050005F0100085F0100085F0100085F01000800
:100060005F0100085F0100085F0100085F010008F0
:100070005F0100085F0100085F0100085F010008E0
:100080005F0100085F0100085F0100085F010008D0
:100090005F0100085F0100085F0100085F010008C0
:1000A0005F0100085F0100085F0100085F010008B0
:1000B0005F0100085F0100085F0100085F010008A0
:1000C0005F0100085F0100085F0100085F01000890
:1000D0005F010008612D00085F0100085F01000852
:1000E0005F0100085F0100085F0100085F01000870
:1000F0005F0100085F0100085F0100085F01000860
:100100005F0100085F0100085F0100085F0100084F
:100110005F0100085F010008392600085F01000840
:100120005F0100085F0100085F0100085F0100082F
:10013000DFF80CD000F044FC004800473D3C0008CC
:10014000188A00200648804706480047FEE7FEE779
:10015000FEE7FEE7FEE7FEE7FEE7FEE7FEE7FEE777
:100160009923000831010008F0B480EA0102D40F9D
:100170004200B2EB410F02D20246084611464A0045
:1001800042D0C30DDDB2C1F3C752AD1A202D35DA0E
:10019000C1F3160141F4000204B15242C5F1200638
:1001A00002FA06F12A411044B3EBD05F23D0C4B168
:1001B000012DA0EBC35009DCF0BC4FF0004202EA75
:1001C000C352DBB200F5000000F01EBB400000F19E
:1001D000807000EBC350A0F1807040EAD1704900FC
:1001E00009E0490841EAC071A0EBC35000F50000E6
:1001F000400800EBC350F0BC00F0FDBA61420122A0
:1002000002EB4101001BF6E7F0BC704781F00041B2
:10021000AAE780F00040A7E780EA010210B502F0EB
:100220000043400022D04A001FD0010E01EB1261B2
:10023000C0F35600C2F3560240F4000042F400023C
:10024000A0FB022000047F39140400D0401C50EAB7
:10025000124001D44000491EC2B20C0604EBD0107B
:10026000401C4008802A02D003E0002010BD20F08E
:100270000100002900DA0020184310BD30B480EAE4
:10028000010202F0004530F0004221F0004013D09E
:1002900090B1C30DD40DC2F31601C0F31600E41AD9
:1002A00041F4000140F400027D34914201D3641C0A
:1002B00000E04900002C02DA30BC002070474FF407
:1002C00000000023914201D3891A034340084FEAFA
:1002D0004101F7D151B1914202D14FF0004105E007
:1002E00002D24FF0010101E06FF0010103EBC450B5
:1002F000284430BC00F07FBA2DE9FE4F804681EAE9
:100300000300C00F0C46009021F0004123F000458F
:10031000B8EB0200A94105D24046214690461C4652
:100320000B46024623F00040104347D0270DC7F389
:100330000A00C3F30A510290401A019040286BDA78
:10034000C3F3130040F4801B0098924620B10023B1
:10035000D2EB030A63EB0B0B01985946C0F1400244
:10036000504600F017FA06460D4650465946019A87
:1003700000F02FFA10EB08006141002487EA1152C7
:1003800084EAE7731A4340D0009A62B3019A012AC3
:100390004FEA075215DC001B61EB02014FF00042EF
:1003A00002EA0752CDE90042001C41F580113246B5
:1003B0002B4600F066FA03B0BDE8F08F40462146B8
:1003C000F9E7001B61EB0201001C41F580130018E6
:1003D0005B412018A2F5001747EB030140EAD570F6
:1003E000B6196D4111E06D084FEA360645EAC07551
:1003F0004FEA0752001B61EB0201001C41F580111E
:1004000049084FEA30000019514132462B4603B0EB
:10041000BDE8F04F00F026BA00980122400000230A
:10042000D0EB020263EBE073009821464FEAE074E0
:10043000B8EB000061EB0401E9E783F000435BE700
:1004400081F0004158E72DE9FE4F81EA030404F0F2
:10045000004421F0004100944FF0000B23F00043D2
:1004600050EA01045ED052EA03045BD0C3F30A549D
:10047000C1F30A552C44A4F2F3340194A0FB0254B6
:10048000C1F3130141F48011C3F3130343F4801348
:1004900001FB024400FB034E840A970A44EA81549C
:1004A00047EA8357A4FB076802958D0A05FB078579
:1004B0004FEA932C04FB0C542705029D4FEA065883
:1004C00047EA1637B5EB08056EEB070C870E920E60
:1004D00047EA811742EA8312A7FB0201B6EB0B0140
:1004E00064EB00042B0D43EA0C335E1844EB1C5004
:1004F000DA465146E7FB0201C5F313044FEA0B331A
:1005000043EA14534FEA0432019C43EA0603A4F180
:100510000C040294009CCDE900B400F0B2F903B0E1
:10052000BDE8F08F00200146F9E72DE9F04D81EAA2
:10053000030404F0004B21F0004514464FF0000A7C
:1005400023F0004150EA050220D054EA01021DD0F8
:10055000C5F30A570246C5F31303C1F31300C1F3F1
:100560000A5640F4801543F48013A7EB0608101BCD
:10057000D64608F2FD3873EB050002D308F10108F6
:1005800001E092185B41B8F1000F03DA0020014648
:10059000BDE8F08D00204FF48011064684460EE041
:1005A000171B73EB050705D3121B63EB050306430B
:1005B0004CEA010C49084FEA300092185B4150EABE
:1005C0000107EDD152EA030012D082EA040083EA67
:1005D0000501084305D0101BAB4106D201220023C0
:1005E00006E000224FF0004302E06FF001025310DA
:1005F0001AEB06004CEB085110EB0A0041EB0B0123
:10060000BDE8F04D00F02EB9C10F80EAE07008445B
:10061000CA079623002100F0F7B80EB5C10F80EA93
:10062000E0700844CA07002140F233438DE80E0011
:100630000A460B4600F025F903B000BD00F0004269
:1006400020F00040C10DC0F3160040F400007F29E7
:1006500001DA00207047962903DCC1F19601C840F9
:1006600001E096398840002AF4D04042704770B5C6
:10067000C1F30A5201F000450024C1F3130140F216
:10068000FF3341F480119A4201DA002070BD40F23C
:1006900033439A42A2F2334203DC524200F089F81B
:1006A00000E090402C43F1D0404270BD00F0004289
:1006B00030F000400AD0C10D01F56071C0F31600A2
:1006C00042EA0151C2084007114370470020014629
:1006D0007047000030B5041E71F1000404DB4FF0D8
:1006E0000044404264EB0101141E73F1000405DB79
:1006F0001C464FF00043524263EB04038B4208BF99
:10070000824230BD30B5041E71F1000404DB4FF0AD
:100710000044404264EB0101141E73F1000405DB48
:100720001C464FF00043524263EB0403994208BF5A
:10073000904230BD01F0004330B421F0004150EA56
:10074000010206D00A0DA2F56072C1F31301002A5E
:1007500002DC30BC00207047440F44EAC104C100F1
:10076000E01830BC00EBC25000F045B8002801DBB7
:10077000C0F10040002901DBC1F100418142704716
:10078000002801DBC0F10040002901DBC1F100417C
:1007900088427047202A04DB203A00FA02F1002048
:1007A00070479140C2F1200320FA03F319439040AF
:1007B0007047202A04DB203A21FA02F0002170471A
:1007C00021FA02F3D040C2F12002914008431946B9
:1007D0007047202A06DBCB17203A41FA02F043EAA1
:1007E000E07306E041FA02F3D040C2F120029140EA
:1007F0000843194670470029A8BF7047401C4900AC
:1008000008BF20F00100704710B4B0FA80FC00FA75
:100810000CF050EA010404BF10BC704749B1CCF1A0
:10082000200421FA04F411FA0CF118BF012121432C
:100830000843A3EB0C01CB1D4FEA00614FEA1020E7
:1008400042BF002010BC704700EBC3501044002989
:10085000A4BF10BC7047401C490008BF20F0010035
:1008600010BC704710B5141E73F1000408DA401C68
:1008700041F1000192185B411A4301D120F00100BF
:1008800010BD2DE9F04D92469B4611B1B1FA81F2AF
:1008900002E0B0FA80F220329046FFF77BFF044678
:1008A0000F4640EA0A0041EA0B0153465A46084304
:1008B00013D0114653EA010019D0C8F14002504646
:1008C000FFF777FF05460E46504659464246FFF76A
:1008D00061FF084305D0012004E020463946BDE809
:1008E000F08D0020054346EAE0762C4337430A9812
:1008F0006305E40AA0EB08000022FD0A44EA47541D
:100900000A3002D500200146E9E7010510196941C6
:10091000DDE9084500196941BDE8F04DA2E72DE980
:10092000F04D00231A461B1A8A4103DB00200146C2
:10093000BDE8F08DC1F30A52C1F3130141F48015F3
:100940004FF0000BD10702D100186D41521E002755
:10095000044640F2FF11384601EB620A3E468046EB
:10096000024600204FF48011FFF723FFC2197141A6
:10097000BB1846EB0100B4EB030C75EB000C04D381
:10098000E41A65EB000517460E46241908F101002C
:100990006D4180463428E3DDF91946EB0600091B5A
:1009A000A84103D24FF0FF32134601E00022134664
:1009B0001BEB070046EB0A51BDE8F04DFFF752BFB5
:1009C000064C074D06E0E06840F0010394E807009C
:1009D00098471034AC42F6D3FFF7AEFBA8440008AA
:1009E000C844000870B521F0004303430CD0C1F3A4
:1009F0000A550024D5EB040564EB0403D617AD1AA1
:100A0000B34102DB0020014670BD201841EB0251CA
:100A100070BD0EB540F2334102910021CDE90011C5
:100A20000A460B46FFF72DFF03B000BD00BFFEE7EF
:100A3000704700002DE9F05F40484149098830F9CE
:100A4000210040493E4A128831F92210451A3B489C
:100A50003B49098800EB8100B0F902003949384A66
:100A6000128801EB8201B1F90210441A05FB05F16D
:100A700004FB0410FFF7D1FD074603F031FB82466B
:100A8000FFF7F5FD06464FF0010900212E480068EA
:100A9000FFF76CFE01D24FF0FF39C820684390FB8E
:100AA000F6F73846FFF7B0FD28490860C8206043D4
:100AB00090FBF6F73846FFF7A7FD25490860224866
:100AC0000068FFF7F3FD21F0004107460022214BAB
:100AD000FFF718FE05D200201C4908601C49086079
:100AE0002AE019480068FFF7E1FD21F000410746C0
:100AF0000022194BFFF706FE07D2C82109FB01F0BF
:100B0000FFF782FD1549086016E00F480068FFF7FF
:100B1000CDFD21F0004107460022114BFFF7F2FD09
:100B200007D209EB89010801FFF76EFD0B49086048
:100B300002E0002009490860BDE8F09F948200208F
:100B400014000020048100201C0000202000002050
:100B5000240000200000F83F0000E03F28000020B3
:100B60000000D03F074908604FF0E021096941F0DB
:100B700001014FF0E022116100BF0249096800291C
:100B8000FBD170470000002000B587B0C320ADF84E
:100B9000180004208DF81B0003208DF81A0006A908
:100BA000334800F07BF8C020ADF8180004208DF821
:100BB0001B0003208DF81A0006A92E4800F06EF8DD
:100BC0000020ADF80C004FF6FF70ADF810000020CB
:100BD000ADF81200ADF80E0003A94FF0804001F00F
:100BE000F7FF03A9244801F0F3FF03A9234801F00C
:100BF000EFFF00231A4603214FF0804001F0C6FDAD
:100C000000231A4603211C4801F0C0FD00231A46A8
:100C100003211A4801F0BAFD684601F03FFE0620A4
:100C2000ADF8080069464FF0804001F0E1FD6946EB
:100C3000114801F0DDFD6946104801F0D9FD0020A2
:100C40004FF0804188840C49243108800B492431BD
:100C500008800121880701F07EFD0121064801F08E
:100C60007AFD0121054801F076FD07B000BD0000C6
:100C700000080140000C0140000400400008004052
:100C800000204FF080418884024908800249088092
:100C90007047000024040040240800402DE9F04182
:100CA000024600250026002000230024002791F89A
:100CB00003C00CF00F0591F803C00CF0100CBCF150
:100CC000000F03D091F802C04CEA050591F800C06E
:100CD000BCF1000F31D0146800202BE04FF0010C64
:100CE0000CFA00F3B1F800C00CEA03069E4220D1D2
:100CF00083004FF00F0C0CFA03F7BC4305FA03FC1A
:100D00004CEA040491F803C0BCF1280F06D14FF05F
:100D1000010C0CFA00FCC2F814C00AE091F803C000
:100D2000BCF1480F05D14FF0010C0CFA00FCC2F8E1
:100D300010C0401C0828D1D31460B1F800C0BCF129
:100D4000FF0F34DD546800202EE000F1080C4FF056
:100D5000010808FA0CF3B1F800C00CEA03069E4241
:100D600021D183004FF00F0C0CFA03F7BC4305FAB6
:100D700003FC4CEA040491F803C0BCF1280F05D130
:100D800000F1080C08FA0CF8C2F8148091F803C0BE
:100D9000BCF1480F07D100F1080C4FF0010808FA28
:100DA0000CF8C2F81080401C0828CED35460BDE86F
:100DB000F081416170470161704700002DE9FC41FD
:100DC0003B2000F06FFB0746FFF71EFC06464FF086
:100DD0008E41FFF753FA05465849FFF71DFA0446BE
:100DE000574801682046FFF711FA564908603D2030
:100DF00000F058FB0746FFF707FC06464FF08E4110
:100E0000FFF73CFA05464D49FFF706FA04464E48FF
:100E100001682046FFF7FAF94C4908603F2000F0CE
:100E200041FB0746FFF7F0FB06464FF08E41FFF708
:100E300025FA05464149FFF7EFF9044644480168A1
:100E40002046FFF7E3F943490860432000F02AFBFE
:100E50000746FFF7D9FB06464FF08E41FFF70EFA23
:100E600005463D49FFF7D8F904463C48016820464D
:100E7000FFF7CCF93A490860452000F013FB07461C
:100E8000FFF7C2FB06464FF08E41FFF7F7F9054624
:100E90003149FFF7C1F90446324801682046FFF79F
:100EA000B5F931490860472000F0FCFA0746FFF722
:100EB000ABFB06464FF08E41FFF7E0F905462649A9
:100EC000FFF7AAF90446294801682046FFF79EF972
:100ED00027490860274922480068FFF7CFF90446F0
:100EE0002549FFF799F91E49086022491E48006804
:100EF000FFF7C4F904462049FFF78EF91A49086044
:100F00001C491B480068FFF7B9F904461A49FFF766
:100F100083F9174908600846006813490968CDE954
:100F200000100F4803680B4802680848016805482C
:100F3000006800F023F8BDE8FC810000CDCC9C41A6
:100F40007C00002064000020800000206800002059
:100F5000840000206C0000200000FA44880000207B
:100F6000700000208C000020740000209000002001
:100F70007800002000003443DB0F49402DE9F04F9A
:100F80008DB005460E461446994621462046FFF789
:100F900043F931460A903046FFF73EF9294608905A
:100FA0002846FFF739F907900899FFF7DDF809900F
:100FB0000A99FFF7D9F80B90FFF778FB074603F083
:100FC0008FF88246FFF7B6FBFE49086008460168C5
:100FD0002846FFF753F90546FA4801683046FFF7FF
:100FE0004DF90646F74801682046FFF747F90446E1
:100FF000F5480168F5480068FFF70EF98046F448A7
:101000000168F4480068FFF707F982464146FFF798
:10101000FDF807464FF08041FFF7FEF8EE49086003
:10102000EB480168E8480068FFF7F6F88046E948B1
:101030000168E6480068FFF7EFF882464146FFF78F
:1010400093F807464FF08041FFF7E6F8E349086060
:10105000DF4801680068FFF7DFF88246DA48016878
:101060000068FFF7D9F80B90DA4801680068FFF7CD
:10107000D3F88346D54801680068FFF7CDF8594694
:101080000A90FFF7C3F880460B99FFF7BFF80746B1
:101090005146FFF769F8D2490860D04801682046F8
:1010A000FFF7BAF80746CE4801683046FFF7B4F8B4
:1010B00080463946FFF7AAF8CA490860C84801685F
:1010C0002846FFF7A9F80746C34801682046FFF7FE
:1010D000A3F880463946FFF799F8C3490860BE482F
:1010E00001683046FFF798F80746BC480168284673
:1010F000FFF792F880463946FFF788F8BB49086049
:101100000021B8480068FFF787F88046B849FFF724
:1011100083F80746B74801683846FFF725F8B54910
:1011200008600021B0480068FFF776F88046B049B3
:10113000FFF772F80746B04801683846FFF714F821
:10114000AD4908600021A9480068FFF765F88046AE
:10115000A749FFF761F80746A84801683846FFF736
:1011600003F8A64908609F480168A548FFF754F8AE
:101170008046A04801684046FEF7F6FF074649460C
:10118000FEF7F2FF8146984801689D48FFF744F852
:101190008046994801684046FEF7E6FF07461699E3
:1011A000FEF7E2FF1690914801689548FFF734F882
:1011B0008046924801684046FEF7D6FF07461799D9
:1011C000FEF7D2FF1790824817990068FFF724F8BE
:1011D0000B907D4816990068FFF71EF80A907D482D
:1011E000006880F0004049460990FFF715F88346F3
:1011F0000A99FFF70BF882460B99FFF707F880462C
:101200008049FFF709F80746704801683846FEF73D
:10121000ABFF6E4908606E4816990068FEF7FCFF48
:101220000B90694817990068FEF7F6FF49460A9047
:1012300066480068FEF7F0FF83460A99FEF794FFC0
:1012400082460B99FEF7E2FF80466E49FEF7E4FF07
:101250000746604801683846FEF786FF5D4908602A
:1012600049465B480068FEF7D7FF0B90594817992D
:101270000068FEF7D1FF8346544816990068FEF7D0
:10128000CBFF59460A90FEF7C1FF82460B99FEF745
:101290006BFF80465B49FEF7BFFF07464A4801687F
:1012A0003846FEF761FF48490860494646480068ED
:1012B000FEF7B2FF8346474816990068FEF7ACFF79
:1012C0000B90424817990068FEF7A6FF0A900B9909
:1012D000FEF74AFF82465946FEF798FF8046494985
:1012E000FEF79AFF07463A4801683846FEF73CFF8A
:1012F00037490860084601680068FEF78DFF0A90CC
:10130000314801680068FEF787FF0890314801689E
:101310000068FEF781FF06902C4801680068FEF720
:101320007BFF05900699FEF71FFF07900899FEF7CF
:101330001BFF09900A99FEF717FF0B90FFF7B6F90C
:10134000074602F0CDFE8246FFF7F4F91D4908601A
:10135000084601681D480068FEF790FF1B490860B9
:10136000184801681B480068FEF788FF19490860A3
:101370001448016814480068FEF780FF12490860AD
:101380001048016812480068FEF778FF10490860AD
:10139000084601680068FEF73FFF03900A480168AD
:1013A0000068FEF739FF02900A4801680068FEF7FE
:1013B00033FF8346054801680068FEF72DFF594654
:1013C000019021E0A00000205000002048000020F3
:1013D000540000204C000020A4000020A8000020A1
:1013E000AC000020B0000020B4000020B8000020B5
:1013F000CDCC4C3D580000205C0000206000002057
:101400000AD7A33BCDCCCC3CFEF7AEFE8246029978
:10141000FEF7FCFE80460399FEF7F8FE0746FFF74D
:1014200045F9CDE906011848016818480068FEF73B
:10143000F3FE83461648016816480068FEF7ECFE86
:1014400059460390FEF790FE8246FFF72FF90746B4
:1014500000224FF08043FEF7F6FFCDE90401DDE9FD
:10146000062302F09FFA81F000410B4A0B4BCDE9B5
:101470000801FFF75AF8CDE90A01FFF75BF90849BF
:1014800008600DB0BDE8F08F540000204800002037
:10149000500000204C000020AE47E17A14AEFB3F24
:1014A0009C00002070B50446204600F019F805465F
:1014B000611CC8B200F014F8064606EB052000B225
:1014C00070BD00BFFEE721B1028842F48062028055
:1014D00004E002884FF6FF331A4002807047000094
:1014E00070B5044600BF4FF400312D4800F0F0F80D
:1014F0000028F8D101212A4800F0D2F800BF29497C
:10150000274800F091F80028F9D00022D021244883
:1015100000F09AF900BF2449214800F085F800281E
:10152000F9D001211E4800F094F821461C4800F033
:1015300094F900BF1C49891C194800F075F800286F
:10154000F8D00121164800F0ABF800BF1549144847
:1015500000F06AF80028F9D00122D021104800F0EC
:1015600073F900BF0F49491C0D4800F05DF80028D1
:10157000F8D000210A48FFF7A6FF0121084800F033
:101580009BF800BF07493F31054800F04DF800289F
:10159000F8D0034800F054F90546284670BD000015
:1015A00000580040010003008200070070B50446A7
:1015B0000D460121194800F073F800BF184917487B
:1015C00000F032F80028F9D00022D021134800F0B2
:1015D0003BF900BF1349114800F026F80028F9D064
:1015E00021460E4800F039F900BF0E49891C0B480E
:1015F00000F01AF80028F8D02946084800F02DF924
:1016000000BF0849891C054800F00EF80028F8D0F2
:101610000121024800F050F870BD00000058004061
:10162000010003008200070070B502460024002577
:1016300000230020958A138B1B0445EA030626F03D
:101640007F4404EA01068E4201D1012000E000201F
:1016500070BD21B1028842F00102028004E00288DC
:101660004FF6FE731A4002807047000008B5012152
:10167000082000F08FFC0121880500F07BFC4FF46E
:101680004060ADF8000003208DF802001C208DF8AA
:10169000030069460148FFF701FB08BD000C01404B
:1016A00021B1028842F48072028004E002884FF681
:1016B000FF631A400280704721B1028842F4007231
:1016C000028004E002884FF6FF531A400280704700
:1016D0000CB50246002000230193009300920B0FEB
:1016E000019321F07F41019B1BB1009B14330093B8
:1016F00003E0090C009B18330093009B1B680B4010
:101700000BB1012000E000200CBD00002DE9F043EA
:1017100085B004460D460026B1460427DFF8CC808C
:10172000A6884FF6C0700640684600F043FCDDF81E
:1017300008802F48B8FBF0F01FFA80F946EA090646
:10174000A68020884FF6FE71084020800026294997
:10175000286888420CD828684000B8FBF0F087B2AF
:10176000042F00DA04273E4309F10100208427E01A
:10177000E8884BF6FF71884206D1286800EB4000EC
:10178000B8FBF0F087B209E0286800EBC00101EB7C
:101790000010B8FBF0F087B247F48047C7F30B00A6
:1017A00008B947F0010747F4004006434FF496702C
:1017B00009FB00F04FF47A7190FBF1F0401C20849B
:1017C000A683208840F00100208026884FF6F5305F
:1017D0000640A8886989084306432680A889298984
:1017E0000843208105B0BDE8F083000000127A00B4
:1017F00040420F00A086010010B5FFF737FF00F050
:1018000001F810BD1FB50020ADF804004FF4806052
:10181000ADF80A000001ADF80C004CF25030009019
:1018200069460648FFF772FF01210448FFF711FFE0
:1018300001210248FFF747FE1FBD0000005800408D
:101840000146088AC0B2704712B141F0010102E0BE
:101850004FF6FE731940018270470182704710B540
:1018600000216B20FFF7A2FE07211920FFF79EFE43
:1018700006211A20FFF79AFE18211B20FFF796FE7B
:1018800001211C20FFF792FE10BD000008B50C20BE
:10189000ADF8000010208DF8030003208DF8020041
:1018A00069460648FFF7FAF940F20330ADF8000048
:1018B00069460348FFF7F2F908BD0000000801403F
:1018C000000C014000BFFEE710B502F0F9F9FFF788
:1018D000D7F902F067FAFFF7ADF802F027FC00F045
:1018E000B3F900F0E1F810BD2DE9FC4781468A46C6
:1018F0000024B9F1640F01DD642406E019F1640FDE
:1019000002DA6FF0630400E04C4644BBBAF1000F0A
:1019100006D0BAF1010F0CD0BAF1020F1DD111E0BF
:1019200004215B48FFF745FA08215948FFF741FABF
:1019300014E001215748FFF73CFA02215548FFF710
:1019400038FA0BE04FF480715248FFF732FA4FF447
:1019500000715048FFF72DFA00E000BF96E0002C20
:1019600048DD2046FEF759FE07464B4A4B4BFEF733
:101970006AFD054600224A4BFEF7BEFCCDE9000198
:10198000FEF775FE04B2BAF1000F06D0BAF1010FEE
:1019900010D0BAF1020F2BD11AE004213C48FFF716
:1019A00008FA08213A48FFF706FA04EBC4003D495B
:1019B00008801EE001213748FFF7FBF90221354876
:1019C000FFF7F9F904EBC4003649091D088010E05F
:1019D0004FF480712F48FFF7ECF94FF400712D4858
:1019E000FFF7E9F904EBC4002E490831088000E054
:1019F00000BF4BE02046FEF710FE0546264A274B67
:101A0000FEF721FD07460022254BFEF716FDCDE926
:101A10000001FEF72CFE04B2BAF1000F06D0BAF1B5
:101A2000010F11D0BAF1020F2ED11CE00421184889
:101A3000FFF7C1F908211648FFF7BBF9604200EB38
:101A4000C0001849088020E001211248FFF7B3F9CF
:101A500002211048FFF7ADF9604200EBC0001149C8
:101A6000091D088011E04FF480710A48FFF7A3F9BF
:101A70004FF400710748FFF79CF9604200EBC0008B
:101A800008490831088000E000BF00BFBDE8FC87BE
:101A900000080140000C0140CDCCCCCCCCCCDC3FCC
:101AA000008046403434014070B52F4A51682F4AB7
:101AB0005068FEF765FE02D22C48406801E02A48D3
:101AC000406804462A4841682046FEF759FE01D284
:101AD000204601E02648406804462046FEF7E6FD21
:101AE00005460022234BFEF70DFE20D21F49486811
:101AF0002146FEF7C3FB05461F49FEF78DFB1B4938
:101B00004860194948682146FEF7B8FB05461A495E
:101B1000FEF782FB14494860154948682146FEF7E4
:101B2000ADFB05461449FEF777FB114948600F49A4
:101B30004868FEF783FD05B200212846FFF7D4FE72
:101B400009494868FEF77AFD05B201212846FFF7EA
:101B5000CBFE07494868FEF771FD05B20221284611
:101B6000FFF7C2FE70BD0000CC850020B4850020C8
:101B7000E4850020000059400000C842704708B5C5
:101B80004FF4A06000F056F825208DF800000120E9
:101B90008DF8030000208DF801008DF802006846E2
:101BA00000F010F836208DF8000001208DF80100BB
:101BB00000208DF8020001208DF80300684600F037
:101BC00001F808BD70B5002100230F22C47804B3CA
:101BD000154C246804F4E064C4F5E064210AC1F102
:101BE0000403CA40447804FA03F184781440214382
:101BF00009010E4C0678A155047804F01F05012454
:101C0000AC4005786D11AD0005F1E025C5F8004147
:101C100009E0047804F01F050124AC40044D067867
:101C2000761145F8264070BD0CED00E000E400E0C0
:101C300080E100E002490143024A11607047000060
:101C40000000FA050CED00E02DE9F0470124BD4845
:101C50000068BD490860BD4A1168BB4A1068FEF7BC
:101C6000D5FAB949C860BA480068FEF71FFD0546B5
:101C70000E46B549C868FEF719FD21F00041074638
:101C80002A463346FEF726FD00D20024AE494869B5
:101C9000B0490968FEF76AFD06D2AB494869AE490A
:101CA0000968FEF76DFD19D3A7494869A949096874
:101CB000FEF766FD05D2A449C8680021FEF756FD6F
:101CC0000CD3A1494869A4490968FEF74FFD0CD21D
:101CD0009D49C8680021FEF753FD06D29A4AD16893
:101CE0005069FEF741FA98494861974A1169D068EE
:101CF000FEF78CFA0746994801683846FEF78CFAD9
:101D000005462046FEF780FC82469548016850460D
:101D1000FEF782FA80468C4841694046FEF77CFA1D
:101D200007468948C1688F480068FEF775FA814602
:101D30003946FEF719FA06462946FEF715FA824992
:101D400048600846C068086101247E4840688649AA
:101D500008607E4A5168844A1068FEF757FA824943
:101D6000C8607B480068FEF7A1FC05460E467E4928
:101D7000C868FEF79BFC21F0004107462A4633461F
:101D8000FEF7A8FC00D20024774948697149096828
:101D9000FEF7ECFC06D2744948696F490968FEF702
:101DA000EFFC19D3704948696A490968FEF7E8FCF5
:101DB00005D26D49C8680021FEF7D8FC0CD36A49EA
:101DC000486965490968FEF7D1FC0CD26649C868C4
:101DD0000021FEF7D5FC06D2634AD1685069FEF7B0
:101DE000C3F961494861604A1169D068FEF70EFA8B
:101DF00007465A4801683846FEF70EFA054620465F
:101E0000FEF702FC8246564801685046FEF704FA87
:101E10008046554841694046FEF7FEF9074652485C
:101E2000C16850480068FEF7F7F981463946FEF769
:101E30009BF906462946FEF797F94B494860084644
:101E4000C068086101243F488068484908603F4AEB
:101E50009168464A1068FEF7D9F94449C8603C4881
:101E60000068FEF723FC05460E464049C868FEF7A9
:101E70001DFC21F0004107462A463346FEF72AFCA6
:101E800000D200243949486932490968FEF76EFCDE
:101E900006D23649486930490968FEF771FC19D302
:101EA000324948692B490968FEF76AFC05D22F4977
:101EB000C8680021FEF75AFC0CD32C494869264912
:101EC0000968FEF753FC0CD22849C8680021FEF7C8
:101ED00057FC06D2254AD1685069FEF745F92349D7
:101EE0004861224A1169D068FEF790F907461B48FD
:101EF00001683846FEF790F905462046FEF784FB58
:101F00008246174801685046FEF786F98046174812
:101F100041694046FEF780F907461448C1681148F8
:101F20000068FEF779F981463946FEF71DF9064645
:101F30002946FEF719F90D4948600846C06808614E
:101F4000BDE8F087F8800020B4850020EC800020F8
:101F500040000020380000203C0000203400002019
:101F6000300000202C000020CC850020E4850020DB
:101F70007047000029B1064AD2690243044BDA6176
:101F800004E0034AD2698243014BDA6170470000E2
:101F90000010024029B1064A92690243044B9A613B
:101FA00004E0034A92698243014B9A617047000042
:101FB0000010024030B500210022002400232D4DE6
:101FC0006D6805F00C0121B1042905D0082923D141
:101FD00005E0294D056022E0274D05601FE0254DF5
:101FE0006D6805F47012234D6D6805F48034022588
:101FF00005EB92421CB9214D554305600BE01D4D88
:102000006D6805F400351DB11C4D5543056002E0B7
:10201000194D5543056002E0174D056000BF00BF34
:10202000144D6D6805F0F0010909154D6B5C0568EC
:10203000DD4045600F4D6D6805F4E061090A104D03
:102040006B5C4568DD4085600A4D6D6805F4605144
:10205000C90A0B4D6B5C4568DD40C560054D6D6878
:1020600005F44041890B074D6B5CC568B5FBF3F582
:10207000056130BD0010024000127A0000093D00E9
:10208000BC000020CC000020704710B500F002F822
:1020900010BD00000CB5002001900090334800688E
:1020A00040F480303149086000BF3048006800F4D7
:1020B000003000900198401C0190009818B90198D8
:1020C000B0F5A06FF1D12948006800F4003010B1DC
:1020D0000120009001E0002000900098012843D1E9
:1020E0002348006840F01000214908600846006855
:1020F00020F0030008600846006840F00200086015
:102100001A484068194948600846406848600846CF
:10211000406840F4806048600846406820F47C10C5
:1021200048600846406840F4E81048600846006887
:1021300040F08070086000BF0C48006800F000703C
:102140000028F9D00948406820F00300074948609A
:102150000846406840F00200486000BF03484068FD
:1021600000F00C000828F9D10CBD0000001002405E
:10217000002002402DE9F04100248AE03B20FFF7D7
:1021800091F98046FEF740FA07464FF08E41FEF780
:1021900075F806465749FEF73FF805465648016868
:1021A0002846FDF7E1FF544908603D20FFF77AF922
:1021B0008046FEF729FA07464FF08E41FEF75EF89B
:1021C00006464C49FEF728F805464C480168284663
:1021D000FDF7CAFF494908603F20FFF763F98046D1
:1021E000FEF712FA07464FF08E41FEF747F8064613
:1021F0004049FEF711F80546414801682846FDF7B9
:10220000B3FF3F4908604320FFF74CF98046FEF7D3
:10221000FBF907464FF08E41FEF730F80646394984
:10222000FDF7FAFF0546384801682846FDF79CFF90
:10223000354908604520FFF735F98046FEF7E4F997
:1022400007464FF08E41FEF719F806462D49FDF777
:10225000E3FF05462D4801682846FDF785FF2B4919
:1022600008604720FFF71EF98046FEF7CDF90746C4
:102270004FF08E41FEF702F806462249FDF7CCFFEB
:102280000546234801682846FDF76EFF204908608F
:10229000641CB4F57A7FFFF671AF1E4916480068DA
:1022A000FDF7ECFF144908601A4914480068FDF76F
:1022B000E5FF12490860174911480068FDF7DEFF85
:1022C0000F490860134910480068FDF7D7FF0E4911
:1022D000086010490D480068FDF7D0FF0B49086001
:1022E0000C490B480068FDF7C9FF09490860BDE8C3
:1022F000F0810000CDCC9C417C00002080000020BB
:10230000840000200000FA44880000208C00002097
:102310009000002000007A4410B500F0ABFC10BD26
:1023200030B519480068194AB0FBF2F1481EB0F107
:10233000807F01D301201BE0481E4FF0E022506156
:1023400050170F22002804DB13071C0E104B1C54DF
:1023500006E013071D0E0F4B00F00F04241F1D5540
:1023600000BF00204FF0E0229061072010610020A4
:1023700008B100BFFEE74FF0E020006920F0010047
:102380004FF0E021086130BDD0000020A0860100A0
:1023900000E400E018ED00E010B51348006840F0DC
:1023A00001001149086008464068104908400E497C
:1023B0004860084600680E4908400B490860084616
:1023C000006820F4802008600846406820F4FE0081
:1023D00048604FF41F008860FFF757FE4FF0006021
:1023E0000449086010BD0000001002400000FFF822
:1023F000FFFFF6FE08ED00E0F0B50C4615460022A2
:102400000021068C4FF6FE773E400684028B018C3D
:102410004FF60C7632407E1C06EA03162E433243FA
:10242000104EB0420ED0104EB0420BD0B0F1804FE3
:1024300008D00E4EB04205D00D4EB04202D00D4E27
:10244000B04206D14FF6FD76314044F001063143EB
:1024500005E04FF6F576314044F001063143028342
:102460000184F0BD002C0140003401400004004014
:1024700000080040000C0040F0B50C461546002254
:1024800000210026078C4FF6EF7C07EA0C07078433
:10249000028B018C4FF6FF7707EA041640F6FF47E0
:1024A0003A404FF6FF7707EA03373A434FF6FF7794
:1024B00007EA05273A43114FB8420ED0104FB842F1
:1024C0000BD0B0F1804F08D00E4FB84205D00E4F60
:1024D000B84202D00D4FB84206D14FF6DF773940EF
:1024E00046F01007394305E04FF65F77394044F076
:1024F0001007394302830184F0BD0000002C014025
:10250000003401400004004000080040000C00407E
:10251000F0B50C461546002200210026078C4FF628
:10252000FF6C07EA0C070784828B018C4FF6FF775C
:1025300007EA04264FF60C773A404FF6FF7707EA92
:1025400003172F433A43114FB8420ED0104FB842F1
:102550000BD0B0F1804F08D00E4FB84205D00E4FCF
:10256000B84202D00D4FB84206D14FF6FF5739405E
:1025700046F48077394305E04FF2FF57394044F481
:102580008077394382830184F0BD0000002C014034
:10259000003401400004004000080040000C0040EE
:1025A000F0B50C461546002200210026078C4EF699
:1025B000FF7C07EA0C070784828B018C4FF6FF77BC
:1025C00007EA043640F6FF473A404FF6FF7707EA3E
:1025D00005273A434FF6FF7707EA03373A43114F8F
:1025E000B8420ED0104FB8420BD0B0F1804F08D097
:1025F0000E4FB84205D00E4FB84202D00D4FB84230
:1026000006D14DF6FF77394046F48057394305E04F
:1026100047F6FF57394044F4805739438283018499
:10262000F0BD0000002C01400034014000040040D7
:1026300000080040000C004010B50121094800F0DE
:10264000C6F868B10121074800F082F801F038FBB4
:10265000FEF716FBFEF7B2FB01F0E6FAFFF734F9DE
:1026600010BD0000001000400EB540F60F60ADF840
:1026700000001320ADF804000020ADF80600ADF80E
:1026800002006946064800F0A3FA012211460448F8
:1026900000F00DF90121024800F05DF80EBD0000C8
:1026A0000010004000B589B04FF4E070ADF8200094
:1026B00018208DF8230003208DF8220008A9224855
:1026C000FEF7ECFA4FF46170ADF818000020ADF899
:1026D0001400ADF81A00ADF8160005A91B4800F06B
:1026E00077FA6020ADF804000120ADF80600002064
:1026F000ADF80C0001A9154800F0E2F808211348D4
:1027000000F02AF901A9114800F030F908210F481A
:1027100000F07EF901A90D4800F088F908210B4866
:1027200000F0D4F901A9094800F0DAF908210748B6
:1027300000F014FA0121054800F00DF801210348CA
:1027400000F015F809B000BD001001400034014050
:10275000CA430282704721B1028842F0010202801E
:1027600004E002884FF6FE731A400280704731B1D0
:10277000B0F8442042F40042A0F8442005E0B0F84C
:102780004420C2F30E02A0F844207047F0B50C4676
:1027900015461E460021002200230189028B038C6E
:1027A0004FF6F877394021434FF6FC473A4040F264
:1027B00001173A434FF6DD773B404FF6FF7707EAC4
:1027C00006172F433B43018102830384F0BD30B5DC
:1027D0000246002000230024158A05EA010395899A
:1027E00005EA010413B10CB1012000E0002030BD66
:1027F00070B505460C46244885420ED023488542D4
:102800000BD0B5F1804F08D02148854205D0214832
:10281000854202D02048854200D100E000BF2088D8
:1028200050B92389A28861882846FFF7E5FDE18831
:10283000284600F0A0F925E0208804280AD1238941
:10284000A28861882846FFF717FEE188284600F035
:102850009BF917E0208808280AD12389A28861887B
:102860002846FFF755FEE188284600F09AF909E06E
:102870002389A28861882846FFF792FEE1882846CE
:1028800000F098F970BD0000002C014000340140B8
:102890000004004000080040000C004000210180BE
:1028A0004180012181800021C180018170471AB1DE
:1028B00083890B43838102E083898B438381704743
:1028C00070B5002400220023058C4FF6FE763540BB
:1028D0000584028C8388048B4FF68F752C40B51EBF
:1028E0002C400D882C43751E2A400D892A434D88A3
:1028F0002A43144DA8420BD0134DA84208D0134DC3
:10290000A84205D0124DA84202D0124DA84213D1C0
:102910004FF6F7752A404D892A434FF6FB752A403A
:102920008D882A434FF6FF652B404FF6FF552B400D
:102930008D892B43CD892B4383800483CD88858665
:10294000028470BD002C0140003401400040014071
:1029500000440140004801400A460021018B4FF627
:10296000F7731940114301837047000070B50024CC
:1029700000220023058C4FF6EF7635400584028C4B
:102980008388048B48F6FF752C404FF6FF452C409A
:102990000D884FF6FF7606EA05252C434FF6DF75C6
:1029A0002A400D8906EA05152A434D8806EA0515D1
:1029B0002A43154DA84202D0144DA8421DD14FF60E
:1029C0007F752A404D894FF6FF7606EA05152A43A2
:1029D0004FF6BF752A408D8806EA05152A434FF643
:1029E000FF352B404FF2FF752B408D8906EA850598
:1029F0002B43CD8906EA85052B4383800483CD884C
:102A00000587028470BD0000002C014000340140A5
:102A10000A460021018B4FF2FF7319404FF6FF73F6
:102A200003EA0223194301837047000070B50024B4
:102A300000220023058C4FF6FF6635400584028C8A
:102A40008388848B4FF68F752C404FF6FC752C4095
:102A50000D882C434FF6FF552A400D894FF6FF761F
:102A600006EA05252A434D8806EA05252A43154D21
:102A7000A84202D0144DA8421DD14FF2FF752A4042
:102A80004D894FF6FF7606EA05252A434FF6FF35B6
:102A90002A408D8806EA05252A434EF6FF752B400D
:102AA0004DF6FF752B408D8906EA05152B43CD8920
:102AB00006EA05152B4383808483CD8885870284AD
:102AC00070BD0000002C0140003401400A46002186
:102AD000818B4FF6F77319401143818370470000D3
:102AE00070B5002200230024058C4EF6FF76354099
:102AF0000584038C8488828B48F6FF752A404FF644
:102B0000FF452A400D884FF6FF7606EA05252A4341
:102B10004DF6FF752B400D8906EA05352B434D8890
:102B200006EA05352B430B4DA84202D00A4DA842B8
:102B300008D14BF6FF752C408D894FF6FF7606EADB
:102B400085152C4384808283CD88A0F8405003846F
:102B500070BD0000002C0140003401400A460021F5
:102B6000818B4FF2FF7319404FF6FF7303EA022384
:102B7000194381837047028B4FF6F3731A40028327
:102B8000028B0A4302837047028B4FF2FF331A40D5
:102B90000283028B4FF6FF7303EA01231A43028379
:102BA0007047828B4FF6F3731A408283828B0A43FD
:102BB00082837047828B4FF2FF331A408283828B6D
:102BC0004FF6FF7303EA01231A4382837047000024
:102BD000002202881D4B98420ED01D4B98420BD00C
:102BE000B0F1804F08D01B4B984205D01A4B984249
:102BF00002D01A4B984204D14FF68F731A404B887B
:102C00001A43174B984207D0164B984204D04FF600
:102C1000FF431A40CB881A4302808B8883850B8838
:102C200003850A4B98420BD0094B984208D00E4BB3
:102C3000984205D00D4B984202D00D4B984201D1DD
:102C40000B7A03860123838270470000002C014029
:102C5000003401400004004000080040000C004027
:102C600000100040001400400040014000440140BA
:102C7000004801400448006820B103480068401E35
:102C800001490860704700000000002000B585B0D1
:102C900018208DF813004FF40070ADF810000320D9
:102CA0008DF8120004A92A48FDF7F8FF04208DF8DA
:102CB00013000002ADF8100004A92548FDF7EEFF4F
:102CC00018208DF813004FF48060ADF81000032039
:102CD0008DF8120004A91F48FDF7E0FF04208DF8CD
:102CE00013004002ADF8100004A91A48FDF7D6FF02
:102CF0004FF4165000900C20ADF80A000020ADF8FB
:102D00000800ADF80600ADF80400ADF80C00694607
:102D1000114800F047F9012240F225510E4800F019
:102D20001BF901210C4800F0D4F84FF4E130009079
:102D300069460A4800F036F9012240F22551074859
:102D400000F00AF90121054800F0C3F805B000BD04
:102D5000000801400010014000380140004C0040D4
:102D60001CB540F225514E4800F0CCF8B0B140F20D
:102D700025514B4800F09EF8494800F07FF9C4B255
:102D800048480068B0F5804F07D0464801680068A1
:102D9000401C444A10604448445400BF4148006805
:102DA00020287CD140480078FC2862DB3E48807FA8
:102DB0000D285ED13C48C07F0A285AD13A48007895
:102DC00000F00200394988713748007800F00100AE
:102DD000C871354840788009087233488078324994
:102DE000497801F03F0140EA0120304908802E482F
:102DF000C07848822C4840792B49097940EA012063
:102E000001B22A488182284880792849C882264808
:102E1000007A2549C97940EA012001B2234801839B
:102E20002148407A2149C8811F48C07A1E49897AC1
:102E300040EA012001B21D4801821B48407B1A492B
:102E4000097B40EA0120194948801748C07B164990
:102E5000897B40EA0120154988801348007C48722C
:102E60001148407C88721048807CC8720E48C07C33
:102E700008730E48D0F80E0001900C48D0F81200EC
:102E80000090019900F052FC0020064908600849B2
:102E9000522000F053FF06490A2000F04FFF1CBDEE
:102EA0000038014008000020EC400020FC85002094
:102EB000E400002010B50022002340F66A14A1426D
:102EC00000D100BF0A1201249440A3B2DC43048065
:102ED00010BD21B1828942F40052828104E08289CE
:102EE0004DF6FF731A408281704702460020B1F50B
:102EF000007F00D100BF13880B400BB1012000E020
:102F00000020704770B502460024002300250020F1
:102F100040F66A16B14200D100BFC1F3421501F07C
:102F20001F03012606FA03F3012D02D196893340CF
:102F300006E0022D02D1168A334001E0968A334022
:102F40000C12012606FA04F41688344013B10CB1B1
:102F5000012000E0002070BDF0B5034600240026EB
:102F60000025002040F66A17B94200D100BF18467C
:102F7000C1F3421401F01F06012707FA06F5012CE0
:102F800001D10C3004E0022C01D1103000E01430EB
:102F90001AB107682F43076002E00768AF43076074
:102FA000F0BD00002DE9F04786B005460E4600242E
:102FB000A24600BFA1460027B08900B100BF2F463E
:102FC0002C8A4CF6FF700440F08804432C82AC89B4
:102FD0004EF6F3100440B0883189084371890843E4
:102FE0000443AC81AC8A4FF6FF400440B0890443EF
:102FF000AC8201A8FEF7DEFF1F48874202D1DDF850
:1030000010A001E0DDF80CA0A88900F4004040B158
:103010000AEBCA0000EB0A1031684900B0FBF1F876
:1030200007E00AEBCA0000EB0A1031688900B0FB28
:10303000F1F86420B8FBF0F004012009642101FBE1
:103040001089A88900F4004040B1322000EBC9008B
:10305000B0FBF1F000F00700044308E0322000EB81
:1030600009106421B0FBF1F000F00F0004432C8143
:1030700006B0BDE8F08700000038014001468888AE
:10308000C0F308007047C1F308028280704700BF98
:10309000FEE7490050EAC12018BF04204A0D18BFBE
:1030A00040F0010040F2FF72B2EB515F08BF40F008
:1030B0000200012808BF0520704700002DE9F74FE6
:1030C000144694B00021C4E902111599079121F02A
:1030D0000045C9498D4206DC1599C4E9000117B0C5
:1030E0000020BDE8F08FC549DFF814A3A9423CDDFC
:1030F0000799C44E0029C44FC44A1599534619DD97
:10310000FDF79BF9554506D0C14AC24BFDF795F92D
:10311000C4E900010AE04FF0D352BE4BFDF78DF930
:1031200032463B46FDF789F9C4E9000117B001209A
:10313000BDE8F08FFDF7E0F8554506D0B44AB54B31
:10314000FDF7DAF8C4E900010AE04FF0D352B14BC1
:10315000FDF7D2F832463B46FDF7CEF8C4E9000150
:1031600017B04FF0FF30BDE8F08FAB49A942159979
:1031700078DB21F0004183468846A84AA84BFDF73A
:1031800062F90022A74BFDF7B7F8FDF770FA099036
:10319000FDF743FA06460F469C4A5346FDF753F99E
:1031A00043465A46FDF74CF980468A46984A994B61
:1031B00030463946FDF747F92A0D01250B92424664
:1031C0005346FDF73DF9032DC4E9000139D00B98B2
:1031D000C1F30A51401A05EB45111139814230DA29
:1031E0009148C346784400EB0510CDF80CA00C9034
:1031F000D0E9002330463946FDF725F902460B4653
:103200000491069058460399FDF717F980468A46BF
:1032100002460B4658460399FDF70FF9049B069AA0
:10322000FDF70BF983460C9803913946D0E9022348
:103230003046FDF708F95A46039BFDF7FEF86D1C72
:10324000BDE707980028A2BF099817B0BDE8F08F26
:10325000616881F000416160099817B04042BDE8A3
:10326000F08FFFE784461598C1F31301C0F30A50AD
:10327000A0F2F5304FEA601800F01F06C6F12000FA
:10328000139000200690079041F4801E05206D46A3
:1032900076B1664A08EB00017A4452F8213002EB1D
:1032A0008101B3404A68139922FA01F1194305E0FC
:1032B0005F4908EB0002794451F82210A1FB0E2768
:1032C000A1FB0C131A449A4234BF0123002303EBE1
:1032D000070A05EB8003D3E901B70F448F4234BFDF
:1032E0000121002193448B4411B1934502D903E09D
:1032F000934501D2012100E00021C3E901B7514407
:1033000045F82010011EA0F10100C1DC0298059FC4
:1033100000F10050800F12900298DDE90356800002
:10332000FDF77BF9834628460D91FDF772FB6FF0A0
:103330001D02FDF757FBCDE90E013046FDF769FB95
:103340006FF03D02FDF74EFB80468A463846FDF79A
:1033500060FB6FF05D02FDF745FB074642465346B2
:103360001191FCF7C9FFDDE90E23FCF7C5FF5A46B2
:103370000D9BFCF7C1FF00250E465A4628460D9BC3
:10338000FDF75BF8DDE90E23FDF757F8424653469B
:10339000FDF753F83A46119BFDF752F8DFF898A075
:1033A000244A5346FDF74FF807468846234A244BE4
:1033B00031462846FDF747F83A464346FCF79CFF5E
:1033C000074688464FF0A842534631462846FDF747
:1033D0003AF83A464346FCF78FFF159A12F0004F31
:1033E00004D0129A81F0004152421292C4E90001C5
:1033F000129817B0BDE8F08FFB21E93F7CD902405D
:10340000FB21F93F7370032E8A19A33B000040543F
:103410003163621A61B4D03DFB21394183C8C96D63
:10342000305FE43F0000E03FD01100004C1100008D
:103430002E110000182D4454FB21F93D3326A6110E
:10344000460B113C2DE9FF4D21F0004807460C4684
:10345000B8F1795F08DAFDF70AF9002801BF00200A
:10346000324904B0BDE8F08D3A462346104619466D
:10347000FCF7E9FF054602462D480E460B4606219D
:10348000784400F05DF82A463346FCF7DCFFDDE9BE
:10349000022382468B4638462146FCF7D4FF044679
:1034A0000F4652465B4628463146FCF7CCFF224683
:1034B0003B46FCF7C2FF07468A464FF0FF322846DC
:1034C0003146FDF78FFA1B4A90450ADA3A465346D1
:1034D000FCF7B3FF04B00022BDE8F04D134BFCF73E
:1034E000AFBF154A4245A8BFA8F500154FF000042C
:1034F000B8BF124D22462B46FCF79FFF0646884672
:1035000022462B4600200949FCF797FF04460D464A
:103510003A46534630464146FCF78FFF04B02246F8
:103520002B46BDE8F04DFCF78BBF00000000F03FDC
:10353000FC0E00003333D33F0000E93F0000D23FD0
:103540002DE9F0414F1E00EBC7010446D1E900010F
:1035500015461E4637F006020DD02A463346FCF7C4
:1035600072FF7F1E04EBC703D3E90023FCF7C4FE00
:1035700037F00602F1D1022F25D0042F13D0062FE9
:1035800018BFBDE8F0812A463346FCF75CFFD4E95A
:103590000A23FCF7B1FE2A463346FCF754FFD4E970
:1035A0000823FCF7A9FE2A463346FCF74CFFD4E972
:1035B0000623FCF7A1FE2A463346FCF744FFD4E974
:1035C0000423FCF799FE2A463346FCF73CFFD4E976
:1035D0000223FCF791FE2A463346FCF734FFD4E978
:1035E0000023BDE8F041FCF787BE00002DE9FF4D48
:1035F000054621F0004084B00C46B0F1795F0BDA4B
:103600002846FFF746FD042808BF00F071F8284659
:1036100008B02146BDE8F08D2A460B461046FCF75F
:1036200012FF06460F462A462346FCF70CFF80464B
:1036300026488A4632463B4605217844FFF780FFFC
:1036400083461098029160B3214A224B404651466E
:10365000FCF7F9FECDE900015A4640465146029B6F
:10366000FCF7F1FE82468846DDE906014FF0FF32A5
:10367000FDF7B8F952464346FCF7DFFE32463B46BB
:10368000FCF7E1FEDDE90623FCF7D7FEDDE90023C8
:10369000FCF7D3FE08B02A462346BDE8F04DFCF700
:1036A000CFBE0B465A4630463946FCF7CCFE084A98
:1036B000084BFCF721FE42465346FCF7C4FE08B017
:1036C0002A462346BDE8F04DFCF716BE420E000028
:1036D000495555555555C5BF0122FDF783B9FCF72E
:1036E0000BBE0022134610461146FCF71EBF000019
:1036F000024A00201107FDF775B9000001FDFFFF28
:1037000002E008C8121F08C1002AFAD170477047AA
:10371000002001E001C1121F002AFBD17047000008
:103720000149086070470000E800002003B5124816
:103730000088401C1049088008460088642190FBDE
:10374000F1F201FB12000C4908800C490A4A128868
:1037500001EB8200BDF800100180BDF8021041802D
:103760000749054A128801EB8200BDF80410018068
:10377000BDF8061041800CBD14000020048100201B
:10378000948200202DE9F84F04460D4621F00040B8
:1037900000917349814211DC7249884201DC06D1F3
:1037A0002CB120462946BDE8F84FFFF795BF6E487B
:1037B000002DCCBF6D496E49BDE8F88F6D4981423F
:1037C00011DD6D498142D8BF4FF0FF366DDD2046D7
:1037D0002946FFF75EFC042808BFFFF789FF204653
:1037E0002946BDE8F88F6549654F25F000458142BF
:1037F00033DD6449814219DD002632464FF08043B3
:1038000020462946FCF778FD80468A46012220465C
:103810002946FDF7E7F800223B46FCF70EFE42463C
:103820005346FCF782FE04460D463EE00126002288
:10383000BA463B4620462946FCF75EFD80460F46C9
:103840000022534620462946FCF7F7FD42463B46F8
:10385000FCF76BFE04460D4627E04B4981421BDD19
:10386000DFF828A102260022534620462946FCF70D
:10387000EAFD00223B46FCF73FFD80460F46002252
:10388000534620462946FCF7D8FD42463B46FCF706
:103890004CFE04460D4608E0032622462B46002037
:1038A0003B49FCF742FE04460D4622462B46104695
:1038B0001946FCF7C8FD8B46824602460B46FCF7CC
:1038C000C2FD07460246334888460B460621784427
:1038D000FFF736FE52465B46FCF7B5FD82462E48A2
:1038E0008B463A46434605217844FFF729FE3A467F
:1038F0004346FCF7A8FD02460B46002E50465946AB
:103900000CDAFCF7F9FC22462B46FCF79CFD01B0D3
:1039100022462B46BDE8F04FFCF792BDFCF7ECFCCD
:1039200022462B46FCF78FFD1C4A7A4402EBC60365
:10393000D3E90023FCF781FD22462B46FCF77DFDF1
:10394000174A7A4402EBC603D3E90023FCF778FD5B
:10395000009A002AB8BF81F00041BDE8F88F00004E
:10396000000010440000F07F182D4454FB21F93F63
:10397000FB21F9BF0000DC3F0000203E0000F33FC8
:103980000000F03F0000E63F008003400000F83FE9
:103990000000F0BF7E0A00003C0A0000DA090000C7
:1039A000A20900002DE9F04D9446CCF1000423F06B
:1039B00000464CEA0404524F46EAD4749A468846BC
:1039C00021F00042BC4206D8454240EA050442EAE2
:1039D000D474BC4204D9BDE8F04D6246FFF77FBE07
:1039E000AAF14055A5F17F6555EA0C040BD00224DD
:1039F00004EAAA74434DDFF810E144EAD87452EAAD
:103A0000000B04D00CE0BDE8F04DFFF7BBBE002C6E
:103A100014BF012CBDE8F08D022C30D0032C32D025
:103A200056EA0C0B0AD0BE4220D1BA4209D126F088
:103A3000804622F080423346114617E000291ADB07
:103A400025E0DFF8C8B0FB44002C04BFDBE900012F
:103A5000BDE8F08D012C02BFDBE9000181F00041DF
:103A6000BDE8F08D022C0AD0032C0CD0BA4212D142
:103A7000B8F1000F0BDA23482549BDE8F08D284640
:103A80002449BDE8F08D28467146BDE8F08D1D48FB
:103A90002149BDE8F08D921B12153C2AC4BF19487C
:103AA0001D490EDCBAF1000FBEBF12F13C0F002021
:103AB000014606DB6246FCF738FD21F00041FFF7C6
:103AC00061FE002C08BFBDE8F08D012C04BF81F021
:103AD0000041BDE8F08D114A114B022C07D0FCF7D4
:103AE000ACFC2A46BDE8F04D0A4BFCF7A6BCFCF73F
:103AF000A4FC2A46BDE8F04D064BFCF7A1BC000033
:103B00000000F07F182D4454FB2109C06609000015
:103B1000FB21F9BFFB210940FB21F93F075C14336E
:103B200026A6A13C00B5244B21F0004287B09A4262
:103B3000DCBF0022134629DD204B9A4208D140B950
:103B40004FF00100FFF7ECFDFFF7CBFD07B000BD24
:103B500003DBFFF7C1FD07B000BD02AAFFF7AEFA15
:103B600010F0030104BF0DF1080C9CE80F000DD00C
:103B7000012001290ED0022914D00DF1080C00906B
:103B80009CE80F00FFF732FD07B000BDFFF75AFCBD
:103B900007B000BD0DF1080C00909CE80F00FFF786
:103BA00025FD05E00DF1080C9CE80F00FFF74AFC2D
:103BB00007B081F0004100BDFB21E93F0000F07F2C
:103BC00070B504460D46E1B20548FFF75CFA00BF48
:103BD00040210348FFF789F90128F9D1204670BD3B
:103BE000003801402DE9F341BDF90010BDF9042072
:103BF000891A4943BDF90220BDF90630D21ABDF930
:103C00000230BDF906609B1B02FB0310FCF705FDAB
:103C100004460D462046294600F062FA0646FCF7A7
:103C200089FDBDE8FC810000024800680249086087
:103C3000704700009C000020100000200121172088
:103C4000FEF798F9012144F20500FEF7A3F90121DE
:103C50004803FEF79FF901211C20FEF79BF9012183
:103C6000C804FEF787F9FEF71DFDFEF759FBFFF7C5
:103C70000DF8FDF70BFEFCF787FFFDF7BDFDFDF727
:103C8000EEFD09A000F05CF8FEF774FA09A000F060
:103C900057F8FEF7E9FCFDF772FF03E042F21070FF
:103CA000FCF760FFFAE70000426567696E20536524
:103CB00074757000456E6420536574757000000063
:103CC0002DE9F0414FF08041898C08B2FCF7A5FC4A
:103CD00006460022134BFCF7B0FB0446FCF72AFD16
:103CE000114988601149098808B2FCF796FC06461C
:103CF00000220C4BFCF7A1FB0446FCF71BFD0C4912
:103D000088600C49098808B2FCF787FC0646002247
:103D1000044BFCF792FB0446FCF70CFD0649886057
:103D2000BDE8F08100002840B48500202404004054
:103D3000CC85002024080040E4850020FFF740BF28
:103D400010B5044601E0FFF73BFF14F8010B0449EE
:103D50000028F8D1BDE810400A20FFF731BF00006D
:103D6000E40000202DE9F34381B0BDF90810BDF94E
:103D70000420881AFCF751FC04460D46BDF90A10D0
:103D8000BDF90620881AFCF748FC064622462B4659
:103D9000FFF708FE8046FCF7CDFC00900098BDE8D8
:103DA000FE8300002DE9F04F8DB09C489C490988A6
:103DB00000EB81073888ADF828007888ADF82A0034
:103DC00098489749098800EB81063088ADF82C00A7
:103DD0007088ADF82E00DDE90A01FFF703FF804689
:103DE000FCF764FC04460D468F488D49098800EBBA
:103DF00081073888ADF828007888ADF82A0089480E
:103E00008749098800EB81063088ADF82C0070885E
:103E1000ADF82E00DDE90A01FFF7E4FE8046814897
:103E20007F49098830F82100804908807D487C4915
:103E3000098800EB810040887C49488000227C4B47
:103E400020462946FCF75EFC29D27649744A12883E
:103E500001EB82000188754A1180418851806F48CA
:103E60006F49098800EB81063088ADF8280070881A
:103E7000ADF82A0010460088ADF82C0010464088A6
:103E8000ADF82E00DDE90A01FFF76CFF074669482F
:103E900001683846FCF7BAF967490860BAE069205A
:103EA000ADF82C0040F22910ADF82E005D485C49B9
:103EB000098830F92100C0F169095A485849098830
:103EC00000EB8100B0F9020040F229110E1A09FB43
:103ED00009F106FB0610FCF7A0FB074600F000F90D
:103EE00050484F49098800EB81073888ADF8240015
:103EF0007888ADF826000B990998FFF733FF0A90F0
:103F00004C4801680A98FCF781F94B490860494818
:103F100001680A98FCF77AF98246FCF7C7FB21F0A2
:103F2000004107460022454BFCF7ECFB6AD23D48B6
:103F30003B49098830F92100C0F1690B39483849FB
:103F4000098800EB8100B0F9020040F22911A1EBD1
:103F5000000A0BFB0BF10AFB0A10FCF75EFBCDE934
:103F6000080100F0BDF8074688465846FCF755FBA7
:103F700022462B46CDE90001FCF765FA3A46434656
:103F8000CDE90201FCF7D1FACDE906012549244A21
:103F9000128831F92200FCF740FBCDE90401DDE98C
:103FA0000623FCF74AFACDE90801FCF760FB00B2F2
:103FB0001E4908805046FCF730FB22462B46CDE9CF
:103FC0000001FCF740FA3A464346CDE90201FCF70E
:103FD000ACFACDE906011349114A128801EB8201BE
:103FE000B1F90200FCF719FBCDE90401DDE9062374
:103FF000FCF723FACDE90801FCF739FB00B20B49C5
:10400000088006E0BDF82C0008490880BDF82E00A5
:10401000488000BF0DB0BDE8F08F00000481002093
:104020001400002094820020248400201600002028
:1040300000002E40100000201C0000200000D03F97
:1040400000B5254B21F0004287B09A4203DC0022E4
:10405000134600922BE0214B9A4208D140B94FF011
:104060000100FFF75DFBFFF73CFB07B000BD03DB82
:10407000FFF732FB07B000BD02AAFFF71FF810F0F0
:1040800003014FF001000DD0012914D002291AD0EC
:104090000DF1080C9CE80F00FFF7D4F907B081F090
:1040A000004100BD0DF1080C00909CE80F00FFF7E7
:1040B0009DFA07B000BD0DF1080C9CE80F00FFF75A
:1040C000C1F907B000BD0DF1080C00909CE80F008D
:1040D000FFF78CFAE2E70000FB21E93F0000F07FE8
:1040E0002DE9F04106460F46FCF719FC041E0D466B
:1040F00018BF0120284320F00040C0F17F6000F18C
:10410000E040C00F0ED0301C18BF0120384320F013
:104110000040C0F17F6000F1E040C00F04BF01200B
:10412000FFF7FEFA20462946BDE8F0812DE9F04F61
:104130008BB0664800680A9065480068FCF7B6FADC
:10414000CDE906010A98FCF7B1FA8246614A624B52
:10415000FCF773F98046FFF7E5FC04460D465F481F
:104160000068FCF7A3FA064622462B46FCF76BF9DB
:10417000CDE902010A98FCF799FA0646554A564BD2
:10418000FCF75BF98046FFF75BFF04460D46544899
:104190000068FCF78BFA824622462B46FCF753F95F
:1041A000CDE90001DDE90223FCF747F9CDE904017F
:1041B000DDE90623FCF7A0F8CDE90801FCF7BAFA1F
:1041C0004849086042480068FCF770FACDE90801E8
:1041D0000A98FCF76BFA8046FFF7A4FC04460D46EC
:1041E0003E480068FCF762FA064622462B46FCF77A
:1041F0002AF9CDE904010A98FCF758FA8046FFF73E
:104200001FFF04460D4636480068FCF74FFA064685
:1042100022462B46FCF717F9CDE90201DDE904231C
:10422000FCF70BF9CDE90601DDE90823FCF764F89A
:104230008246FCF77FFA2B49486025480068FCF766
:1042400035FACDE906010A98FCF730FA8046214A92
:10425000214BFCF751F80646FFF764FC04460D4677
:104260001E480068FCF722FA824622462B46FCF7DD
:10427000EAF8CDE902010A98FCF718FA0646154A51
:10428000154BFCF739F88246FFF7DAFE04460D4677
:1042900013480068FCF70AFA804622462B46FCF7D2
:1042A000D2F8CDE90001DDE90223FCF7C6F8CDE93B
:1042B0000401DDE90623FCF71FF8CDE90801FCF74E
:1042C00039FA084988600BB0BDE8F08F1000002073
:1042D000280000208D976E1283C00040240000202B
:1042E00020000020F88000204FBB610567ACDD3F57
:1042F000182D4454FB21E93F9BF681D20B73EF3F0D
:10430000182D4454FB21F93FE2652F227F2B7A3C84
:10431000075C143326A6813CBDCBF07A8807703C3D
:10432000075C143326A6913CC4EB98999999C9BFB0
:10433000711623FEC671BCBF6D9A74AFF2B0B3BFE5
:104340009AFDDE522DDEADBF2F6C6A2C44B4A2BFA5
:104350000D5555555555D53FFF8300922449C23F11
:104360006E204CC5CD45B73F513DD0A0660DB13F45
:10437000EB0D76244B7BA93F11DA22E33AAD903F57
:104380004C5555555555A53F7751C1166CC156BF73
:104390009015CB19A001FA3EAD529C804F7E92BE83
:1043A000C4B1B4BD9EEE213ED43888BEE9FAA8BDA2
:1043B000000000000000000000004054FB21F93F15
:1043C0003163621A61B4D03D0000601A61B4D03D1F
:1043D0007370032E8A19A33B0000002E8A19A33B99
:1043E000C14920259A837B390000000000000000AD
:1043F0006E83F9A22915444ED15727FCC0DD34F550
:10440000999562DB4190433CAB6351FE61C5BBDED5
:104410003A6E24B7E0D24D42EA2E49061C92D109E9
:104420001CEB1DFE3EA729B1F53582E88444BB2E66
:1044300026709CE9417E5FB439D69139F4395383B3
:104440008B5F849C3B28F9BDFF97F81F0F9805DE12
:104450008B112FEF1F6D0A5ACF7E366DB709CB2710
:10446000663F464F2DEA5F9EC7BA27757BF1E5EBA5
:10447000F739073DEA92528AB15FFB6B085D8D1FE9
:10448000A6F810111111813FD561C119A0012ABFF1
:104490007DFEB157E31DC73EEB9C2B8AE6E55ABE75
:1044A0007CD5CF5A3AD9E53DC84400080000002029
:1044B000EC00000000370008B4450008EC000020C4
:1044C0002C890000103700080000000000000000E8
:1044D00000000000000000006666E63E00000000EC
:1044E00000000000000000000000000000000000CC
:1044F00000000000CDCC4C3ECDCC4C3DCDCCCC3DD5
:1045000000004843000048430000C842000000008B
:104510000000803F000000000000000000000000DC
:10452000000000000000000000000000000000008B
:10453000000000000000000000000000000000007B
:10454000000000000000000000000000000000006B
:10455000000000000000000000000000000000005B
:10456000000000000000000000000000000000004B
:10457000000000000000000000000000000000003B
:104580000000000000000000010203040102030417
:10459000060708090204060800A24A0400000000F9
:1045A00000000000010203040607080900000000E3
:0445B0000000000007
:0400000508000131BD
:00000001FF
